:020000040800F2
:1000000090040020ED0100088B100008510F00083B
:1000100089100008F90200087911000800000000AA
:10002000000000000000000000000000AF10000809
:10003000FB02000800000000AD100008B11000082D
:10004000070200080702000807020008070200086C
:10005000070200080702000807020008070200085C
:10006000070200080702000807020008070200084C
:10007000070200080702000807020008070200083C
:10008000070200080702000807020008070200082C
:10009000070200080702000807020008070200081C
:1000A000070200080702000807020008070200080C
:1000B00007020008070200080702000807020008FC
:1000C00007020008070200080702000807020008EC
:1000D00007020008070200080702000807020008DC
:1000E00007020008070200080702000807020008CC
:1000F00007020008070200080702000807020008BC
:1001000007020008070200080702000807020008AB
:10011000070200080702000807020008070200089B
:10012000070200080702000807020008070200088B
:10013000070200080702000807020008070200087B
:10014000070200080702000807020008070200086B
:10015000070200080702000807020008070200085B
:10016000070200080702000807020008070200084B
:10017000070200080702000800000000000000005D
:10018000070200080702000807020008070200082B
:10019000070200080702000800000000070200082C
:1001A000070200080702000800000000000000002D
:1001B000070200080000000000000000070200081D
:1001C00007020008070200080702000807020008EB
:1001D0000702000807020008DFF80CD000F07AF8E8
:1001E0000048004799110008900400200648804705
:1001F00006480047FEE7FEE7FEE7FEE7FEE7FEE70C
:10020000FEE7FEE7FEE7FEE725110008D90100083A
:100210002DE9F05F0546002092469B46884606463B
:10022000814640241BE0284641464746224600F0CE
:1002300041F853465A46C01A914110D31146184608
:10024000224600F028F82D1A67EB01084F46224697
:100250000120002100F01FF817EB00094E41201E7D
:10026000A4F10104DFDC484631462A464346BDE896
:10027000F09FD2B201E000F8012B491EFBD270477B
:100280000022F6E710B513460A4604461946FFF762
:10029000F0FF204610BD202A04DB203A00FA02F1CC
:1002A000002070479140C2F1200320FA03F3194364
:1002B00090407047202A04DB203A21FA02F0002106
:1002C000704721FA02F3D040C2F120029140084366
:1002D00019467047064C074D06E0E06840F0010300
:1002E00094E8070098471034AC42F6D3FFF778FF44
:1002F0005012000870120008FEE7704770B5040045
:1003000003D094F8200010B104E0012070BD204615
:1003100000F082F82068016821F00201016000F01D
:100320009FF90546052604E000F09AF9401B0A28CB
:1003300011D8206840688007F6D42068016841F031
:100340000101016000F08CF905460BE000F088F92E
:10035000401B0A2806D9606A40F40030606284F8C5
:100360002060D2E720684068C007EFD0207E0128D7
:10037000206801683DD021F080010160607E012885
:100380002068016838D021F040010160A07E01287A
:100390002068016833D021F020010160E07E01284F
:1003A000206801682ED041F010010160207F0128F3
:1003B0002068016829D021F008010160607F0128D0
:1003C0002068016824D021F004010160D4E9020111
:1003D0000843D4E90412114308436168491E0843E5
:1003E0002168C86100206062012084F8200000209C
:1003F00070BD41F08001C0E741F04001C5E741F028
:100400002001CAE721F01001CFE741F00801D4E74D
:1004100041F00401D9E7000010B586B0044614216C
:100420006846FFF72DFF14492068884221D1134800
:100430000021026842F000720260006800F0007063
:1004400005900E481038026842F001020260006810
:1004500000F0010005904FF4C05000900220CDE95B
:10046000010103200390092004906946044800F02C
:100470001BF806B010BD0000006400404038024088
:100480000000024070B5044600F0EAF80546601C22
:1004900002D004480078044400F0E2F8401BA04277
:1004A000FAD370BD000000202DE9F84FDFF874B1D9
:1004B00000224FF001084FF0030A4FF00F090BF133
:1004C000040E00BF0B6808FA02F42340A3426ED169
:1004D0004D68022D01D0122D0ED1D50800EB850CF0
:1004E000DCF820505607F70E09FA07F6B5430E69F7
:1004F000BE402E43CCF82060066855000F790AFAFA
:1005000005FC07F0030726EA0C06AF4037430760F7
:100510004E68012E05D0022E03D0112E01D0122ECE
:100520000ED18668CF6826EA0C06AF403743876055
:100530004668A6430C79C4F30014944034434460E5
:10054000C4688E6824EA0C04AE402643C6604C683A
:10055000E40060D5344C256845F480452560246866
:1005600022F0030504F480440094304C2E19D6F890
:10057000084895072F0F09FA07F5AC432C4DA84200
:1005800001D100251FE02B4DA84201D101251AE021
:10059000294DA84201D1022515E0284DA84201D1DC
:1005A000032510E0264DA84202D104250BE032E0DD
:1005B000244DA84201D1052505E0234DA84201D1D3
:1005C000062500E00725BD402543C6F80858DBF89E
:1005D00000405D464E689C43F60300D51C432C60EA
:1005E000DEF8004075464E689C43B60300D51C43B8
:1005F0002C600C4D08352C684E689C43F60200D5E3
:100600001C432C60074D0C352C684E689C43B60289
:1006100000D51C432C60521C102AFFF453AFBDE8D8
:10062000F88F0000003C0140443802400030014097
:10063000000002400004024000080240000C02409A
:1006400000100240001402400018024042694A4073
:10065000426170470AB1816170470904FBE70000FD
:1006600001488068704700000000002070B5040059
:1006700004D094F83D00002510B106E0012070BDC3
:1006800084F83C50204600F025F9242084F83D00F1
:100690002068016821F00101016000F073FA33491C
:1006A0002268B0FBF1F15160314A6368934206D988
:1006B0004FF4967359434FF47A73B1FBF3F1236807
:1006C000491C1962616891420BD84900B0FBF1F2F4
:1006D000C2F30B02042A01D2042019E0B0FBF1F0AE
:1006E00016E0A3689BB301EBC10202EB0112B0FB61
:1006F000F2F242F48042120530D04BB301EBC1025A
:1007000002EB0111B0FBF1F040F4804040F40040F6
:100710002168C861D4E90701084321680860D4E969
:100720000310084321688860D4E905010843216863
:10073000C8602068016841F0010101602564202043
:1007400084F83D00256384F83E50002070BD00E031
:1007500006E001EB4102B0FBF2F2CCE70120D7E763
:1007600001EB4101B0FBF1F0D0E7000040420F0087
:10077000A08601002DE9FF4F81B099468B460446C3
:100780004FF00108FFF76CFF054694F83D00202864
:100790007BD1192301224D492046009500F0D9FB59
:1007A000002872D194F83C0001286ED0012084F812
:1007B0003C0020680168C90703D1016841F00101CC
:1007C00001602068016821F400610160242084F840
:1007D0003D00002626643E48E0622027206801682C
:1007E00041F4807101604B4600224FF00111204618
:1007F000009500F0AEFB002858D121680BF0FE00F8
:100800000861FFF72DFF2168054648694969C0F373
:10081000400094F83D20C1F380214FF0A00A12E07F
:10082000B9F1000F04D0FFF71BFF411B494501D967
:1008300084F83DA0216848694969C0F3400094F8F4
:100840003D20C1F38021084301D1A02AE8D184F8DA
:100850003D7020684169C943890717D4016841F494
:1008600000710160206841698069192301221749DC
:100870002046009500F06DFBC0B984F83D7084F807
:100880003C60002005B0BDE8F08F1DE0016841F438
:100890000071016021686FF48060486119230122B2
:1008A0000A492046009500F054FB08B10320E9E70F
:1008B0004146039808F1010881428FD384F83D70C6
:1008C00084F83C600120DDE70220DBE70200100035
:1008D0000000FFFF10B586B0044614216846FFF7FC
:1008E000CFFC13492068884220D11248016841F0AA
:1008F000020101600068694600F002000590C02016
:100900000090122001900120029003200390042007
:1009100004900948FFF7C8FD06481030016841F40B
:1009200000110160006800F40010059006B010BDD1
:100930000054004030380240000402400248816800
:100940000278114481607047000000200B4810B508
:10095000016841F400710160016841F48061016047
:10096000016841F480710160032000F061F800200B
:1009700000F006F800F024F8002010BD003C024012
:1009800070B50D4D04464FF47A712878B1FBF0F044
:100990000A490968B1FBF0F000F0C6FA48B9102C1A
:1009A00007D200222146501E00F022F800206C6081
:1009B00070BD012070BD0000000000200C00002070
:1009C0000A4808B5016841F480410160006800F4FC
:1009D000804000900548001F016841F0805101608F
:1009E000006800F08050009008BD000044380240CC
:1009F000F0B40E4B1B680C46C3F30223C3F107058A
:100A0000042D00D90425191D072901D2002300E077
:100A1000DB1E012606FA05F1491E214099409E4041
:100A2000761E16403143F0BC00F030BB0CED00E008
:100A3000064900F0070208684FF6FF03184040EA35
:100A40000220034A10430860704700000CED00E0EC
:100A50000000FA052DE9F0470E46050065D0DFF8E5
:100A60001481D8F80000F7B200F00F00B04207D2AE
:100A700088F80070D8F8000000F00F00B04254D1A0
:100A800028683D4C810712D5400703D5206840F403
:100A9000E05020602878000703D5206840F46040CB
:100AA00020602068A96820F0F000084320602878C2
:100AB000C0072DD0304968680839012812D00228B3
:100AC00013D0032811D00968890700292DDA21687D
:100AD00021F0030101432160FFF7C2FD814641F28D
:100AE000883A0EE009688903EFE709688901ECE7B5
:100AF000FFF7B6FDA0EB0901514502D90320BDE87F
:100B0000F0872068696800F00C00B0EB810FEFD12E
:100B1000D8F80010404601F00F01B14207D9077024
:100B2000006800F00F00B04201D00120E7E728780C
:100B3000400705D52068E96820F4E05008432060AC
:100B40002878000706D52068296920F4604040EA2B
:100B5000C100206000F026F82168084AC1F30311A3
:100B6000515CC840064908600020FFF709FF0020DB
:100B7000C5E70000003C0240083802403812000877
:100B80000C0000200448054900680968044AC1F3C4
:100B90008221515CC84070470C0000200838024098
:100BA00048120008154810B5006810F00C021448EF
:100BB00013D04110042A0FD0082A0ED10F4C241F45
:100BC0002268236802F03F025B0207D52068C0F369
:100BD0008810A0FB010106E0084610BD2168C1F3A2
:100BE0008811A1FB00010023FFF712FB2168C1F36C
:100BF0000141491C4900B0FBF1F010BD083802402A
:100C00000024F4002DE9F84F05460078DFF800B322
:100C1000C04CC0074AD0DBF800105846C1F3810130
:100C2000012908D00068C0F3810002280AD1201DE4
:100C30000068400206D52068800337D56868002820
:100C400072D033E06868B0F5803F10D0B0F5A02FC7
:100C5000206810D020F480302060206820F48020AC
:100C600020606868A8B1FFF7FBFC06460DE020682D
:100C700040F48030F4E740F480202060F7E700BFC4
:100C8000FFF7EEFC801B64286FD820688003F7D53F
:100C90000CE0FFF7E5FC064605E000BFFFF7E0FCCF
:100CA000801B6428F0D820688003F7D42878DFF808
:100CB000688280074FF0000940D5DBF800105846E5
:100CC00011F00C0F09D00068C0F3810002280BD18D
:100CD0008F48001F0068400206D42068800715D5A1
:100CE000E868012820D111E0E868B8B10120C8F80F
:100CF0000000FFF7B5FC064605E000BFFFF7B0FCBB
:100D0000801B0228C0D820688007F7D52068296991
:100D100020F0F80040EAC10020600FE0C8F8009021
:100D2000FFF79EFC064606E0EFE000BFFFF798FCE9
:100D3000801B022819D820688007F7D4287800077C
:100D400022D5734E754869696C3679B1012101600D
:100D5000FFF786FC074604E0FFF782FCC01B022871
:100D600003D830688007F7D50EE089E0C0F800901E
:100D7000FFF776FC074604E0FFF772FCC01B022871
:100D80007ED830688007F7D42878400768D5DFF828
:100D900080A100270AF1380ADAF80000C0000BD45D
:100DA000DAF8001041F08051CAF80010DAF80000BB
:100DB000012700F080500090594E3068C00510D4D3
:100DC000306840F480703060FFF74AFC009005E026
:100DD000FFF746FC0099401A022851D83068C00538
:100DE000F6D54B4EA868683601280FD00528306824
:100DF00010D020F001003060306820F00400306036
:100E0000A868B8B1FFF72CFC00900FE0306840F004
:100E10000100F4E740F004003060F7E7FFF720FC42
:100E20000099411A41F28830814266D830688007C3
:100E3000F4D50EE0FFF714FC009007E0FFF710FC7C
:100E40000099411A41F28830814256D830688007B3
:100E5000F4D42FB1DAF8001021F08051CAF8001054
:100E6000A869D0B3DBF80010C1F3810102294CD08E
:100E70000228484607D0C8F86000FFF7F1FB00E001
:100E80003BE005463CE04746C8F86000FFF7E8FB5A
:100E9000064604E0FFF7E4FB801B02282DD82068FB
:100EA0008001F7D4F5E907010843E9681D4A4908BC
:100EB00002EB0141AA6841EA82110843297C40EA19
:100EC0000160297D40EA01711148001F0160012085
:100ED0003866FFF7C5FB054605E014E0FFF7C0FBE9
:100EE000401B022809D820688001F7D50BE000BF1D
:100EF000FFF7B6FB401B022802D90320BDE8F88F9C
:100F000020688001F4D40020F8E70120F6E7000013
:100F1000083802400038024000004742800E474235
:100F2000007000400000FFFF10B5401EB0F1807F50
:100F300001D3012010BD4FF0E02460610F21601744
:100F400000F0A4F80020A06107202061002010BD5F
:100F5000FEE72DE9F0471E4690460D460446C1F3D4
:100F60000747DDF8209012E0701C10D02EB1FFF77B
:100F700077FBA0EB0900B04209D9002044F8300FFC
:100F800020216173A07320730320BDE8F0872068DF
:100F9000012F0AD0806925EA00000004000C06D069
:100FA00000214145E0D00020EFE74069F3E701214F
:100FB000F7E700000948084901601021416000215D
:100FC0008160C16001614161017641768176C176BF
:100FD00001774177FFF792B90064004010000020CC
:100FE0002DE9F04186B014216846FFF749F92348FE
:100FF0000024016841F080010160016801F0800176
:101000000591016841F002010160016801F00201EF
:101010000591016841F004010160016801F00401DB
:101020000591016841F0010101600068144F00F072
:1010300001004FF440450590002229463846FFF74D
:1010400009FBDFF840804FF4E0760022314640464D
:10105000FFF700FB00950125CDE9015469463846AC
:101060000394FFF721FA0096CDE901546946404602
:101070000394FFF719FA06B0BDE8F081303802405A
:101080000004024000080240FEE770470907090E0D
:10109000002806DA00F00F0000F1E02080F8141DAF
:1010A000704700F1E02080F80014704770477047E7
:1010B000FFF744BC10B594B034216846FFF7E0F860
:1010C00014210DA8FFF7DCF814480024016841F052
:1010D00080510160006800F0805012901048016853
:1010E00041F4404101600068069400F440401290D1
:1010F0000220009001200390102004906846FFF722
:1011000081FD0F20CDE90D040F94109400210DA84E
:101110001194FFF79FFC14B010BD0000403802404E
:10112000007000401048016841F4700101600F48F0
:10113000016841F0010101600C4A00210832116090
:1011400002680B4B1A400260031D0A4A1A600268CB
:1011500022F48022026005480C30016002495806E2
:10116000803908607047000088ED00E000380240D8
:10117000FFFFF6FE10300024FEE702E008C8121F51
:1011800008C1002AFAD170477047002001E001C170
:10119000121F002AFBD17047FFF7D8FBFFF78AFF29
:1011A000FFF71EFFFFF706FF20481F494FF480425C
:1011B00001601F49416000218160C0E90312416163
:1011C0008161C1610162FFF751FA1A4D002440218B
:1011D0002846FFF73BFA6420FFF754F940212846E0
:1011E000FFF734FA6420FFF74DF9641C2404240C43
:1011F000EDD040212846FFF729FA80212846FFF745
:1012000025FA6420FFF73EF94FF480712846FFF776
:101210001DFA4FF47A70FFF735F90A2302225021A4
:101220000248FFF7A7FAFEE700540040380000200C
:10123000A08601000008024000000000000000003D
:10124000010203040607080900000000010203046C
:101250007012000800000020100000007A11000841
:101260008012000810000020800400008A1100088D
:101270000100000010000000000000000024F40045
:04000005080001D915
:00000001FF
