:020000040800F2
:1000000070150020ED010008431E00085B1C00086D
:10001000411E0008630300080920000800000000DA
:10002000000000000000000000000000471E000863
:10003000B903000800000000451E0008491E000822
:10004000070200080702000807020008070200086C
:10005000070200080702000807020008070200085C
:10006000070200080702000807020008070200084C
:10007000070200080702000807020008070200083C
:1000800007020008070200080702000889030008A9
:1000900065030008710300087D03000807020008DB
:1000A000070200080702000807020008070200080C
:1000B00007020008070200080702000807020008FC
:1000C00007020008070200080702000807020008EC
:1000D00007020008070200080702000807020008DC
:1000E00007020008070200080702000807020008CC
:1000F00007020008070200080702000807020008BC
:1001000007020008070200080702000807020008AB
:100110000702000807020008351F00080702000850
:10012000070200080702000807020008070200088B
:10013000070200080702000807020008070200087B
:10014000070200080702000807020008070200086B
:10015000070200080702000807020008070200085B
:10016000070200080702000807020008070200084B
:10017000070200080702000800000000000000005D
:10018000070200080702000807020008070200082B
:10019000070200080702000800000000070200082C
:1001A000070200080702000800000000000000002D
:1001B000070200080000000000000000070200081D
:1001C00007020008070200080702000807020008EB
:1001D0000702000807020008DFF80CD000F07AF8E8
:1001E000004800479D200008701500200648804701
:1001F00006480047FEE7FEE7FEE7FEE7FEE7FEE70C
:10020000FEE7FEE7FEE7FEE7E11E0008D901000871
:100210002DE9F05F0546002092469B46884606463B
:10022000814640241BE0284641464746224600F0CE
:1002300041F853465A46C01A914110D31146184608
:10024000224600F028F82D1A67EB01084F46224697
:100250000120002100F01FF817EB00094E41201E7D
:10026000A4F10104DFDC484631462A464346BDE896
:10027000F09FD2B201E000F8012B491EFBD270477B
:100280000022F6E710B513460A4604461946FFF762
:10029000F0FF204610BD202A04DB203A00FA02F1CC
:1002A000002070479140C2F1200320FA03F3194364
:1002B00090407047202A04DB203A21FA02F0002106
:1002C000704721FA02F3D040C2F120029140084366
:1002D00019467047064C074D06E0E06840F0010300
:1002E00094E8070098471034AC42F6D3FFF778FF44
:1002F00090210008B021000810B51870040A5C7045
:10030000040C9C70000ED870C1F30224080C197103
:1003100044EAC0105871A2F132009871100CD871E3
:10032000184610BD30B504460398250A0470457080
:10033000250C8570240EC470C1F302250C4665F3AC
:100340009F040D0C44EA45140471091602F00104DF
:100350003F3164F3DF114171110C64398171C37154
:1003600030BDFEE7014800F0A4B90000F80000200D
:10037000014800F09EB90000F8000020014800F09C
:1003800098B90000F8000020014800F092B9000080
:10039000F800002008B51346064A11600021D1601C
:1003A00013619160034902466B4601F1180000F0A9
:1003B00017F808BDE00000207047704790F8202033
:1003C000012A07D0022A05D0416A41F48021416206
:1003D00001207047006842690A434261002070476B
:1003E000F0B590F820500468A468012D05D0022DC6
:1003F00003D0416A41F4802153E014F0406F01D1F1
:10040000E5004BD5C4F30164022C03D9416A41F4E1
:10041000000146E00125A5401D608D684FF4C073C2
:100420009DB1CE6835434E6845EAC605066803EBC4
:100430000417F5514FF4C275076805EB04150E69F2
:100440007E51097D012905D009E00E88CD6845EA75
:100450004655EBE701684E5946F480764E511179C6
:10046000D2F805504FF4C67641EA0525016806EB3F
:1004700004168D511178D2F801204FF4C47541EA69
:100480000221026805EB04155151006803EB0411C9
:10049000425842F0010242500020F0BD416A41F44E
:1004A000001141620120F0BD10B590F820300268C3
:1004B000012B07D0022B05D0416A41F48021416213
:1004C000012010BD3E4C3F48A24200D00246D2F867
:1004D000003243F00103C2F8003282420CD1D2F85C
:1004E000000220F47C50C2F80002D2F800024B6AED
:1004F00040EA0320C2F80002087D00F01F0301203B
:100500009840D2F81C328343C2F81C32CB69B3B98D
:10051000D2F80C328343C2F80C328C894B6864F3F6
:100520001F434C6902EBC404C4F840320C890B68C9
:1005300064F31F434C6902EBC404C4F84432CB6932
:10054000012B16D1D2F80C320343C2F80C320C88BE
:100550004B6864F31F434C6902EBC404C4F8403297
:100560000C89CB6864F31F434C6902EBC404C4F8E4
:1005700044328B69002BD2F804320FD053EA0003C7
:10058000C2F804320B69002BD2F8143208D00343AE
:10059000C2F81432096A012904D008E08343EFE766
:1005A0008343F5E7D2F81C120143C2F81C12D2F8BB
:1005B000000220F00100C2F80002002010BD00007F
:1005C000006C004000640040704730B590F8204057
:1005D000012C05D0022C03D0416A41F480215DE05A
:1005E0000468002955D02469A40754D04FF4D87466
:1005F000056804EB01142D5915F004059560056894
:100600002D594ED0ED08556005682C5904F00204B0
:10061000D4604FF4DA74056804EB01142D5905F029
:100620000F05156105682D59C5F307259561056806
:100630002C59240C54614FF4DC72046802EB011253
:10064000A4581C700468A458240A5C700468A45858
:10065000240C9C700468A258120EDA704FF4DE72FB
:10066000046802EB0112A4581C710468A458240AFF
:100670005C710468A458240C9C710468A258120E82
:10068000DA71006881B1016941F020010161002047
:1006900030BDE468A8E7416A41F4001141620120DD
:1006A00030BD6D0D1560AFE7C16841F02001C1603C
:1006B000EDE72DE9F05F0546006800244669D0F8B3
:1006C00004908768D0F80CB0D0F810A0D0F818804B
:1006D000F10748D0F90714D001218160B80703D58C
:1006E000284600F004FA0CE0780702D54FF40064C5
:1006F00007E0380702D54FF4805402E0284600F0A6
:10070000F5F9F80516D529684FF480708860B805AA
:1007100003D5284600F0EDF90CE0780502D544F445
:10072000005407E0380502D544F4804402E028462E
:1007300000F0DEF9F80316D529684FF480308860A0
:10074000B80303D5284600F0D6F90CE0780302D5AB
:1007500044F4004407E0380302D544F4803402E056
:10076000284600F0C7F9300707D55FEACB6004D50B
:100770002968102044F40074C86070074FF008071F
:1007800007D55FEA0B7004D52868C760284600F0DB
:1007900071F9B00706D52868C068800702D02846DE
:1007A00000F06AF9700607D55FEACA6004D52968C7
:1007B000102044F480640861B00607D55FEA0A702F
:1007C00004D528680761284600F060F9F00606D5D0
:1007D00028680069800702D0284600F058F9B00365
:1007E00008D55FEAC96005D5296810204860284609
:1007F00000F04EF9F00307D55FEA097004D52868C8
:100800004760284600F078F9300446D55FEA497021
:1008100040D5F00504D55FEAC87001D044F001046A
:10082000B00504D55FEA887001D544F00204700574
:1008300004D55FEA487001D544F00404300529D599
:1008400018F0700F26D008F07000402815D006DC94
:10085000102809D020280AD0302816D10AE05028C4
:100860000ED0602811D10EE044F008040DE044F0F1
:1008700010040AE044F0200407E044F0400404E0DF
:1008800044F0800401E044F480742868816921F018
:1008900070018161296804204860002C05D0686AD5
:1008A000204368622846FFF78FFEBDE8F09F70B5D1
:1008B000040003D094F8200010B104E0012070BDC2
:1008C000204600F081F82068016821F002010160F3
:1008D00000F006FA0546052604E000F001FA401B88
:1008E0000A2811D8206840688007F6D4206801687B
:1008F00041F00101016000F0F3F905460BE000F062
:10090000EFF9401B0A2806D9606A40F400306062A3
:1009100084F82060D2E720684068C007EFD0207ECE
:100920000128206801683DD021F080010160607ECF
:1009300001282068016838D021F040010160A07EC4
:1009400001282068016833D021F020010160E07E99
:100950000128206801682ED041F010010160207F3D
:1009600001282068016829D021F008010160607F1A
:1009700001282068016824D021F004010160D4E935
:1009800002010843D4E90412114308436168491E77
:1009900008432168C86100206062012084F82000BB
:1009A000002070BD41F08001C0E741F04001C5E783
:1009B00041F02001CAE721F01001CFE741F0080122
:1009C000D4E741F00401D9E710B586B004461421FC
:1009D0006846FFF755FC24492068884241D12348E6
:1009E0000021026842F000720260006800F00070AE
:1009F00005901E481038026842F00102026000684B
:100A000000F0010005904FF4C05000900220CDE9A5
:100A1000010103200390092004906946144800F066
:100A20007FF800220221132000F0C8F9132000F003
:100A3000B7F900220221142000F0C0F9142000F0C0
:100A4000AFF900220221152000F0B8F9152000F0BE
:100A5000A7F900220221162000F0B0F9162000F0BC
:100A60009FF906B010BD000000640040403802400D
:100A70000000024070470000024B034A0021FFF7CC
:100A8000A4BD000012000020C40000207047704781
:100A90007047000070B5044690F82000012804D08B
:100AA000606A40F40020606218E0022084F82000B0
:100AB0002068016821F00101016000F011F905468C
:100AC0000EE000BF00F00CF9401B0A2808D9606A4C
:100AD00040F400306062052084F82000012070BDE1
:100AE00020684068C007EDD1606270BD70477047F4
:100AF00070477047704770477047000070B50446F4
:100B000000F0EEF80546601C02D00448007804446A
:100B100000F0E6F8401BA042FAD370BD2000002090
:100B20002DE9F84F00224FF0010803254FF00F0E7A
:100B30000B6808FA02F42340A3426ED14E68012EDE
:100B400005D0022E03D0112E01D0122E12D18668AC
:100B50004FEA420C05FA0CF7BE43CF6807FA0CF7D0
:100B6000374387604668A6430C79C4F30014944069
:100B700034434460C668570005FA07FC8C6826EACF
:100B80000C06BC403443C4604C68022C01D0122CCB
:100B900013D1D40800EB8404A346D4F82090540762
:100BA0004FEAD46A0EFA0AF629EA06090E6906FA2D
:100BB0000AF646EA0906CBF8206006680C7926EAB0
:100BC0000C0604F00304BC40344304604C68E400A9
:100BD00060D5334C266846F480462660246822F0AF
:100BE000030604F4804400942E4C3444A446D4F804
:100BF00008489607370F0EFA07F6B4432A4EB0425C
:100C000001D100261FE0294EB04201D101261AE091
:100C1000274EB04202D1022615E03BE0254EB042FD
:100C200001D103260FE0244EB04201D104260AE090
:100C3000224EB04201D1052605E0214EB04201D13D
:100C4000062600E00726BE402643CCF808681D4E65
:100C500034684F689C43FF0300D51C433460194E31
:100C6000361D34684F689C43BF0300D51C43346075
:100C7000144E083634684F689C43FF0200D51C436D
:100C80003460104E0C3634684F689C43BF0200D568
:100C90001C433460521C102AFFF44AAFBDE8F88FA1
:100CA000443802400030014000000240000402408D
:100CB00000080240000C02400010024000140240F4
:100CC00000180240003C0140426931EA020200D1B2
:100CD0000904816170470AB1816170470904FBE72B
:100CE00001488068704700002000002002488168A9
:100CF0000278114481607047200000200B4810B535
:100D0000016841F400710160016841F48061016093
:100D1000016841F480710160032000F06FF8002049
:100D200000F006F800F024F8002010BD003C02405E
:100D300070B50D4D04464FF47A712878B1FBF0F090
:100D40000A490968B1FBF0F000F0CAFC48B9102C60
:100D500007D200222146501E00F030F800206C60BF
:100D600070BD012070BD0000200000201C0000208C
:100D70000A4808B5016841F480410160006800F448
:100D8000804000900548001F016841F080510160DB
:100D9000006800F08050009008BD00004438024018
:100DA000002809DB00F01F0201219140400980006A
:100DB00000F1E020C0F8001170470000F0B40E4BC5
:100DC0001B680C46C3F30223C3F10705042D00D9A9
:100DD0000425191D072901D2002300E0DB1E01268E
:100DE00006FA05F1491E214099409E40761E1640A4
:100DF0003143F0BC01F009B90CED00E0064900F008
:100E0000070208684FF6FF03184040EA0220034A31
:100E100010430860704700000CED00E00000FA0588
:100E20002DE9F84F044600780027C34DC00708D0CD
:100E30002868E16920F0C06008432860E06900B9D3
:100E400001272078800708D52868216A20F0C05043
:100E500008432860206A00B90127208881046FF0C8
:100E6000FF0015D52968A26C21F4401111432960B7
:100E7000A16C19B1B1F5001F02D009E0012707E00C
:100E80002968626921F4F85100EB022211432960BC
:100E90002188490415D52968E26C21F440011143E9
:100EA0002960E16C19B1B1F5000F02D009E001270A
:100EB00007E02968626921F4F85100EB0220014340
:100EC000296020784FF00009000755D59A484C3822
:100ED000016841F0805101600068DFF8608200F035
:100EE00080500090D8F8001041F48071C8F80010CC
:100EF000FFF7F6FE064604E0FFF7F2FE801B02282D
:100F00006FD8D8F80000C005F6D58B4E1C3E30686F
:100F100010F440701FD0A18C01F4407181421AD0AE
:100F20003068012220F4407185480260C0F80090CA
:100F300031603068C0070ED0FFF7D2FE804641F224
:100F4000883A05E0FFF7CCFEA0EB0801514548D8F0
:100F500030688007F6D5616A7748C1F3012284388A
:100F6000032A36D0016821F4F81101603068A18CA1
:100F7000C1F30B01084330602078DFF8C8A14007B7
:100F800003D594F85410CAF8E01120786E4EC006CC
:100F900005D53068E16A20F44000084330602078CD
:100FA0004FF00068800609D53068216B20F00060A2
:100FB00008433060206B404500D10127207840066F
:100FC00005D53068A16A20F080500843306067B9C9
:100FD00008E002685D4B22F4F81219400A430260EF
:100FE000C4E773E02068802877D1DFF864B1CBF8DC
:100FF0006890FFF775FE504F81468C3F06E000BFBA
:10100000FFF76EFEA0EB090002285FD838680001E8
:10101000F6D4216DCAF8D81020684E49C20701D015
:10102000E2697AB1820701D5226A5AB1820602D5F5
:10103000226B424506D040060FD5A06A68B9206BE6
:1010400040450AD1D4E9010240EA8210227B237C88
:10105000120642EA0372104308602068820401D538
:10106000A26C1AB1400415D5E06C98B90868D4E9AF
:10107000012342EA8312C0F30360237C000640EAA6
:10108000037002430A602868A26920F01F00521E04
:1010900010432860207800060AD5D4E9010240EA0E
:1010A0008210227B237C120642EA037210430860FE
:1010B0000120CBF86800FFF713FE80460AE000BF6E
:1010C000FFF70EFEA0EB0800022803D90320BDE8BD
:1010D000F88F02E038680001F2D52088C00505D5F8
:1010E0002868616B20F00040084328602088800554
:1010F00005D52868A16B20F40040084328602088AB
:10110000400505D52868E16B20F0004008432860C1
:101110002088000505D52868216C20F4804008430C
:1011200028602088C00405D53068616C20F04040FC
:10113000084330600020CAE78C380240007000404D
:10114000400E47420010474294380240FFFCFF0F18
:1011500000004742843802402DE9F0470E46050062
:1011600065D0DFF81481D8F80000F7B200F00F0066
:10117000B04207D288F80070D8F8000000F00F00E5
:10118000B04254D128683D4C810712D5400703D5A1
:10119000206840F4E05020602878000703D52068DC
:1011A00040F4604020602068A96820F0F000084307
:1011B00020602878C0072DD0304968680839012898
:1011C00012D0022813D0032811D0096889070029FA
:1011D0002DDA216821F0030101432160FFF780FD32
:1011E000814641F2883A0EE009688903EFE7096811
:1011F0008901ECE7FFF774FDA0EB0901514502D925
:101200000320BDE8F0872068696800F00C00B0EBAF
:10121000810FEFD1D8F80010404601F00F01B14224
:1012200007D90770006800F00F00B04201D001201C
:10123000E7E72878400705D52068E96820F4E05002
:10124000084320602878000706D52068296920F423
:10125000604040EAC100206000F018F82168084AA8
:10126000C1F30311515CC840064908600648006894
:10127000FFF75EFD0020C4E7003C02400838024052
:10128000802100081C00002024000020154810B513
:10129000006810F00C02144813D04110042A0FD03B
:1012A000082A0ED10F4C241F2268236802F03F0247
:1012B0005B0207D52068C0F38810A0FB010106E09F
:1012C000084610BD2168C1F38811A1FB000100236D
:1012D000FEF79EFF2168C1F30141491C4900B0FBA4
:1012E000F1F010BD083802400024F4002DE9F84F59
:1012F00005460078DFF800B3C04CC0074AD0DBF8E1
:1013000000105846C1F38101012908D00068C0F3DC
:10131000810002280AD1201D0068400206D52068FD
:10132000800337D56868002872D033E06868B0F56C
:10133000803F10D0B0F5A02F206810D020F480306E
:101340002060206820F4802020606868A8B1FFF742
:10135000C7FC06460DE0206840F48030F4E740F416
:1013600080202060F7E700BFFFF7BAFC801B6428ED
:101370006FD820688003F7D50CE0FFF7B1FC064674
:1013800005E000BFFFF7ACFC801B6428F0D82068A4
:101390008003F7D42878DFF8688280074FF00009CF
:1013A00040D5DBF80010584611F00C0F09D000684A
:1013B000C0F3810002280BD18F48001F0068400253
:1013C00006D42068800715D5E868012820D111E0EF
:1013D000E868B8B10120C8F80000FFF781FC0646B4
:1013E00005E000BFFFF77CFC801B0228C0D8206806
:1013F0008007F7D52068296920F0F80040EAC1008D
:1014000020600FE0C8F80090FFF76AFC064606E08F
:10141000EFE000BFFFF764FC801B022819D82068AA
:101420008007F7D42878000722D5734E754869697C
:101430006C3679B101210160FFF752FC074604E0E8
:10144000FFF74EFCC01B022803D830688007F7D591
:101450000EE089E0C0F80090FFF742FC074604E088
:10146000FFF73EFCC01B02287ED830688007F7D407
:101470002878400768D5DFF880A100270AF1380AEC
:10148000DAF80000C0000BD4DAF8001041F0805107
:10149000CAF80010DAF80000012700F08050009030
:1014A000594E3068C00510D4306840F48070306008
:1014B000FFF716FC009005E0FFF712FC0099401AB8
:1014C000022851D83068C005F6D54B4EA86868365A
:1014D00001280FD00528306810D020F001003060BE
:1014E000306820F004003060A868B8B1FFF7F8FB5E
:1014F00000900FE0306840F00100F4E740F0040095
:101500003060F7E7FFF7ECFB0099411A41F28830B1
:10151000814266D830688007F4D50EE0FFF7E0FB23
:10152000009007E0FFF7DCFB0099411A41F2883098
:10153000814256D830688007F4D42FB1DAF8001011
:1015400021F08051CAF80010A869D0B3DBF8001070
:10155000C1F3810102294CD00228484607D0C8F8BF
:101560006000FFF7BDFB00E03BE005463CE047467E
:10157000C8F86000FFF7B4FB064604E0FFF7B0FBD5
:10158000801B02282DD820688001F7D4F5E90701D7
:101590000843E9681D4A490802EB0141AA6841EA8B
:1015A00082110843297C40EA0160297D40EA0171EB
:1015B0001148001F016001203866FFF791FB0546C6
:1015C00005E014E0FFF78CFB401B022809D82068D7
:1015D0008001F7D50BE000BFFFF782FB401B02281C
:1015E00002D90320BDE8F88F20688001F4D40020E0
:1015F000F8E70120F6E70000083802400038024012
:1016000000004742800E4742007000400000FFFF8C
:101610002DE9F0470446007900278A4601280ED0BC
:101620000125257160794FF00009012809D00420B7
:10163000A060012784F804903846BDE8F0870220B6
:10164000FBE74FF0020884F80580FFF749FB0646E8
:101650000CE000BFFFF744FB801B022806D9657130
:10166000C4F8088084F804900120E6E72068406808
:10167000C043C007EED120688068E060CAF800006F
:101680006571D7E770B5040003D06079002510B10B
:1016900005E0012070BD2571204600F00DF8022004
:1016A00060712068016841F00401016001206071EF
:1016B000A560002070BD000008B50068064988429A
:1016C00008D10648016841F040010160006800F05F
:1016D0004000009008BD0000000806503438024069
:1016E00010B5401EB0F1807F01D3012010BD4FF036
:1016F000E02460610F21601700F087FC0020A061EA
:1017000007202061002010BD7047704770B590F829
:101710003C20012A32D0012480F83C40022280F88B
:101720003D2003685A689D6822F070060A683243BB
:101730005A60134B02689A4214D0B2F1804F11D014
:10174000104B9A420ED0104B9A420BD00F4B9A423C
:1017500008D00F4B9A4205D00E4B9A4202D00E4B46
:101760009A4204D1496825F080031943916080F8BA
:101770003D40002180F83C10084670BD022070BD3D
:10178000000001400004004000080040000C004040
:1017900000040140004001400018004010B5040062
:1017A00003D094F83D0010B107E0012010BD0020E7
:1017B00084F83C00204600F00DF8022084F83D003B
:1017C000211D206800F0BCFB012084F83D000020B2
:1017D00010BD000008B500680B49884212D10B48C3
:1017E000016841F0100101600068002200F0100063
:1017F000009001213620FFF7E1FABDE808403620CD
:10180000FFF7CEBA08BD000000100040403802408B
:101810000168CA6842F00102CA600068816801F08C
:101820000701062903D0016841F001010160002091
:101830007047704770B50446006801694FF00005B5
:10184000C943890715D4C168C943890711D4E91E62
:10185000016101202077206880698007204602D03E
:10186000FFF7E7FF04E000F098F8204600F096F854
:10187000257720680169C943490717D4C168C9435E
:10188000490713D46FF0040101610220207720681A
:10189000806910F4407F204602D0FFF7CAFF04E0C1
:1018A00000F07BF8204600F079F825772068016980
:1018B000C943090716D4C168C943090712D46FF098
:1018C00008010161042020772068C0698007204654
:1018D00002D0FFF7AEFF04E000F05FF8204600F012
:1018E0005DF8257720680169C943C90617D4C16826
:1018F000C943C90613D46FF0100101610820207795
:101900002068C06910F4407F204602D0FFF791FFA5
:1019100004E000F042F8204600F040F82577206807
:101920000169C943C90708D1C168C943C90704D1BE
:10193000891E0161204600F033F820680169C9431F
:10194000090609D4C168C943090605D46FF08001AE
:1019500001612046FFF7D8FE20680169C9434906A6
:1019600009D4C168C943490605D46FF0400101613B
:10197000204600F071F920680169C94389060BD43B
:10198000C168C943890607D46FF020010161204670
:10199000BDE87040FFF7B9BE70BD704770470000EA
:1019A0002DE9FC47044601A9A548FFF731FEA549EA
:1019B000206888427CD1A44C40F24167A01C217869
:1019C000DFF888A27E1EDFF8888207254FF4804961
:1019D000082950D2DFE801F0042E50799AC2E3FDC5
:1019E00098F80A00984B401C88F80A0098E807000D
:1019F0009B1CFEF781FC607828B10198B0FBF5F1E3
:101A000005FB110030B1904808223946801CFEF7D2
:101A1000C1FC03E049465046FFF756F9B8F8040008
:101A2000401CA8F80400B8F80800401CA8F80800FA
:101A300001201FE0864A08F10C080C32117B491C7A
:101A40001173009098E80F00FEF76CFC607828B1E5
:101A50000198B0FBF5F105FB110030B17A4808227E
:101A60003146801CFEF796FC03E049465046FFF7DE
:101A70002BF902202070BBE0754E08F11C081C36C3
:101A8000714BB07A9B1C401CB07298E80700FEF7BF
:101A900033FC607828B10198B0FBF5F105FB11002B
:101AA00038B1694808223946801CFEF773FC04E00F
:101AB000A2E049465046FFF707F9B088401CB080C5
:101AC0003089401C30810320D4E7614A08F128089E
:101AD0002832117B491C1173009098E80F00FEF723
:101AE00021FC607828B10198B0FBF5F105FB1100ED
:101AF00030B1554808223146801CFEF74BFC03E00C
:101B000049465046FFF7E0F80420B3E7504E08F18D
:101B1000380838364C4BB07A9B1C401CB07298E8A1
:101B20000700FEF7E9FB607828B10198B0FBF5F1FA
:101B300005FB110030B1444808223946801CFEF7ED
:101B400029FC03E049465046FFF7BEF8B088401C28
:101B5000B0803089401C308105208BE73C4A08F179
:101B600044084432117B491C1173009098E80F001F
:101B7000FEF7D8FB607828B10198B0FBF5F105FBC2
:101B8000110030B1304808223146801CFEF702FCBB
:101B900003E049465046FFF797F806206AE72C4EC7
:101BA00008F154085436284BB07A9B1C401CB07284
:101BB00098E80700FEF7A0FB607828B10198B0FB19
:101BC000F5F105FB110040B11F4808223946801C81
:101BD00000E013E0FEF7DEFB03E049465046FFF766
:101BE00073F8B088401CB0803089401C308125706B
:101BF00040211848FFF768F8BDE8FC87144A08F14F
:101C000060086032117B491C1173009098E80F0046
:101C1000FEF788FB607828B10198B0FBF5F105FB71
:101C2000110030B1084808223146801CFEF7B2FB93
:101C300003E049465046FFF747F800201AE7000046
:101C4000200100200010004000000020000402409D
:101C50002C000020000802407047FEE72DE9F0410B
:101C60001F4F0024224640213846FFF734F81D4D0F
:101C70004FF40046002231462846FFF72CF84FF477
:101C80008048002241462846FFF725F86420FEF7E9
:101C900035FF012240213846FFF71DF80122314669
:101CA0002846FFF718F8012241462846FFF713F8A7
:101CB0006420FEF723FF002240213846FFF70BF88F
:101CC000002231462846FFF706F800224146284602
:101CD000FFF701F8641CE4B2052CD7D3BDE8F0810E
:101CE00000080240000402400E4810B50C49016093
:101CF0000521416000214FF4E0228160C0E9031218
:101D00004161017641768176C17601774177FEF7B0
:101D1000CEFD002803D0BDE81040FEF74EBB10BD3D
:101D200000640040F8000020F0B587B01421684638
:101D3000FEF7A6FA24480024016841F08001016002
:101D4000016801F080010591016841F00201016024
:101D5000016801F002010591016841F00401016090
:101D6000016801F004010591016841F00101016081
:101D70000068164E00F001004FF440450590012226
:101D800029463046FEF7A7FF114F01224021384671
:101D9000FEF7A1FF0022E9113846FEF79CFF0095EF
:101DA0000125CDE90154694630460394FEF7B8FE9B
:101DB0004FF4E0700090CDE9015469463846039431
:101DC000FEF7AEFE07B0F0BD30380240000402401E
:101DD00000080240074910B5054808600846FFF7AB
:101DE00051FC002803D0BDE81040FEF7E6BA10BD54
:101DF00000080650200100201CB500240F48009464
:101E00000D490194016042F20F71C0E9011440F2E2
:101E1000E7318461C160FFF7C1FC08B1FEF7CDFA7C
:101E20000094694605480194FFF770FC002801D032
:101E3000FEF7C3FA1CBD0000001000403001002076
:101E4000FEE7704770477047FEF750BF30B5A9B046
:101E5000342116A8FEF714FA142123A8FEF710FA6D
:101E600058216846FEF70CFA1B480025016841F02E
:101E700080510160006800F0805028901748016888
:101E800041F4404101600068022400F44040289081
:101E900001201690000417908001CDE91C401EAA75
:101EA0000420642182E81300CDE9210416A8FFF77D
:101EB0001DFA23A90F2081E83100E002CDE92605B3
:101EC000032123A8FFF748F9202000900C956846CD
:101ED000FEF7A6FF29B030BD403802400070004038
:101EE0001048016841F4700101600F48016841F039
:101EF000010101600C4A00210832116002680B4B9D
:101F00001A400260031D0A4A1A60026822F4802205
:101F1000026005480C3001600249580680390860AB
:101F20007047000088ED00E000380240FFFFF6FE39
:101F3000103000240148FFF77DBC00003001002074
:101F4000F0B50268254C264D264E274F274B4FF003
:101F5000804CA04209D0604507D0A84205D0B042CD
:101F600003D0B84201D0984204D122F0700E4A68E2
:101F700042EA0E02A0421BD0604519D0A84217D0F9
:101F8000B04215D0B84213D0984211D0184DA84293
:101F90000ED0184DA8420BD0174DA84208D0174DAF
:101FA000A84205D0164DA84202D0164DA84203D132
:101FB00022F44075CA682A434D6922F080022A4300
:101FC00002608A68C2620A688262A04201D09842B6
:101FD00001D10969016301214161F0BD00000140A7
:101FE0000004004000080040000C004000040140D4
:101FF00000400140004401400048014000180040FA
:10200000001C004000200040FEE70907090E0028E0
:1020100004DB00F1E02080F80014704700F00F00AE
:1020200000F1E02080F8141D704702E008C8121F7C
:1020300008C1002AFAD170477047002001E001C1B1
:10204000121F002AFBD1704708480021012241617C
:10205000C0E90612016041608160C16001610E212A
:10206000C0E9082101465C30FEF71EBA9C00002042
:1020700010B5FFF7E9FF01210748FEF79FF902219C
:102080000548FEF79BF910210348FEF797F9BDE8D4
:1020900010400148FEF7FEBCF800002036493548E4
:1020A0005522086064208880002088710A81324AA5
:1020B00088720C322F491160012111712E4B517120
:1020C00090710C33F122DA711A4678241172FF22D2
:1020D0005A811A46274B107310325B1C1360948090
:1020E00090714625158190720C32F0251360022301
:1020F000137151719071D5711172FA255581107358
:102100001C4E1032B61C5A251660958090711481B1
:1021100090720C32174F1660117153719071EF2647
:10212000D6711172C82656811073FF1C10321760C9
:1021300095809071148190720C32176013715371F5
:102140009071EE23D371117256811073FEF7D6FD94
:10215000FFF77CFEFFF7E8FDFFF7C6FDFFF74CFE3B
:10216000FFF738FEFFF77AFDFFF782FF0348FFF71E
:102170004FFBFEE700A0CCCA2C000020300100205D
:102180000000000000000000010203040607080927
:10219000B0210008000000202C0000002A200008C8
:1021A000DC2100082C000020441500003A20000823
:1021B000000100000000000000000000000000001E
:1021C0000000000000000000000000000024F400F7
:0C21D000010000001000000000000000F2
:04000005080001D915
:00000001FF
