:020000040800F2
:10000000A8150020ED010008AB1A0008A718000889
:10001000A91A00085B0300085D1C0008000000002E
:10002000000000000000000000000000AF1A0008FF
:10003000B103000800000000AD1A0008B11A000862
:10004000070200080702000807020008070200086C
:10005000070200080702000807020008070200085C
:10006000070200080702000807020008070200084C
:10007000070200080702000807020008070200083C
:1000800007020008070200080702000881030008B1
:100090005D030008690300087503000807020008F3
:1000A000070200080702000807020008070200080C
:1000B00007020008070200080702000807020008FC
:1000C00007020008070200080702000807020008EC
:1000D00007020008070200080702000807020008DC
:1000E00007020008070200080702000807020008CC
:1000F00007020008070200080702000807020008BC
:1001000007020008070200080702000807020008AB
:100110000702000807020008891B00080702000800
:10012000070200080702000807020008070200088B
:10013000070200080702000807020008070200087B
:10014000070200080702000807020008070200086B
:10015000070200080702000807020008070200085B
:10016000070200080702000807020008070200084B
:10017000070200080702000800000000000000005D
:10018000070200080702000807020008070200082B
:10019000070200080702000800000000070200082C
:1001A000070200080702000800000000000000002D
:1001B000070200080000000000000000070200081D
:1001C00007020008070200080702000807020008EB
:1001D0000702000807020008DFF80CD000F07AF8E8
:1001E00000480047F11C0008A81500200648804779
:1001F00006480047FEE7FEE7FEE7FEE7FEE7FEE70C
:10020000FEE7FEE7FEE7FEE7351B0008D901000820
:100210002DE9F05F0546002092469B46884606463B
:10022000814640241BE0284641464746224600F0CE
:1002300041F853465A46C01A914110D31146184608
:10024000224600F028F82D1A67EB01084F46224697
:100250000120002100F01FF817EB00094E41201E7D
:10026000A4F10104DFDC484631462A464346BDE896
:10027000F09FD2B201E000F8012B491EFBD270477B
:100280000022F6E710B513460A4604461946FFF762
:10029000F0FF204610BD202A04DB203A00FA02F1CC
:1002A000002070479140C2F1200320FA03F3194364
:1002B00090407047202A04DB203A21FA02F0002106
:1002C000704721FA02F3D040C2F120029140084366
:1002D00019467047064C074D06E0E06840F0010300
:1002E00094E8070098471034AC42F6D3FFF778FF44
:1002F000F01D0008101E000810B51870040A5C708C
:10030000040C9C70000ED870C1F30224080C197103
:1003100044EAC0105871080E9871DA71184610BD81
:1003200010B51870040A5C70040C9C70000ED87034
:10033000C1F30224084664F39F000C0C40EA441009
:10034000187102F00104081664F3DF105871100AE6
:100350009871100CD871184610BDFEE7014800F0E6
:10036000A4B90000E8000020014800F09EB9000098
:10037000E8000020014800F098B90000E8000020E3
:10038000014800F092B90000E800002008B51346CB
:10039000064A11600021D160136191600349024651
:1003A0006B4601F1180000F017F808BDD0000020DE
:1003B0007047704790F82020012A07D0022A05D004
:1003C000416A41F48021416201207047006842691E
:1003D0000A43426100207047F0B590F8205004684D
:1003E000A468012D05D0022D03D0416A41F480217B
:1003F00053E014F0406F01D1E5004BD5C4F3016424
:10040000022C03D9416A41F4000146E00125A540D0
:100410001D608D684FF4C0739DB1CE6835434E6842
:1004200045EAC605066803EB0417F5514FF4C2759B
:10043000076805EB04150E697E51097D012905D079
:1004400009E00E88CD6845EA4655EBE701684E594C
:1004500046F480764E511179D2F805504FF4C676A5
:1004600041EA0525016806EB04168D511178D2F892
:1004700001204FF4C47541EA0221026805EB04151E
:100480005151006803EB0411425842F001024250FE
:100490000020F0BD416A41F4001141620120F0BD2D
:1004A00010B590F820300268012B07D0022B05D040
:1004B000416A41F480214162012010BD3E4C3F4819
:1004C000A24200D00246D2F8003243F00103C2F843
:1004D000003282420CD1D2F8000220F47C50C2F8E3
:1004E0000002D2F800024B6A40EA0320C2F8000280
:1004F000087D00F01F0301209840D2F81C3283438E
:10050000C2F81C32CB69B3B9D2F80C328343C2F8BB
:100510000C328C894B6864F31F434C6902EBC404B2
:10052000C4F840320C890B6864F31F434C6902EB3A
:10053000C404C4F84432CB69012B16D1D2F80C3272
:100540000343C2F80C320C884B6864F31F434C69B8
:1005500002EBC404C4F840320C89CB6864F31F4337
:100560004C6902EBC404C4F844328B69002BD2F806
:1005700004320FD053EA0003C2F804320B69002B97
:10058000D2F8143208D00343C2F81432096A0129A0
:1005900004D008E08343EFE78343F5E7D2F81C1269
:1005A0000143C2F81C12D2F8000220F00100C2F888
:1005B0000002002010BD0000006C004000640040FC
:1005C000704730B590F82040012C05D0022C03D0A4
:1005D000416A41F480215DE00468002955D0246916
:1005E000A40754D04FF4D874056804EB01142D59B6
:1005F00015F00405956005682D594ED0ED0855603D
:1006000005682C59C4F34004D4604FF4DA740568CB
:1006100004EB01142D5905F00F05156105682D59DE
:10062000C5F30725956105682C59240C54614FF4D6
:10063000DC72046802EB0112A4581C700468A45810
:10064000240A5C700468A458240C9C700468A258A6
:10065000120EDA704FF4DE72046802EB0112A45835
:100660001C710468A458240A5C710468A458240C02
:100670009C710468A258120EDA71006881B1016998
:1006800041F020010161002030BDE468A8E7416A23
:1006900041F400114162012030BD6D0D1560AFE7DE
:1006A000C16841F02001C160EDE72DE9F05F05462A
:1006B000006800244669D0F804908768D0F80CB030
:1006C000D0F810A0D0F81880F10748D0F90714D05E
:1006D00001218160B80703D5284600F004FA0CE038
:1006E000780702D54FF4006407E0380702D54FF4CD
:1006F000805402E0284600F0F5F9F80516D529687F
:100700004FF480708860B80503D5284600F0EDF9F5
:100710000CE0780502D544F4005407E0380502D512
:1007200044F4804402E0284600F0DEF9F80316D5D0
:1007300029684FF480308860B80303D5284600F05C
:10074000D6F90CE0780302D544F4004407E03803FE
:1007500002D544F4803402E0284600F0C7F930079F
:1007600007D55FEACB6004D52968102044F40074F3
:10077000C86070074FF0080707D55FEA0B7004D513
:100780002868C760284600F071F9B00706D52868C8
:10079000C068800702D0284600F06AF9700607D5C5
:1007A0005FEACA6004D52968102044F480640861B7
:1007B000B00607D55FEA0A7004D5286807612846A5
:1007C00000F060F9F00606D528680069800702D0BD
:1007D000284600F058F9B00308D55FEAC96005D58E
:1007E000296810204860284600F04EF9F00307D52C
:1007F0005FEA097004D528684760284600F078F958
:10080000300446D55FEA497040D5F00504D55FEA6B
:10081000C87001D044F00104B00504D55FEA8870C7
:1008200001D544F00204700504D55FEA487001D593
:1008300044F00404300529D518F0700F26D008F0D4
:100840007000402815D006DC102809D020280AD0D6
:10085000302816D10AE050280ED0602811D10EE0C1
:1008600044F008040DE044F010040AE044F02004D1
:1008700007E044F0400404E044F0800401E044F464
:1008800080742868816921F07001816129680420E1
:100890004860002C05D0686A204368622846FFF74C
:1008A0008FFEBDE8F09F70B5040003D094F82000DF
:1008B00010B104E0012070BD204600F081F82068EE
:1008C000016821F00201016000F004FA05460526E6
:1008D00004E000F0FFF9401B0A2811D820684068A6
:1008E0008007F6D42068016841F00101016000F042
:1008F000F1F905460BE000F0EDF9401B0A2806D996
:10090000606A40F40030606284F82060D2E72068BA
:100910004068C007EFD0207E0128206801683DD0E4
:1009200021F080010160607E01282068016838D0D4
:1009300021F040010160A07E01282068016833D0C9
:1009400021F020010160E07E0128206801682ED09E
:1009500041F010010160207F01282068016829D042
:1009600021F008010160607F01282068016824D01F
:1009700021F004010160D4E902010843D4E9041222
:10098000114308436168491E08432168C86100207B
:100990006062012084F82000002070BD41F08001D9
:1009A000C0E741F04001C5E741F02001CAE721F06E
:1009B0001001CFE741F00801D4E741F00401D9E785
:1009C00010B586B0044614216846FFF759FC244947
:1009D0002068884241D123480021026842F0007219
:1009E0000260006800F0007005901E481038026830
:1009F00042F001020260006800F0010005904FF42F
:100A0000C05000900220CDE901010320039009208D
:100A100004906946144800F07FF800220221132058
:100A200000F0B4FA132000F0A3FA002202211420EF
:100A300000F0ACFA142000F09BFA002202211520ED
:100A400000F0A4FA152000F093FA002202211620EB
:100A500000F09CFA162000F08BFA06B010BD0000E2
:100A6000006400404038024000000240704700002F
:100A7000024B034A0021FFF7A4BD00001100002033
:100A8000B4000020704770477047000070B50446FE
:100A900090F82000012804D0606A40F400206062D1
:100AA00018E0022084F820002068016821F001018C
:100AB000016000F00FF905460EE000BF00F00AF9F2
:100AC000401B0A2808D9606A40F4003060620520A3
:100AD00084F82000012070BD20684068C007EDD177
:100AE000606270BD704770477047704770477047CD
:100AF0007047000070B5044600F0ECF80546601C35
:100B000002D004480078044400F0E4F8401BA042FE
:100B1000FAD370BD1C0000202DE9F84FDFF874B146
:100B200000224FF001084FF0030A4FF00F090BF1BC
:100B3000040E00BF0B6808FA02F42340A3426ED1F2
:100B40004D68022D01D0122D0ED1D50800EB850C79
:100B5000DCF820505607F70E09FA07F6B5430E6980
:100B6000BE402E43CCF82060066855000F790AFA83
:100B700005FC07F0030726EA0C06AF403743076081
:100B80004E68012E05D0022E03D0112E01D0122E58
:100B90000ED18668CF6826EA0C06AF4037438760DF
:100BA0004668A6430C79C4F300149440344344606F
:100BB000C4688E6824EA0C04AE402643C6604C68C4
:100BC000E40060D5344C256845F4804525602468F0
:100BD00022F0030504F480440094304C2E19D6F81A
:100BE000084895072F0F09FA07F5AC432C4DA8428A
:100BF00001D100251FE02B4DA84201D101251AE0AB
:100C0000294DA84201D1022515E0284DA84201D165
:100C1000032510E0264DA84202D104250BE032E066
:100C2000244DA84201D1052505E0234DA84201D15C
:100C3000062500E00725BD402543C6F80858DBF827
:100C400000405D464E689C43F60300D51C432C6073
:100C5000DEF8004075464E689C43B60300D51C4341
:100C60002C600C4D08352C684E689C43F60200D56C
:100C70001C432C60074D0C352C684E689C43B60213
:100C800000D51C432C60521C102AFFF453AFBDE862
:100C9000F88F0000003C0140443802400030014021
:100CA000000002400004024000080240000C024024
:100CB000001002400014024000180240426931EA6C
:100CC000020200D10904816170470AB18161704755
:100CD0000904FBE701488068704700001C00002001
:100CE00070B504001BD094F83D00002520B984F8AD
:100CF0003C50204600F0AEF8242084F83D002068E7
:100D0000016821F00101016000F00AFA4D4A6168B2
:100D1000914201D84C4900E04C49884201D201205F
:100D200070BD4B492368B0FBF1F15E6826F03F06C9
:100D30000E435E606368934206D94FF4967359433D
:100D40004FF47A73B1FBF3F12368491C1E6A26F055
:100D50003F06314319626168914210D84900401E34
:100D6000B0FBF1F2521CC2F30B02042A01D20420A0
:100D700022E0B0FBF1F0401CC0F30B001CE0A368C4
:100D8000F3B301EBC10202EB0116421EB2FBF6F215
:100D9000521C42F48042120549D093B301EBC102C8
:100DA00002EB0111401EB0FBF1F0401CC0F30B0040
:100DB00040F4804040F400402168CA694CF6FF735B
:100DC0009A431043C861D4E90701084321680A68BF
:100DD00022F0C00210430860D4E9030101432068F7
:100DE000826848F2FF339A4311438160D4E90501D8
:100DF00008432168CA6822F0FF021043C86001E07E
:100E00000EE016E02068016841F0010101602564F0
:100E1000202084F83D00256384F83E50002070BDFA
:100E200001EB4106421EB2FBF6F2521CB3E7012071
:100E3000C2E701EB4101401EB0FBF1F0401CC0F3E2
:100E40000B00B7E7A086010080841E0000093D006A
:100E500040420F0010B586B0044614216846FFF7E3
:100E60000FFA13492068884220D11248016841F0E6
:100E7000020101600068694600F002000590C02090
:100E80000090122001900120029003200390042082
:100E900004900948FFF740FE06481030016841F40D
:100EA00000110160006800F40010059006B010BD4C
:100EB000005400403038024000040240024881687B
:100EC00002781144816070471C0000200B4810B567
:100ED000016841F400710160016841F480610160C2
:100EE000016841F480710160032000F06FF8002078
:100EF00000F006F800F024F8002010BD003C02408D
:100F000070B50D4D04464FF47A712878B1FBF0F0BE
:100F10000A490968B1FBF0F000F0D4FA48B9102C86
:100F200007D200222146501E00F030F800206C60ED
:100F300070BD012070BD00001C00002028000020B2
:100F40000A4808B5016841F480410160006800F476
:100F5000804000900548001F016841F08051016009
:100F6000006800F08050009008BD00004438024046
:100F7000002809DB00F01F02012191404009800098
:100F800000F1E020C0F8001170470000F0B40E4BF3
:100F90001B680C46C3F30223C3F10705042D00D9D7
:100FA0000425191D072901D2002300E0DB1E0126BC
:100FB00006FA05F1491E214099409E40761E1640D2
:100FC0003143F0BC00F04BBE0CED00E0064900F0F0
:100FD000070208684FF6FF03184040EA0220034A60
:100FE00010430860704700000CED00E00000FA05B7
:100FF0002DE9F0470E46050065D0DFF81481D8F8DA
:101000000000F7B200F00F00B04207D288F800707D
:10101000D8F8000000F00F00B04254D128683D4CD1
:10102000810712D5400703D5206840F4E0502060C6
:101030002878000703D5206840F4604020602068CD
:10104000A96820F0F000084320602878C0072DD060
:10105000304968680839012812D0022813D00328C3
:1010600011D00968890700292DDA216821F00301D0
:1010700001432160FFF72EFE814641F2883A0EE0DF
:1010800009688903EFE709688901ECE7FFF722FEA9
:10109000A0EB0901514502D90320BDE8F087206883
:1010A000696800F00C00B0EB810FEFD1D8F80010A8
:1010B000404601F00F01B14207D90770006800F007
:1010C0000F00B04201D00120E7E72878400705D59E
:1010D0002068E96820F4E050084320602878000781
:1010E00006D52068296920F4604040EAC1002060EC
:1010F00000F026F82168084AC1F30311515CC8408A
:10110000064908600020FFF7FBFE0020C5E700004D
:10111000003C024008380240D81D0008280000208A
:101120000448054900680968044AC1F38221515CFA
:10113000C84070472800002008380240E81D000819
:10114000154810B5006810F00C02144813D0411077
:10115000042A0FD0082A0ED10F4C241F22682368BE
:1011600002F03F025B0207D52068C0F38810A0FBA5
:10117000010106E0084610BD2168C1F38811A1FBFA
:1011800000010023FFF744F82168C1F30141491C25
:101190004900B0FBF1F010BD083802400024F40013
:1011A0002DE9F84F05460078DFF800B3C04CC007C2
:1011B0004AD0DBF800105846C1F38101012908D05C
:1011C0000068C0F3810002280AD1201D0068400297
:1011D00006D52068800337D56868002872D033E0D0
:1011E0006868B0F5803F10D0B0F5A02F206810D00F
:1011F00020F480302060206820F48020206068681F
:10120000A8B1FFF767FD06460DE0206840F4803086
:10121000F4E740F480202060F7E700BFFFF75AFDB5
:10122000801B64286FD820688003F7D50CE0FFF797
:1012300051FD064605E000BFFFF74CFD801B64280A
:10124000F0D820688003F7D42878DFF86882800718
:101250004FF0000940D5DBF80010584611F00C0F94
:1012600009D00068C0F3810002280BD18F48001F0D
:101270000068400206D42068800715D5E868012878
:1012800020D111E0E868B8B10120C8F80000FFF7EC
:1012900021FD064605E000BFFFF71CFD801B02286C
:1012A000C0D820688007F7D52068296920F0F800A9
:1012B00040EAC10020600FE0C8F80090FFF70AFD87
:1012C000064606E0EFE000BFFFF704FD801B0228A2
:1012D00019D820688007F7D42878000722D5734EE4
:1012E000754869696C3679B101210160FFF7F2FC3C
:1012F000074604E0FFF7EEFCC01B022803D8306865
:101300008007F7D50EE089E0C0F80090FFF7E2FC17
:10131000074604E0FFF7DEFCC01B02287ED83068D9
:101320008007F7D42878400768D5DFF880A1002728
:101330000AF1380ADAF80000C0000BD4DAF800101D
:1013400041F08051CAF80010DAF80000012700F0DF
:1013500080500090594E3068C00510D4306840F479
:1013600080703060FFF7B6FC009005E0FFF7B2FC3C
:101370000099401A022851D83068C005F6D54B4E66
:10138000A868683601280FD00528306810D020F0F2
:1013900001003060306820F004003060A868B8B107
:1013A000FFF798FC00900FE0306840F00100F4E790
:1013B00040F004003060F7E7FFF78CFC0099411A19
:1013C00041F28830814266D830688007F4D50EE05B
:1013D000FFF780FC009007E0FFF77CFC0099411AC2
:1013E00041F28830814256D830688007F4D42FB15A
:1013F000DAF8001021F08051CAF80010A869D0B3C3
:10140000DBF80010C1F3810102294CD002284846C4
:1014100007D0C8F86000FFF75DFC00E03BE0054640
:101420003CE04746C8F86000FFF754FC064604E07D
:10143000FFF750FC801B02282DD820688001F7D4CC
:10144000F5E907010843E9681D4A490802EB014133
:10145000AA6841EA82110843297C40EA0160297D9B
:1014600040EA01711148001F016001203866FFF752
:1014700031FC054605E014E0FFF72CFC401B022878
:1014800009D820688001F7D50BE000BFFFF722FCE8
:10149000401B022802D90320BDE8F88F2068800194
:1014A000F4D40020F8E70120F6E7000008380240F5
:1014B0000038024000004742800E47420070004062
:1014C0000000FFFF10B5401EB0F1807F01D3012066
:1014D00010BD4FF0E02460610F21601700F0BFFBEA
:1014E0000020A06107202061002010BD70477047D8
:1014F00070B590F83C20012A19D0012400F83C4F27
:101500000222427050F83C3C5A689D6822F07006F6
:101510000A684968324325F0800529435A6050F82B
:101520003C2C9160447000210170084670BD02207F
:1015300070BD10B5040003D094F83D0010B107E071
:10154000012010BD002084F83C00204600F00CF87B
:10155000022084F83D00211D206800F01BFB0120C3
:1015600084F83D00002010BD08B500680B49884292
:1015700012D10B48016841F010010160006800229F
:1015800000F01000009001213620FFF7FFFCBDE8BD
:1015900008403620FFF7ECBC08BD000000100040FA
:1015A000403802400168CA6842F00102CA6000681F
:1015B000816801F00701062903D0016841F00101AB
:1015C000016000207047704770B5044600680169EB
:1015D0004FF00005C943890715D4C168C94389077D
:1015E00011D4E91E016101202077206880698007FD
:1015F000204602D0FFF7E7FF04E000F098F820460D
:1016000000F096F8257720680169C943490717D487
:10161000C168C943490713D46FF004010161022076
:1016200020772068806910F4407F204602D0FFF7C1
:10163000CAFF04E000F07BF8204600F079F8257737
:1016400020680169C943090716D4C168C94309075D
:1016500012D46FF008010161042020772068C0696E
:101660008007204602D0FFF7AEFF04E000F05FF8ED
:10167000204600F05DF8257720680169C943C90656
:1016800017D4C168C943C90613D46FF010010161B2
:10169000082020772068C06910F4407F204602D0DF
:1016A000FFF791FF04E000F042F8204600F040F818
:1016B000257720680169C943C90708D1C168C943B2
:1016C000C90704D1891E0161204600F033F8206863
:1016D0000169C943090609D4C168C943090605D48B
:1016E0006FF0800101612046FFF700FF206801696B
:1016F000C943490609D4C168C943490605D46FF0F6
:1017000040010161204600F0CDF820680169C9431D
:1017100089060BD4C168C943890607D46FF020013C
:1017200001612046BDE87040FFF7E1BE70BD704723
:101730007047000070B50068564988426FD1564C1A
:1017400040F24165554821786E1E082928D2DFE80D
:1017500001F004142D4053677A8D017A4E4B491CD9
:10176000017207C85B1CFEF7C7FD4B4808222946DB
:10177000401CFEF70BFE012011E0484A0C300C32F1
:10178000454B917A5B1C491C917207C8FEF7C8FD56
:10179000414808223146401CFEF7F8FD0220207027
:1017A000BDE8704040213E48FFF788BA3B4A1830F8
:1017B0001832394B117A5B1C491C117207C8FEF7AD
:1017C0009BFD354808222946401CFEF7DFFD03201B
:1017D000E5E7324A243024322F4B917A5B1C491CB6
:1017E000917207C8FEF79CFD2B4808223146401C29
:1017F000FEF7CCFD0420D2E7284A30303032264BA9
:10180000117A5B1C491C117207C8FEF775FD22484E
:1018100008222946401CFEF7B9FD0520BFE738E045
:101820001E4A3C303C321C4B917A5B1C491C917225
:1018300007C8FEF775FD184808223146401CFEF720
:10184000A5FD0620ABE7154A48304832124B117A05
:101850005B1C491C117207C8FEF74EFD0E4808229A
:101860002946401CFEF792FD072098E70B4A5430AA
:101870005432094B917A5B1C491C917207C8FEF7E0
:101880004FFD054808223146401CFEF77FFD002031
:1018900085E770BD00100040000000202C000020F3
:1018A000000802407047FEE72DE9F0411F4F002479
:1018B000224640213846FFF708FA1D4D4FF40046F6
:1018C000002231462846FFF700FA4FF480480022F4
:1018D00041462846FFF7F9F96420FFF70BF901228A
:1018E00040213846FFF7F1F9012231462846FFF73B
:1018F000ECF9012241462846FFF7E7F96420FFF79B
:10190000F9F8002240213846FFF7DFF9002231467E
:101910002846FFF7DAF9002241462846FFF7D5F9B5
:10192000641CE4B2052CD7D3BDE8F0810008024066
:10193000000402400E4810B50C49016005214160C9
:1019400000214FF4E0228160C0E903124161017679
:1019500041768176C17601774177FEF7A4FF0028B2
:1019600003D0BDE81040FEF724BD10BD0064004068
:10197000E8000020F0B587B014216846FEF780FC2F
:1019800024480024016841F080010160016801F0F1
:1019900080010591016841F002010160016801F0D8
:1019A00002010591016841F004010160016801F044
:1019B00004010591016841F0010101600068164EC3
:1019C00000F001004FF440450590012229463046C1
:1019D000FFF77BF9114F012240213846FFF775F9D7
:1019E0000022E9113846FFF770F900950125CDE98D
:1019F0000154694630460394FFF78EF84FF4E070C7
:101A00000090CDE90154694638460394FFF784F805
:101A100007B0F0BD30380240000402400008024028
:101A20000D4810B50B4901600C49416000214FF48D
:101A300080428160C0E9031241618161C16101623C
:101A4000FFF74EF9002803D0BDE81040FEF7B1BC07
:101A500010BD00000054004010010020801A060054
:101A60001CB500240F4800940D490194016042F216
:101A70000F71C0E9011440F2E7318461C160FFF7E2
:101A800058FD08B1FEF795FC00946946054801949D
:101A9000FFF72EFD002801D0FEF78BFC1CBD0000D7
:101AA0000010004064010020FEE770477047704757
:101AB000FFF704BA30B593B034216846FEF7E0FB77
:101AC00014210DA8FEF7DCFB18480025016841F041
:101AD00080510160006800F0805012901448016845
:101AE00041F4404101600068022400F4404012903B
:101AF00001200090000401908001CDE906400420FF
:101B000008906420CDE909040B9468460C94FFF713
:101B100047FB0DA90F2081E83100E002CDE9100557
:101B200003210DA8FFF764FA13B030BD403802401E
:101B3000007000401048016841F4700101600F48D6
:101B4000016841F0010101600C4A00210832116076
:101B500002680B4B1A400260031D0A4A1A600268B1
:101B600022F48022026005480C30016002495806C8
:101B7000803908607047000088ED00E000380240BE
:101B8000FFFFF6FE103000240148FFF71DBD0000E6
:101B900064010020F0B50268254C264D264E274FE3
:101BA000274B4FF0804CA04209D0604507D0A84297
:101BB00005D0B04203D0B84201D0984204D122F0FF
:101BC000700E4A6842EA0E02A0421BD0604519D04E
:101BD000A84217D0B04215D0B84213D0984211D0C5
:101BE000184DA8420ED0184DA8420BD0174DA84250
:101BF00008D0174DA84205D0164DA84202D0164D68
:101C0000A84203D122F44075CA682A434D6922F0E4
:101C100080022A4302608A68C2620A688262A04225
:101C200001D0984201D10969016301214161F0BDF0
:101C3000000001400004004000080040000C00408B
:101C400000040140004001400044014000480140C0
:101C500000180040001C004000200040FEE709077B
:101C6000090E002804DB00F1E02080F80014704722
:101C700000F00F0000F1E02080F8141D704702E032
:101C800008C8121F08C1002AFAD170477047002007
:101C900001E001C1121F002AFBD170470848002152
:101CA00001224161C0E90612016041608160C160AA
:101CB00001610E21C0E9082101465C30FEF7F0BB4E
:101CC0008C00002010B5FFF7E9FF01210748FEF75F
:101CD00071FB02210548FEF76DFB10210348FEF75A
:101CE00069FBBDE810400148FEF7D0BEE8000020C7
:101CF0003749364855220860642088800020887162
:101D0000CA71334A08720C323049116001211171D5
:101D1000517190710F232E4CD37111720C34FF222C
:101D200062722246294C90720C32641C1460782531
:101D3000958090714624D4711072244C0C32641C2E
:101D400014600224147151719071D3711172FA26CA
:101D5000567290721D4F0C32BF1C5A261760968027
:101D60009071D57110720C32DFF860C0176011717C
:101D700054719071D3711172C827577290720C32DE
:101D80000CF1030CC2F800C096809071D5711072EE
:101D90000C32C2F800C0147154719071D371117279
:101DA00057729072FFF792F8FFF784FEFFF7E2FD9B
:101DB000FFF736FEFFF7BEFDFFF752FEFFF774FD9B
:101DC000FFF780FF0348FFF7EDFBFEE700A0CCCA5A
:101DD0002C00002064010020000000000000000032
:101DE00001020304060708090000000001020304C1
:101DF000101E0008000000202C0000007E1C0008BF
:101E00003C1E00082C0000207C1500008E1C0008E1
:101E100000000000000000000000000000000000C2
:101E200000000000000000000000000001000000B1
:0C1E300010000000000000000024F4007E
:04000005080001D915
:00000001FF
