:020000040800F2
:1000000028160020ED0100082B26000875210008A5
:10001000292600084D0E00080927000800000000EE
:100020000000000000000000000000002F26000873
:100030005D0E0008000000002D2600083126000893
:10004000070200080702000807020008070200086C
:10005000070200080702000807020008070200085C
:10006000070200080702000807020008070200084C
:10007000070200080702000807020008070200083C
:10008000070200080702000807020008070200082C
:10009000510E0008070200080702000807020008C6
:1000A000070200080702000807020008070200080C
:1000B00007020008070200080702000807020008FC
:1000C00007020008070200080702000807020008EC
:1000D00007020008070200080702000807020008DC
:1000E00007020008070200080702000807020008CC
:1000F00007020008070200080702000807020008BC
:1001000007020008070200080702000807020008AB
:10011000070200080702000807020008070200089B
:10012000070200080702000807020008070200088B
:10013000070200080702000807020008070200087B
:10014000070200080702000807020008070200086B
:10015000070200080702000807020008070200085B
:10016000070200080702000807020008070200084B
:10017000070200080702000800000000000000005D
:10018000070200080702000807020008070200082B
:10019000070200080702000800000000070200082C
:1001A000070200080702000800000000000000002D
:1001B000070200080000000000000000070200081D
:1001C00007020008070200080702000807020008EB
:1001D0000702000807020008DFF80CD000F018FB47
:1001E00000480047DD3D00082816002006488047EB
:1001F00006480047FEE7FEE7FEE7FEE7FEE7FEE70C
:10020000FEE7FEE7FEE7FEE7B5260008D901000895
:100210002DE9F05F0546002092469B46884606463B
:10022000814640241BE0284641464746224600F0CE
:1002300005F953465A46C01A914110D31146184643
:10024000224600F0ECF82D1A67EB01084F462246D3
:100250000120002100F0E3F817EB00094E41201EB9
:10026000A4F10104DFDC484631462A464346BDE896
:10027000F09F40EA01039B0703D009E008C9121F61
:1002800008C0042AFAD203E011F8013B00F8013B50
:10029000521EF9D27047D2B201E000F8012B491E7C
:1002A000FBD270470022F6E710B513460A46044613
:1002B0001946FFF7F0FF204610BD2DE9FE4F81EAF9
:1002C000030404F0004421F0004100944FF0000BBF
:1002D00023F0004350EA01045ED052EA03045BD0ED
:1002E000C3F30A54C1F30A552C44A4F2F334019425
:1002F000A0FB0254C1F3130141F48011C3F31303B3
:1003000043F4801301FB024400FB034E840A970A66
:1003100044EA815447EA8357A4FB076802958D0A93
:1003200005FB07854FEA932C04FB0C542705029D1F
:100330004FEA065847EA1637B5EB08056EEB070C8F
:10034000870E920E47EA811742EA8312A7FB020149
:10035000B6EB0B0164EB00042B0D43EA0C335E1883
:1003600044EB1C50DA465146E7FB0201C5F3130487
:100370004FEA0B3343EA14534FEA0432019C43EA39
:100380000603A4F10C040294009CCDE900B400F033
:10039000ABF803B0BDE8F08F00200146F9E70EB5D9
:1003A000C10F80EAE0700844CA07002140F23343DD
:1003B0008DE80E000A460B4600F096F803B000BD2B
:1003C00000F0004230F000400AD0C10D01F560712C
:1003D000C0F3160042EA0151C208400711437047BA
:1003E00000200146704701F0004330B421F0004185
:1003F00050EA010206D00A0DA2F56072C1F31301A2
:10040000002A02DC30BC00207047440F44EAC104DB
:10041000C100E01830BC00EBC25000F01FB8202A29
:1004200004DB203A00FA02F1002070479140C2F14B
:10043000200320FA03F3194390407047202A04DB7D
:10044000203A21FA02F00021704721FA02F3D0404D
:10045000C2F1200291400843194670470029A8BF05
:100460007047401C490008BF20F00100704710B4DD
:10047000B0FA80FC00FA0CF050EA010404BF10BC92
:10048000704749B1CCF1200421FA04F411FA0CF1BF
:1004900018BF012121430843A3EB0C01CB1D4FEAF8
:1004A00000614FEA102042BF002010BC704700EBF3
:1004B000C35010440029A4BF10BC7047401C490021
:1004C00008BF20F0010010BC704710B5141E73F176
:1004D000000408DA401C41F1000192185B411A4304
:1004E00001D120F0010010BD2DE9F04D92469B4650
:1004F00011B1B1FA81F202E0B0FA80F220329046F6
:10050000FFF78DFF04460F4640EA0A0041EA0B015F
:1005100053465A46084313D0114653EA010019D0F6
:10052000C8F140025046FFF789FF05460E46504687
:1005300059464246FFF773FF084305D0012004E007
:1005400020463946BDE8F08D0020054346EAE076B6
:100550002C4337430A986305E40AA0EB0800002205
:10056000FD0A44EA47540A3002D500200146E9E773
:10057000010510196941DDE9084500196941BDE827
:10058000F04DA2E72DE9FE4F804681EA0300C00F3F
:100590000C46009021F0004123F00045B8EB02002A
:1005A000A94105D24046214690461C460B460246CC
:1005B00023F00040104347D0270DC7F30A00C3F3D0
:1005C0000A510290401A019040286BDAC3F31300DD
:1005D00040F4801B0098924620B10023D2EB030A1E
:1005E00063EB0B0B01985946C0F140025046FFF7F0
:1005F00016FF06460D4650465946019A00F01AF974
:1006000010EB08006141002487EA115284EAE77385
:100610001A4340D0009A62B3019A012A4FEA075266
:1006200015DC001B61EB02014FF0004202EA0752A9
:10063000CDE90042001C41F5801132462B46FFF700
:1006400053FF03B0BDE8F08F40462146F9E7001B99
:1006500061EB0201001C41F5801300185B4120187A
:10066000A2F5001747EB030140EAD570B6196D41BA
:1006700011E06D084FEA360645EAC0754FEA0752A9
:10068000001B61EB0201001C41F5801149084FEA93
:1006900030000019514132462B4603B0BDE8F04FFF
:1006A000FFF713BF0098012240000023D0EB0202A5
:1006B00063EBE073009821464FEAE074B8EB00006A
:1006C00061EB0401E9E783F000435BE781F000415F
:1006D00058E72DE9F04D81EA030404F0004B21F0C6
:1006E000004514464FF0000A23F0004150EA05028D
:1006F00020D054EA01021DD0C5F30A570246C5F3C3
:100700001303C1F31300C1F30A5640F4801543F4F8
:100710008013A7EB0608101BD64608F2FD3873EBD2
:10072000050002D308F1010801E092185B41B8F11D
:10073000000F03DA00200146BDE8F08D00204FF4E1
:100740008011064684460EE0171B73EB050705D3A0
:10075000121B63EB050306434CEA010C49084FEA00
:10076000300092185B4150EA0107EDD152EA0300D4
:1007700012D082EA040083EA0501084305D0101B69
:10078000AB4106D20122002306E000224FF00043D5
:1007900002E06FF0010253101AEB06004CEB085117
:1007A00010EB0A0041EB0B01BDE8F04DFFF78DBEE9
:1007B00070B521F0004303430CD0C1F30A55002467
:1007C000D5EB040564EB0403D617AD1AB34102DB85
:1007D0000020014670BD201841EB025170BD0000A1
:1007E00030B5041E71F1000404DB4FF000444042B8
:1007F00064EB0101141E73F1000405DB1C464FF08D
:100800000043524263EB0403994208BF904230BD5B
:10081000064C074D06E0E06840F0010394E807004D
:1008200098471034AC42F6D3FFF7DAFC9043000847
:10083000B0430008202A06DBCB17203A41FA02F029
:1008400043EAE07306E041FA02F3D040C2F120022D
:1008500091400843194670472DE9F04D00231A4690
:100860001B1A8A4103DB00200146BDE8F08DC1F36D
:100870000A52C1F3130141F480154FF0000BD10768
:1008800002D100186D41521E0027044640F2FF11AC
:10089000384601EB620A3E468046024600204FF48D
:1008A0008011FFF7CBFDC2197141BB1846EB010067
:1008B000B4EB030C75EB000C04D3E41A65EB0005F4
:1008C00017460E46241908F101006D418046342870
:1008D000E3DDF91946EB0600091BA84103D24FF0EE
:1008E000FF32134601E0002213461BEB070046EBE4
:1008F0000A51BDE8F04DFFF7E8BDF0B5C1B046AC18
:1009000094E8E000002400918DF804200293ADF8F3
:100910000C500496ADF8147023466A461119641CF5
:1009200081F87A30062CF9DB00215418491C84F830
:10093000EC300A29F9DB8DF880304FF48272694679
:10094000FFF797FC41B0F0BD38B504464FF47A701C
:1009500000902179042304F11602206800F038FF8A
:10096000E08A20F4004038BD00230A46012100F04F
:1009700099B900230A46022100F094B900230A46DF
:10098000042100F08FB900230A46032100F08AB940
:1009900010B50446FFF7D8FF011E04D0204600F032
:1009A00070F92046F6E710BD30B50C462DED048BEE
:1009B000054685B0B1F923000E21213403F0A8FAD1
:1009C000B0EE409AB4F904000E2103F0A1FAF0EE63
:1009D000408AB4F906000E2103F09AFAB0EE408A7C
:1009E000B4F908000E2103F093FAF0EE481AB0EEC5
:1009F000681AF0EE490A03F0B3FA8DEC030A0C21F1
:100A0000207800F003008DF80C0014F8010C8DF82C
:100A10000D00B4F90A0003F07BFA03F0A9FB8DED99
:100A2000040A142269462846FFF723FC05B0BDECF2
:100A3000048B30BD70B506462DED028B0C4691F847
:100A40002000082160F30F2514F8210F00F00300A7
:100A500060F30705608800B203F05AFAA088B0EE90
:100A6000408A082100B203F053FAF0EE400AE08811
:100A7000F0EE608A082100B203F04AFAB0EE401AA4
:100A800086ED021A86EC028AF560BDEC028B70BD21
:100A900070B506462DED028B0C4691F82000092119
:100AA00060F30F2514F8210F00F0030060F3070531
:100AB000608800B203F02CFAA088B0EE408A0921C9
:100AC00000B203F025FAF0EE400AE088F0EE608A0A
:100AD000092100B203F01CFAB0EE401A86ED021AAA
:100AE00086EC028AF560BDEC028B70BD70B50646DF
:100AF0002DED028B0C4691F82000082160F30F25A4
:100B000014F8210F00F0030060F30705608800B2BD
:100B100003F0FEF9A088B0EE408A082100B203F08D
:100B2000F7F9F0EE400AE088F0EE608A082100B2A2
:100B300003F0EEF9B0EE401A86ED021A86EC028A56
:100B4000F560BDEC028B70BD70B506462DED028BD5
:100B50000C4691F82000042160F30F2514F8210FB2
:100B600000F0030060F30705608800B203F0D0F9DD
:100B7000A088B0EE408A042100B203F0C9F9F0EE7B
:100B8000400AE088F0EE608A042100B203F0C0F968
:100B9000B0EE401A86ED021A86EC028AF560BDECD2
:100BA000028B70BD30B50C462DED048B054685B02B
:100BB000B1F923000E21213403F0AAF9B0EE409AD6
:100BC000B4F904000E2103F0A3F9F0EE408AB4F961
:100BD00006000E2103F09CF9B0EE408AB4F908003B
:100BE0000E2103F095F9F0EE481AB0EE681AF0EE17
:100BF000490A03F0B5F98DEC030A142220789FED21
:100C0000090A00F003008DF80C0000208DF80D009B
:100C10008DED040A69462846FFF72BFB05B0BDECB5
:100C2000048B30BD0000000070B5044681898068E7
:100C3000012200F05CFCA18A0122206900F057FC2F
:100C4000FA2000F069FBA1890022A06800F04FFCA7
:100C50004FF4FA75284600F05FFBA1890122A068D5
:100C600000F045FC284600F057FB2046BDE87040E8
:100C700000F067B8017900684FF47A730A2200F037
:100C8000FBBC38B5322900D932214FF47A72009278
:100C9000057904680B4600F116022946204600F04B
:100CA00097FD38BDF8B504464FF47A7042431520DD
:100CB00004F8480F0D46002060700221A17094F8DE
:100CC0003410E170491C84F83410FD2121716571E4
:100CD000A071E07120726272110AA172110CE172AE
:100CE000110E21736073A073E07320746374180A8B
:100CF000A074180CE074180E20754FF47A700090F0
:100D000014F8441C54F8480D152304F1480200F06F
:100D10004FFE012704F1EC0625440CE02046FFF7C6
:100D200013FE011EFAD02046FFF7ABFFA07EFC2881
:100D300001D1E07E875595F8EC000028EED0012027
:100D4000F8BD38B50446002001462218401CC0B248
:100D500082F8EC100A28F8D3052084F8480084F8BB
:100D60004910012184F84A1094F87B0084F84B0064
:100D7000401C84F87B0084F84C106420009021799A
:100D8000052304F14802206800F012FE322000F032
:100D9000C3FA2046FFF7FCFD322000F0BDFA2046E2
:100DA000BDE83840FFF7F4BD10B586B04FEA000447
:100DB000FFF7CAFD011E2046FAD0FFF762FF207E32
:100DC00003281DD1A07EFB281AD1E07F092817D265
:100DD000DFE800F016050D342C1816162100214608
:100DE0006846FFF727FE9DE80F00843406E02146A1
:100DF0006846FFF74DFE9DE80F00A43484E80F001D
:100E000006B010BD21466846FFF7CEFD14226946A4
:100E100004F1C40007E021466846FFF7C3FE142230
:100E2000694604F1D800FFF724FAE9E7214668464D
:100E3000FFF75CFE9DE80F009434DFE7214668462B
:100E4000FFF782FE9DE80F00B434D7E7FEE700000D
:100E5000014800F07AB80000A801002070477047F0
:100E6000704730B590F82040012C05D0022C03D0FB
:100E7000416A41F480215DE00468002955D024696D
:100E8000A40754D04FF4D874056804EB01142D590D
:100E900015F00405956005682D594ED0ED08556094
:100EA00005682C59C4F34004D4604FF4DA74056823
:100EB00004EB01142D5905F00F05156105682D5936
:100EC000C5F30725956105682C59240C54614FF42E
:100ED000DC72046802EB0112A4581C700468A45868
:100EE000240A5C700468A458240C9C700468A258FE
:100EF000120EDA704FF4DE72046802EB0112A4588D
:100F00001C710468A458240A5C710468A458240C59
:100F10009C710468A258120EDA71006881B10169EF
:100F200041F020010161002030BDE468A8E7416A7A
:100F300041F400114162012030BD6D0D1560AFE735
:100F4000C16841F02001C160EDE72DE9F05F054681
:100F5000006800244669D0F804908768D0F80CB087
:100F6000D0F810A0D0F81880F10748D0F90714D0B5
:100F700001218160B80703D5284600F0C7F90CE0CD
:100F8000780702D54FF4006407E0380702D54FF424
:100F9000805402E0284600F0B8F9F80516D5296813
:100FA0004FF480708860B80503D5284600F0B0F98A
:100FB0000CE0780502D544F4005407E0380502D56A
:100FC00044F4804402E0284600F0A1F9F80316D565
:100FD00029684FF480308860B80303D5284600F0B4
:100FE00099F90CE0780302D544F4004407E0380393
:100FF00002D544F4803402E0284600F08AF9300734
:1010000007D55FEACB6004D52968102044F400744A
:10101000C86070074FF0080707D55FEA0B7004D56A
:101020002868C760284600F059F9B00706D5286837
:10103000C068800702D0284600F052F9700607D534
:101040005FEACA6004D52968102044F4806408610E
:10105000B00607D55FEA0A7004D5286807612846FC
:1010600000F050F9F00606D528680069800702D024
:10107000284600F048F9B00308D55FEAC96005D5F5
:10108000296810204860284600F03EF9F00307D593
:101090005FEA097004D528684760284600F03BF9EC
:1010A000300446D55FEA497040D5F00504D55FEAC3
:1010B000C87001D044F00104B00504D55FEA88701F
:1010C00001D544F00204700504D55FEA487001D5EB
:1010D00044F00404300529D518F0700F26D008F02C
:1010E0007000402815D006DC102809D020280AD02E
:1010F000302816D10AE050280ED0602811D10EE019
:1011000044F008040DE044F010040AE044F0200428
:1011100007E044F0400404E044F0800401E044F4BB
:1011200080742868816921F0700181612968042038
:101130004860002C05D0686A204368622846FFF7A3
:101140008FFEBDE8F09F70B5040003D094F8200036
:1011500010B104E0012070BD204600F081F8206845
:10116000016821F00201016000F0C6F9054605267C
:1011700004E000F0C1F9401B0A2811D8206840683B
:101180008007F6D42068016841F00101016000F099
:10119000B3F905460BE000F0AFF9401B0A2806D969
:1011A000606A40F40030606284F82060D2E7206812
:1011B0004068C007EFD0207E0128206801683DD03C
:1011C00021F080010160607E01282068016838D02C
:1011D00021F040010160A07E01282068016833D021
:1011E00021F020010160E07E0128206801682ED0F6
:1011F00041F010010160207F01282068016829D09A
:1012000021F008010160607F01282068016824D076
:1012100021F004010160D4E902010843D4E9041279
:10122000114308436168491E08432168C8610020D2
:101230006062012084F82000002070BD41F0800130
:10124000C0E741F04001C5E741F02001CAE721F0C5
:101250001001CFE741F00801D4E741F00401D9E7DC
:1012600010B586B0044614216846FFF71BF81849EC
:101270002068884229D117480021026842F0007294
:101280000260006800F00070059012481038026893
:1012900042F001020260006800F0010005904FF486
:1012A000C05000900220CDE90101032003900920E5
:1012B00004906946084800F041F8002211461420C5
:1012C00000F0A8FC142000F097FC06B010BD000050
:1012D00000640040403802400000024070470000B7
:1012E00010B5054B054A0021FFF7BBFDBDE81040D6
:1012F0004021034800F0F4B81400002074010020DD
:101300000008024070477047704770477047704749
:10131000704770477047704770B5044600F0ECF8AE
:101320000546601C02D004480078044400F0E4F84C
:10133000401BA042FAD370BD1C0000202DE9F84FDD
:10134000DFF874B100224FF001084FF0030A4FF0AC
:101350000F090BF1040E00BF0B6808FA02F42340DA
:10136000A3426ED14D68022D01D0122D0ED1D508A9
:1013700000EB850CDCF820505607F70E09FA07F64B
:10138000B5430E69BE402E43CCF820600668550078
:101390000F790AFA05FC07F0030726EA0C06AF40AE
:1013A000374307604E68012E05D0022E03D0112E60
:1013B00001D0122E0ED18668CF6826EA0C06AF4007
:1013C000374387604668A6430C79C4F30014944001
:1013D00034434460C4688E6824EA0C04AE4026435B
:1013E000C6604C68E40060D5344C256845F48045FF
:1013F0002560246822F0030504F480440094304CF6
:101400002E19D6F8084895072F0F09FA07F5AC43AF
:101410002C4DA84201D100251FE02B4DA84201D13F
:1014200001251AE0294DA84201D1022515E0284DD9
:10143000A84201D1032510E0264DA84202D104257F
:101440000BE032E0244DA84201D1052505E0234DF3
:10145000A84201D1062500E00725BD402543C6F876
:101460000858DBF800405D464E689C43F60300D503
:101470001C432C60DEF8004075464E689C43B60362
:1014800000D51C432C600C4D08352C684E689C43DD
:10149000F60200D51C432C60074D0C352C684E68B5
:1014A0009C43B60200D51C432C60521C102AFFF44A
:1014B00053AFBDE8F88F0000003C014044380240C3
:1014C00000300140000002400004024000080240D9
:1014D000000C0240001002400014024000180240BC
:1014E000426931EA020200D10904816170470AB100
:1014F000816170470904FBE701488068704700007C
:101500001C00002070B504001BD094F83D0000259D
:1015100020B984F83C50204600F0E0FA242084F8FA
:101520003D002068016821F00101016000F03CFCF1
:101530004D4A6168914201D84C4900E04C498842CB
:1015400001D2012070BD4B492368B0FBF1F15E6808
:1015500026F03F060E435E606368934206D94FF45F
:10156000967359434FF47A73B1FBF3F12368491C26
:101570001E6A26F03F06314319626168914210D815
:101580004900401EB0FBF1F2521CC2F30B02042AC8
:1015900001D2042022E0B0FBF1F0401CC0F30B00AC
:1015A0001CE0A368F3B301EBC10202EB0116421E7B
:1015B000B2FBF6F2521C42F48042120549D093B3BA
:1015C00001EBC10202EB0111401EB0FBF1F0401C27
:1015D000C0F30B0040F4804040F400402168CA6929
:1015E0004CF6FF739A431043C861D4E907010843DE
:1015F00021680A6822F0C00210430860D4E90301A0
:1016000001432068826848F2FF339A4311438160A6
:10161000D4E9050108432168CA6822F0FF0210439B
:10162000C86001E00EE016E02068016841F00101A9
:1016300001602564202084F83D00256384F83E5035
:10164000002070BD01EB4106421EB2FBF6F2521CB7
:10165000B3E70120C2E701EB4101401EB0FBF1F00E
:10166000401CC0F30B00B7E7A086010080841E0079
:1016700000093D0040420F002DE9FF4F81B089462F
:101680000446FFF739FF054694F83D004FF0010886
:1016900020287AD1192301224B492046009500F0D9
:1016A00055FE002871D194F83C0001286DD001202E
:1016B00084F83C0020680168C90703D1016841F043
:1016C000010101602068016821F4006101602420AB
:1016D00084F83D00002626643C48E0624FF0011B80
:1016E00020272068016841F4807101600095002284
:1016F00059462046049B00F029FE002856D1216857
:1017000009F0FE000861FFF7F7FE21680546486909
:101710004969C0F34000C1F380214FF0A00A0FE0F7
:10172000FFF7EAFE411B0498814200D808B984F80B
:101730003DA0216848694969C0F34000C1F3802198
:1017400094F83D20A02A02D008B90029E8D084F8F6
:101750003D7020684169C943890717D4016841F485
:1017600000710160206841698069192301221649CE
:101770002046009500F0EAFDC0B984F83D7084F879
:101780003C60002005B0BDE8F08F1BE0016841F42B
:101790000071016021686FF48060486119230122A3
:1017A00009492046009500F0D1FD08B10120E9E784
:1017B000039808F10108804593D384F83D7084F8BC
:1017C0003C60F3E70220DDE7020010000000FFFFAD
:1017D0002DE9F84F1F4690468A460446DDF82890CA
:1017E000FFF78AFE054694F83D00202875D119239D
:1017F00001226C492046009500F0A8FD0028F5D193
:1018000094F83C00012868D0012084F83C0020684E
:101810000168C90703D1016841F001010160206836
:10182000016821F400610160222084F83D0010204D
:1018300084F83E0000262664C4F824806785608D05
:1018400020855948E0622B464A465146204600F022
:10185000A9FC002878D1208D544F68B1012814D0FC
:1018600002282068016816D041F480610160206878
:1018700041698069009087E0206841698169009131
:10188000016841F4007101607EE02068016821F484
:1018900080610160F0E721F48061016020680168E7
:1018A00041F40061E2E7032848D801280AD0022861
:1018B00014D04B46002239462046009500F046FDE4
:1018C000D8BB27E02A464946204600F0BEFDA0BB13
:1018D00020680069616A08704DE061E04B460022B3
:1018E00039462046009500F031FD30BB2068016884
:1018F00041F40071016020680069616A0870606AE3
:10190000401C6062218D491E2185618D491E6185C3
:1019100021682EE02068016821F480610160206860
:101920000069616A0870606A401C6062208D401E18
:101930002085608D401E6085D0E705E02A46494637
:10194000204600F082FD10B10120BDE8F88F20682C
:101950000069616A0870606A401C6062218D491EDE
:101960002185618D491E618521684A69D2435207EC
:101970000AD409690170606A401C6062208D401EB3
:101980002085608D401E6085208D00288BD1202011
:1019900084F83D0084F83E6084F83C600020D4E781
:1019A0000220D2E7020010000000FFFF0400010047
:1019B0002DE9F84F1F4690468A460446DDF82890E8
:1019C000FFF79AFD054694F83D0020287FD11923A2
:1019D000012240492046009500F0B8FC002876D14D
:1019E00094F83C00012872D0012084F83C00206863
:1019F0000168C90703D1016841F001010160206855
:101A0000016821F400610160212084F83D0010206C
:101A100084F83E0000262664C4F824806785608D23
:101A200020852D48E0622B464A465146204600F06C
:101A300023FC90B9206841698069009036E02A460D
:101A40004946204600F034FD50B1206C042804D1F2
:101A50002068016841F4007101600120BDE8F88F41
:101A6000606A216800780861606A401C6062618D6C
:101A7000491E6185218D491E89B2218522685369DD
:101A8000DB435B070BD451B100781061606A401CE6
:101A90006062608D401E6085208D401E20852A4634
:101AA0004946204600F02CFC0028CED1208D00288D
:101AB000C5D154F83D0B016841F40071016020204C
:101AC00004F81E09E67766770020C7E7FFE70220E3
:101AD000C4E70000020010000000FFFF10B586B050
:101AE000044614216846FEF7DDFB1349206888424E
:101AF00020D11248016841F0020101600068694686
:101B000000F002000590C0200090122001900120FA
:101B1000029003200390042004900948FFF70EFC74
:101B200006481030016841F400110160006800F4BB
:101B30000010059006B010BD00540040303802403F
:101B400000040240024881680278114481607047B5
:101B50001C0000200B4810B5016841F400710160C1
:101B6000016841F480610160016841F480710160A5
:101B7000032000F06FF8002000F006F800F024F8D1
:101B8000002010BD003C024070B50D4D04464FF4DE
:101B90007A712878B1FBF0F00A490968B1FBF0F0DE
:101BA00000F0D4FA48B9102C07D200222146501E6A
:101BB00000F030F800206C6070BD012070BD0000A6
:101BC0001C000020280000200A4808B5016841F4E4
:101BD00080410160006800F4804000900548001FCB
:101BE000016841F080510160006800F08050009071
:101BF00008BD000044380240002809DB00F01F0245
:101C0000012191404009800000F1E020C0F800115E
:101C100070470000F0B40E4B1B680C46C3F3022360
:101C2000C3F10705042D00D90425191D072901D288
:101C3000002300E0DB1E012606FA05F1491E2140C3
:101C400099409E40761E16403143F0BC00F075BDB1
:101C50000CED00E0064900F0070208684FF6FF03AC
:101C6000184040EA0220034A104308607047000011
:101C70000CED00E00000FA052DE9F0470E460500E6
:101C800065D0DFF81481D8F80000F7B200F00F003B
:101C9000B04207D288F80070D8F8000000F00F00BA
:101CA000B04254D128683D4C810712D5400703D576
:101CB000206840F4E05020602878000703D52068B1
:101CC00040F4604020602068A96820F0F0000843DC
:101CD00020602878C0072DD030496868083901286D
:101CE00012D0022813D0032811D0096889070029CF
:101CF0002DDA216821F0030101432160FFF7FCFB8D
:101D0000814641F2883A0EE009688903EFE70968E5
:101D10008901ECE7FFF7F0FBA0EB0901514502D97F
:101D20000320BDE8F0872068696800F00C00B0EB84
:101D3000810FEFD1D8F80010404601F00F01B142F9
:101D400007D90770006800F00F00B04201D00120F1
:101D5000E7E72878400705D52068E96820F4E050D7
:101D6000084320602878000706D52068296920F4F8
:101D7000604040EAC100206000F026F82168084A6F
:101D8000C1F30311515CC840064908600020FFF709
:101D9000FBFE0020C5E70000003C0240083802407E
:101DA000FA41000828000020044805490068096835
:101DB000044AC1F38221515CC840704728000020CA
:101DC000083802400A420008154810B5006810F0B3
:101DD0000C02144813D04110042A0FD0082A0ED147
:101DE0000F4C241F2268236802F03F025B0207D5D4
:101DF0002068C0F38810A0FB010106E0084610BD72
:101E00002168C1F38811A1FB00010023FEF700FA4D
:101E10002168C1F30141491C4900B0FBF1F010BD3C
:101E2000083802400024F4002DE9F84F05460078F8
:101E3000DFF800B3C04CC0074AD0DBF800105846AA
:101E4000C1F38101012908D00068C0F38100022894
:101E50000AD1201D0068400206D52068800337D5CE
:101E60006868002872D033E06868B0F5803F10D011
:101E7000B0F5A02F206810D020F4803020602068BA
:101E800020F4802020606868A8B1FFF735FB064683
:101E90000DE0206840F48030F4E740F480202060BA
:101EA000F7E700BFFFF728FB801B64286FD8206886
:101EB0008003F7D50CE0FFF71FFB064605E000BFE7
:101EC000FFF71AFB801B6428F0D820688003F7D442
:101ED0002878DFF8688280074FF0000940D5DBF8EA
:101EE0000010584611F00C0F09D00068C0F38100B3
:101EF00002280BD18F48001F0068400206D42068DA
:101F0000800715D5E868012820D111E0E868B8B14C
:101F10000120C8F80000FFF7EFFA064605E000BF11
:101F2000FFF7EAFA801B0228C0D820688007F7D59F
:101F30002068296920F0F80040EAC10020600FE025
:101F4000C8F80090FFF7D8FA064606E0EFE000BFB9
:101F5000FFF7D2FA801B022819D820688007F7D42F
:101F60002878000722D5734E754869696C3679B1B7
:101F700001210160FFF7C0FA074604E0FFF7BCFA51
:101F8000C01B022803D830688007F7D50EE089E02F
:101F9000C0F80090FFF7B0FA074604E0FFF7ACFA8C
:101FA000C01B02287ED830688007F7D42878400705
:101FB00068D5DFF880A100270AF1380ADAF80000B6
:101FC000C0000BD4DAF8001041F08051CAF80010BC
:101FD000DAF80000012700F080500090594E306878
:101FE000C00510D4306840F480703060FFF784FA88
:101FF000009005E0FFF780FA0099401A022851D8B6
:102000003068C005F6D54B4EA868683601280FD059
:102010000528306810D020F001003060306820F0D2
:1020200004003060A868B8B1FFF766FA00900FE0CE
:10203000306840F00100F4E740F004003060F7E75A
:10204000FFF75AFA0099411A41F28830814266D866
:1020500030688007F4D50EE0FFF74EFA009007E0F5
:10206000FFF74AFA0099411A41F28830814256D866
:1020700030688007F4D42FB1DAF8001021F08051D5
:10208000CAF80010A869D0B3DBF80010C1F38101D1
:1020900002294CD00228484607D0C8F86000FFF754
:1020A0002BFA00E03BE005463CE04746C8F86000FC
:1020B000FFF722FA064604E0FFF71EFA801B02280B
:1020C0002DD820688001F7D4F5E907010843E968B5
:1020D0001D4A490802EB0141AA6841EA82110843FE
:1020E000297C40EA0160297D40EA01711148001F06
:1020F000016001203866FFF7FFF9054605E014E0AE
:10210000FFF7FAF9401B022809D820688001F7D5AB
:102110000BE000BFFFF7F0F9401B022802D90320B3
:10212000BDE8F88F20688001F4D40020F8E7012092
:10213000F6E700000838024000380240000047423D
:10214000800E4742007000400000FFFF10B5401EA7
:10215000B0F1807F01D3012010BD4FF0E024606119
:102160000F21601700F0E9FA0020A061072020612C
:10217000002010BDFEE701684A69D24352050FD422
:102180006FF480624A61002140F8301F20224273C0
:102190008173026942F004020261017301207047F9
:1021A000002070472DE9F84F0446C06A1E4692464B
:1021B0000D4621680A6842F480620A60082807D048
:1021C000012805D010F5803F02D0206B112804D1E2
:1021D0002068016841F4807101604FF00118534696
:1021E000002241462046009600F0B0F8F0BB20697E
:1021F00008F10109B0F5804F0FD00620216800EAF0
:10220000D51747F0F00008613346524608F1070140
:10221000204600F0CFF848BB03E0E8B240F00100F0
:102220001BE02168E8B20861334652464946204621
:1022300000F0C0F8D0B92068416981690091016857
:1022400041F48071016053460022414620460096C9
:1022500000F07CF850B947F0F1002168086133467E
:1022600052464946204600F0A5F800E001E000286B
:1022700000D00120BDE8F88FF8B50446C06A1E46BC
:102280000D461746082807D0012805D010F5803FD5
:1022900002D0206B122804D12068016841F48071BB
:1022A0000160134600224FF001112046009600F015
:1022B0004DF808BB2069B0F5804F0ED0062021688C
:1022C00000EAD51040F0F000086133463A460B4969
:1022D000204600F06FF878B902E005F0FE0000E05B
:1022E000E8B221680861054933463A46891F20460D
:1022F00000F060F8002800D00120F8BD08000100BF
:1023000070B516460D4604460DE02046FFF733FF34
:1023100008B1012070BD681C05D0FFF7EDF8801BE7
:10232000A84207D835B120684069C0434007ECD4C3
:10233000002070BD002044F8300F20216173A0738D
:10234000216941F0200121612073E2E72DE9F04786
:102350001E4690460D460446C1F30747DDF820901F
:1023600008E0701C06D0FFF7C7F8A0EB0900B042E8
:102370000FD876B12068012F18D0806925EA0000B7
:102380000004000C14D000214145EAD00020BDE833
:10239000F087002044F8300F20216173A073216979
:1023A00041F02001216120730120F0E74069E5E759
:1023B0000121E9E72DE9F0479A4691460E46044689
:1023C00000254FF02008C1F3074725E02068406949
:1023D000C043400514D42068016841F400710160D5
:1023E00021686FF480604861256384F83D8084F83B
:1023F0003E50206C40F00400206484F83C501FE004
:10240000B9F1FF3F08D0FFF777F8A0EB0A01494583
:102410000CD8B9F1000F09D02068012F13D08069C2
:1024200026EA00000004000C0BD0CFE744F8305F30
:1024300084F80D80A573206940F020002061257389
:102440000120BDE8F0874069EAE72DE9F041002569
:1024500090460E460446202717E04069C043C00658
:102460000CD454F8301B6FF01000486144F8105938
:102470006777A577206A2062257717E0FFF73CF899
:10248000A0EB0800B04208D83EB120684169C943BA
:102490004906E2D40020BDE8F08144F8305F67735C
:1024A000A573206940F02000206125730120F2E728
:1024B00070B516460D4604460DE02046FFF75BFE5C
:1024C00008B1012070BD681C05D0FFF715F8801B0E
:1024D000A84207D835B120684069C0430006ECD453
:1024E000002070BD002044F8300F20216173A073DC
:1024F000216941F0200121612073E2E70E4810B507
:102500000C4901600521416000214FF4E022816007
:10251000C0E903124161017641768176C176017787
:102520004177FEF710FE002803D0BDE81040FEF70B
:1025300096BC10BD00640040A8010020F0B587B033
:1025400014216846FDF7AEFE24480024016841F0DE
:1025500080010160016801F080010591016841F08E
:1025600002010160016801F002010591016841F07A
:1025700004010160016801F004010591016841F066
:10258000010101600068164E00F001004FF4404563
:102590000590012229463046FEF7A9FF114F01227E
:1025A00040213846FEF7A3FF0022E9113846FEF726
:1025B0009EFF00950125CDE90154694630460394FC
:1025C000FEF7BCFE4FF4E0700090CDE9015469467F
:1025D00038460394FEF7B2FE07B0F0BD3038024033
:1025E00000040240000802400D4810B50B4901608C
:1025F0000C49416000214FF480428160C0E9031220
:1026000041618161C1610162FEF77CFF002803D056
:10261000BDE81040FEF723BC10BD00000054004090
:10262000D0010020801A0600FEE77047704770470F
:10263000FFF788BA30B593B034216846FDF732FE13
:1026400014210DA8FDF72EFE18480025016841F061
:1026500080510160006800F08050129014480168B9
:1026600041F4404101600068022400F440401290AF
:1026700001200090000401908001CDE90640042073
:1026800008906420CDE909040B9468460C94FFF788
:10269000CBFB0DA90F2081E83100E002CDE9100548
:1026A00003210DA8FFF7E8FA13B030BD403802400F
:1026B000007000401048016841F4700101600F484B
:1026C000016841F0010101600C4A002108321160EB
:1026D00002680B4B1A400260031D0A4A1A60026826
:1026E00022F48022026005480C300160024958063D
:1026F000803908607047000088ED00E00038024033
:10270000FFFFF6FE10300024FEE703B401984100FD
:10271000009850EAC12018BF04204A0D18BF40F0AD
:10272000010040F2FF72B2EB515F08BF40F00200BF
:10273000012808BF052002B070470907090E0028CC
:1027400004DB00F1E02080F80014704700F00F0077
:1027500000F1E02080F8141D704700000000000028
:1027600070B5C1482DED020B2DED0E8B82B0119D81
:1027700025F000449FEDBEDB9FEDBFEB84423EDBC6
:10278000A4F140511098A1F17F6108430FD0BC48DB
:10279000844202DC28D1109830B39DED100B02B0BA
:1027A000BDEC0E8B02B0BDE8704001F0A9BA9DED02
:1027B000100B53EC1D2B51EC100BFDF77EFD9DED26
:1027C000100B41EC180B53EC1E2B51EC100BFDF7CA
:1027D00074FD53EC182BFDF7D5FE41EC100B02B045
:1027E000BDEC0E8B02B070BD012001F0DDFA02B02D
:1027F000BDEC0E8B02B0BDE8704001F095BAA14867
:102800009FEDA18B844256DA9DED100BB4F1795FF8
:102810000ADA51EC100BFFF778FF042808BF01F02B
:10282000A3FA9DED100BDAE753EC102B51EC100BD3
:10283000FDF743FD41EC190B95480621B0EE490A1E
:10284000F0EE690A784401F0C7F953EC192B51EC0A
:10285000100BFDF732FD41EC1A0B8E48B0EE490A21
:10286000F0EE690A0421784401F0B6F953EC192B13
:1028700051EC100BFDF721FD53EC182BFDF782FEF8
:1028800041EC100B51EC1A0B53EC102BFDF721FF10
:10289000CDE900019DED000B53EC102B9DED100BCD
:1028A00051EC100BFDF709FD9DED101B53EC112BA6
:1028B000FDF768FED2E09DED100B51EC100B01F01E
:1028C00081FA53EC182BFDF701FF9FED730BCDE957
:1028D000000153EC102B9DED000B51EC100BFDF79C
:1028E000ECFC41EC190B6E480621B0EE490AF0EE03
:1028F000690A784401F070F953EC192B51EC100B74
:10290000FDF7DBFC41EC1B0B6648B0EE490AF0EE2C
:10291000690A0421784401F05FF953EC192B51EC5A
:10292000100BFDF7CAFC53EC182BFDF72BFE41EC06
:102930001C0B51EC190B01F029FC41EC180B5A4807
:102940009FED5BABA04222DC53EC1C2B51EC1B0B2C
:10295000FDF7BFFECDE900019DED000B51EC180B1A
:1029600053EC102BFDF7A9FC53EC182BFDF70AFED6
:1029700053EC1A2BFDF7A1FC53EC1D2BFDF7A3FE26
:1029800053EC1E2BFDF7A2FE41EC100B5FE08DED2A
:10299000008B002000909DED000B51EC180B53ECC8
:1029A000102BFDF7EFFD9DED000B41EC1E0B53ECE2
:1029B000102B51EC100BFDF780FC53EC192BFDF79D
:1029C00085FE53EC1E2BFDF784FE41EC190B53ECF6
:1029D0001C2B51EC1B0BFDF77CFE41EC1B0B53EC4D
:1029E0001A2B51EC190BFDF768FC53EC1D2BFDF76E
:1029F0006DFE41EC190B53EC1A2B51EC180BFDF743
:102A00005CFC53EC1B2BFDF758FC53EC192BFDF72A
:102A10005AFE9DED000B41EC180B53EC1A2B51ECB8
:102A2000100BFDF74AFC9FED249B53EC192BFDF78F
:102A30004DFE41EC100B51EC180B53EC102BFDF735
:102A400042FE53EC192BFDF741FE41EC100B002D1B
:102A50003FF7C5AE51EC100B81F0004141EC100B7B
:102A6000BDE60000000000000000F03F0000000094
:102A7000075C143326A6913C182D4454FB21F93FE2
:102A80000000F07F0000E03F000000000000F03F89
:102A9000D0190000DE190000000000000000E03F37
:102AA00022190000301900003333EF3F000000000E
:102AB0000000000000000040182D4454FB21E93FB5
:102AC00070B59B482DED020B2DED068B079D25F073
:102AD0000044A04218DC9748844202DC0AD10698E0
:102AE00040B19DED060BBDEC068B02B0BDE8704019
:102AF00001F006B9002DCCBF9FED8F0B9FED900B21
:102B0000BDEC068B02B070BD8F48A04215DD8F482A
:102B1000A042D8BF4FF0FF3458DD9DED060B51ECBD
:102B2000100BFFF7F2FD042808BF01F01DF99DED21
:102B3000060BBDEC068B02B070BD9DED060B51EC93
:102B4000100B01F03FF9CDE9060181489FED828B22
:102B5000A0423CDD8248A0421FDD00249FED82ABF5
:102B60009DED060B53EC1A2B51EC100BFDF70AFDF3
:102B70009DED060B41EC190B53EC1A2B51EC100B8D
:102B8000FDF79BFB53EC182BFDF79DFD53EC192B28
:102B9000FDF79FFDCDE9060149E09DED060B0124FF
:102BA00053EC182B51EC100BFDF7ECFC9DED060BD4
:102BB00041EC190B53EC182B51EC100BFDF783FD76
:102BC00053EC192BFDF785FDCDE906012FE0684890
:102BD000A0421FDD02249FED689B9DED060B53EC88
:102BE000192B51EC100BFDF768FB53EC182BFDF77C
:102BF000C9FC9DED060B41EC180B53EC192B51EC65
:102C0000100BFDF760FD53EC182BFDF762FDCDE9CD
:102C100006010CE09DED060B032453EC102B9FEDF9
:102C2000580B51EC100BFDF754FDCDE906019DED5D
:102C3000060B53EC102B51EC100BFDF73EFB41EC57
:102C4000180B53EC182BFDF738FB41EC190B4E48D1
:102C50000621B0EE490AF0EE690A784400F0BCFFA4
:102C600053EC182B51EC100BFDF727FB41EC180B24
:102C70004648B0EE490AF0EE690A0521784400F0B2
:102C8000ABFF53EC192B51EC100BFDF716FB41EC8D
:102C9000100B51EC180B53EC102B002C0EDAFDF737
:102CA00071FC9DED061B53EC112BFDF706FB9DED12
:102CB000061B53EC112BFDF709FD35E0FDF762FC17
:102CC0009DED061B53EC112BFDF7F7FA41EC100BB1
:102CD0002F48784400EBC40090ED001B51EC100B22
:102CE00053EC112BFDF7EFFC9DED061B53EC112B64
:102CF000FDF7E9FC41EC100B2648784400EBC400DA
:102D000090ED001B51EC100B53EC112BFDF7DEFC8A
:102D100041EC100B002DA2BFBDEC068B02B070BDC4
:102D200051EC100B81F0004141EC100B01E7000069
:102D3000000010440000F07F182D4454FB21F93F9F
:102D4000182D4454FB21F9BF0000DC3F0000203E59
:102D50000000F33F00000000000000000000F03F12
:102D60000000E63F000000000000000000000040FE
:102D70000080034000000000000000000000F83F59
:102D8000000000000000F0BFFA160000B0160000BE
:102D90003A160000F215000070B56B4E2DED040BD5
:102DA0002DED028B82B0DDF81CC0DDE905235C420D
:102DB0002CF000411C4341EAD474049D22F00040F1
:102DC000B44205D86C422C4340EAD474B4420BD9C7
:102DD0009DED061B9DED040B02B0BDEC028B04B013
:102DE000BDE8704000F096BFACF14054A4F17F64A0
:102DF0001C430BD0022404EAAC7444EAD2740543A9
:102E00009FED538B9FED542B07D015E09DED040BE8
:102E100051EC100B00F0CEFF42E0002C11BF012C52
:102E20009DED040B02B0BDEC028B04BF04B070BD7D
:102E3000022C38D0032C3BD00B439FED491B9FED58
:102E40004A0B0AD0B14218D1B04209D121F08041D9
:102E500020F08040079105900FE0002A15DA10E07D
:102E6000434B7B44002C08BF93ED000B0DD0012C8D
:102E700010D0022C17D0032C1AD0B0421DD1002A3A
:102E800003DAB0EE410AF0EE610A02B0BDEC028B4B
:102E900004B070BD93ED000B51EC100B81F00041BC
:102EA00041EC100BF1E7B0EE480AF0EE680AECE7EF
:102EB000B0EE420AF0EE620AE7E7401A00153C283D
:102EC000C8BF8DED000B19DCBCF1000FBEBF10F1C7
:102ED0003C0F9FED290B8DED000B0FDB9DED060BDD
:102EE00053EC102B9DED040B51EC100BFDF7F1FB97
:102EF00000F068FF00F05EFFCDE90001002C08BF84
:102F00009DED000BC1D0012C10D0022C9FED1C0BAD
:102F100053EC102B9DED000B51EC100B0DD0FDF779
:102F2000D2FB53EC182BFDF7CEFBB9E7019880F0EC
:102F3000004001909DED000BA7E7FDF7C4FB53ECAB
:102F4000182BFDF7C3FBABE70000F07F000000008B
:102F5000182D4454FB210940182D4454FB2109C06D
:102F6000182D4454FB21F9BF182D4454FB21F93F7F
:102F7000221500000000000000000000000000001A
:102F8000075C143326A6A13C2DE9F04D2DED040B72
:102F90002DED0E8B96B0DDE92550279CDDF890A035
:102FA00025F0004624F00048BAF1000F14BF0121BB
:102FB000002101EB4502FC4953184A1093422AD3E1
:102FC000002814BF0123002303EB44030B44F749FB
:102FD0008B4220D358EA00019FEDF59B76D0DFF8B5
:102FE000D8B35D4503D1BAF1000F05D188E0BAF13D
:102FF000000F08BF002100D0012101EB450111F5B0
:10300000001F08D8002814BF0121002101EB440152
:1030100011F5001F0BD99DED261B9DED240B16B05D
:10302000BDEC0E8B04B0BDE8F04D00F073BE002780
:10303000002DBCBFE149884521DAE1498845A8BF98
:1030400002271CDAC3451ADCDE4901EB285114299A
:1030500008DDC1F1340220FA02F101FA02F28242E3
:103060000DD108E058B9C1F1140228FA02F101FAB1
:1030700002F2424503D101F00101C1F1020756EA13
:103080000A0124D1002C22DA002D18BF022F01D012
:10309000012F0AD0022000F087FE16B0BDEC0E8B87
:1030A00004B0BDE8F04D00F013BE022000F07CFE3D
:1030B00000F00EFE51EC100B81F0004141EC100BC2
:1030C00016B0BDEC0E8B04B0BDE8F08D18E09FED9E
:1030D000BEAB9FEDBF8B002871D1B848804522D18F
:1030E00005F1804010F5801008BFBAF1000F07D03D
:1030F000B3450ADC002CA8BF9DED260BE0DA0DE0FD
:10310000B0EE490AF0EE690ADAE7002C06DA9DED26
:10311000260B51EC100B81F000416FE0AE48784473
:1031200090ED000BCCE7D8454DD1002C48DA2EB1FC
:1031300086423AD1BAF1000F42D126E0BAF1000F2F
:1031400013D0022000F030FE00F0FEFD8DED020BEA
:103150009DED240B8DED000B10EE900A039961F3A9
:103160001E0003909DED020BAAE78DED02AB9DEDD5
:10317000240B1AEE901A10EE900A8DED000B61F3FD
:103180001E0003909DED020B9AE78DED028B9DEDE5
:10319000240B18EE901A10EE900A8DED000B61F3DF
:1031A0001E0003909DED020B8AE709DA9DED240BCA
:1031B00051EC190B53EC102BFDF78BFA1EE020E0BD
:1031C0009DED240B7CE786421BDAB4F1804F0DD0D5
:1031D000A4F10050B0F1FF5013D1002D11DB9DED93
:1031E000240B51EC100B00F0D1FF07E09DED240BF8
:1031F00053EC102B51EC100B00F0C2BC41EC100B47
:103200005EE79DED240B51EC100B00F0DBFDBAF1F5
:10321000000FCDE90E0142D19FED710B46B3A6F12F
:10322000E040B0F17F600CD05E4538D1002D00DA6F
:10323000A7B3022F0CBF01204FF0FF30FDF7AFF80E
:10324000DCE7002D01DD002C0DDA002D01DD002C66
:103250001FDB002D16DA002C14DB012F08BF9FEDB9
:10326000620B3FF42DAFB0EE4A0AF0EE6A0A27E790
:10327000022F18BF002D0CD0012F0AD1002DFFF610
:103280001FAF06E0002DB8BF002C08DA012F3FF475
:1032900017AFB0EE480AF0EE680A11E71BE0012014
:1032A00000EBE57050EA070115D0791EB0EE498AAF
:1032B000F0EE698A084308BF9FED4D8B4E4800250C
:1032C000804570DD4D494E48884514DDB0420DDB28
:1032D000002C19DB2FE0012000F066FD16B0BDECDC
:1032E0000E8B04B0BDE8F04D00F01EBDB34502DC0E
:1032F000002C09DC1FE0864202DA002C1BDA03E016
:103300005E452BDD002C16DD022000F04DFD00F0A7
:103310001BFD8DED020B53EC1A2B51EC180BFCF737
:10332000CCFFCDE900010399019861F31E000390E1
:103330009DED020BC4E6022000F036FD00F014FD06
:1033400010EE901A18EE900A8DED020B8DED008BA9
:1033500061F31E0003909DED020BB1E69DED0E0B97
:1033600053EC192B51EC100BFDF7ADF99FED260B2B
:10337000CDE9080153EC102B9DED080B51EC100B1F
:10338000FCF79BFF9FED221B53EC112BFDF79EF9E1
:103390009DED081B53EC112BFCF78FFF9FED1E1BBF
:1033A00053EC112B3CE08CE0FFFF1F00FFFF0F00F0
:1033B000000000000000F03F0000F03F0000F07F40
:1033C0000000404301FCFFFF000000000000F07F10
:1033D0000000000000000000661200000000000075
:1033E0000000000000000080000000000000F0FF6E
:1033F000000000000000F0BF0000E0410000F043CA
:10340000FFFFEF3F00000000000000000000D03F81
:10341000555555555555D53F000000000000E03F7B
:10342000FDF754F99DED080B41EC1A0B53EC102BF2
:1034300051EC100BFCF741FF53EC1A2BFCF73DFF4E
:1034400041EC1A0B9FEDFE0B53EC102B9DED080B7E
:1034500051EC100BFCF731FF41EC1B0B9FEDFA0B0D
:1034600051EC1A0B53EC102BFCF727FF41EC1A0B15
:103470009FEDF70B53EC102B9DED080B51EC100B4F
:10348000FCF71BFF53EC1A2BFDF71DF941EC1A0B4F
:1034900051EC1B0B53EC1A2BFDF774F80690CDE999
:1034A00006519DED060B53EC1B2B51EC100BFDF759
:1034B0000AF953EC1A2BFDF709F941EC100B00F057
:1034C000A1B90020B6F5801F0EDA9FEDE30B53EC97
:1034D000102B9DED0E0B51EC100BFCF7EEFECDE921
:1034E0000E016FF034000E4600EB2650A0F2FF37BD
:1034F000C6F31300DA4940F07F6646F04056884232
:10350000D8BF002408DDD7498142C8BF012403DCAD
:103510000024A6F580167F1CD348784400EBC40035
:103520000F9690ED00CB9DED0E0B53EC1C2B51EC48
:10353000100BFDF7C8F89DED0E0B41EC1B0B53EC87
:103540001C2B51EC100BFDF71DF841EC100B51EC4E
:10355000190B53EC102BFDF7BCF841EC1D0B51EC93
:103560001B0B53EC1D2BFCF7A8FE41EC1A0BBF48BC
:103570008DED10AB7844109590ED000B4FF000509E
:1035800040EA660000EB84408DED080B00F500205A
:1035900009909DED080B53EC1C2B51EC100BFDF723
:1035A00092F89DED0E1B53EC112BFDF78FF841ECBB
:1035B000100B53EC102B9DED100B51EC100BFCF786
:1035C0007CFE9DED080B41EC1C0B53EC102B9DED8C
:1035D000100B51EC100BFCF770FE53EC1B2BFDF79E
:1035E00075F853EC1C2BFDF76EF853EC1D2BFCF714
:1035F00064FE41EC1C0B53EC1A2B51EC1A0BFCF73C
:103600005CFE41EC1B0B9A480621B0EE4B0AF0EE33
:103610006B0A784400F0E0FAB0EE401AF0EE601A5F
:10362000B0EE41DAF0EE61DA53EC1B2B51EC1B0BE0
:10363000FCF743FE53EC1D2BFCF73FFE9DED100BFA
:1036400041EC1B0B53EC1A2B51EC100BFCF79AFFBF
:1036500053EC1C2BFCF731FE53EC1B2BFCF792FFB9
:103660009DED100B41EC1B0B53EC102B51EC100B90
:10367000FCF723FE41EC1D0B9FED7FEB53EC1E2B63
:10368000FCF780FF53EC1B2BFCF77CFF0890CDE987
:1036900008519DED080B53EC1E2B51EC100BFDF760
:1036A00012F853EC1D2BFDF70EF853EC1B2BFDF716
:1036B0000DF89DED080B41EC1D0B53EC102B9DED0F
:1036C000100B51EC100BFCF7F8FD41EC1B0B53EC0D
:1036D0001A2B51EC1D0BFCF7F0FD9DED080B41EC96
:1036E0001A0B53EC102B51EC1C0BFCF7E6FD53ECC2
:1036F0001A2BFCF747FF41EC1A0B51EC1B0B53EC58
:103700001A2BFCF73FFF0C90CDE90C519DED0C0BF3
:1037100053EC1B2B51EC100BFCF7D5FF53EC1A2B81
:10372000FCF7D4FF41EC1B0B9FED550B53EC102B1A
:103730009DED0C0B51EC100BFCF7BFFD41EC1A0B8F
:103740009FED510B51EC1B0B53EC102BFCF7B5FD0F
:1037500041EC1B0B9FED4E0B53EC102B9DED0C0B16
:1037600051EC100BFCF7A9FD53EC1B2BFCF70AFFE7
:1037700041EC100B4848784400EBC40090ED001B6E
:1037800051EC100B53EC112BFCF7FCFE41EC1B0B26
:103790003846FCF704FECDE9080153EC1B2B51EC35
:1037A0001A0BFCF7EFFE41EC100B3C48784400EBA1
:1037B000C40090ED00CB51EC100B53EC1C2BFCF72C
:1037C000E1FE9DED081B53EC112BFCF7DBFE069090
:1037D000CDE906519DED080B53EC102B9DED060B2A
:1037E00051EC100BFCF76FFF53EC1C2BFCF76BFF3D
:1037F00053EC1A2BFCF767FF53EC1B2BFCF766FF0F
:1038000041EC100B9DED261B53EC102B8DED001B96
:1038100000959DED260B51EC100BFCF74EFD9DED38
:10382000000B41EC1A0B53EC102B9DED260B51ECC9
:10383000100BFCF748FF9DED061B53EC112B2FE0FE
:10384000000000604715F73FFE822B654715F73FE4
:1038500044DF5DF80BAE543E000000000000404322
:103860008E9803007AB60B004A0D0000100E00007F
:10387000820C000000000000000000000000084072
:10388000000000E009C7EE3FFD033ADC09C7EE3F48
:10389000F5015B14E02F3EBE0E0B0000C80A0000CD
:1038A000FCF70BFD53EC1A2BFCF76CFE9DED060BA1
:1038B00041EC1A0B53EC102B9DED000B51EC100B4F
:1038C000FCF7FBFCCDE90C019DED0C0B51EC1A0B48
:1038D00053EC102BFCF756FECDE902010C46AA4929
:1038E0008C422FDB611A084318D19DED0C0B53EC71
:1038F000102B9DED020B51EC100BFCF7E4FE41EC9C
:103900001B0B9FEDA30B51EC1A0B53EC102BFCF788
:1039100039FE53EC1B2BFCF763FF2DD2022000F085
:1039200043FA00F011FA10EE901A18EE900A8DED9D
:10393000020B8DED008B61F31E0003909DED020BD9
:10394000FFF7BEBB944A24F00041914214D393493F
:10395000214408437FF4EFAC9DED0C0B53EC102B8E
:103960009DED020B51EC100BFCF7ADFE53EC1A2B46
:10397000FCF736FF7FF6DFAC24F000408849894A27
:10398000002601EB205182422BDA481C4FF48011B3
:1039900021FA00F02044844AC0F30A517A44A1F28B
:1039A000FF3192ED000B814A8DED080BCA4020EAF1
:1039B0000202C0F3130040F48010C1F1140120FA98
:1039C00001F60992002CB8BF76429DED080B53EC2E
:1039D000102B9DED0C0B51EC100BFCF774FECDE998
:1039E0000C019DED0C0B51EC1A0B53EC102BFCF75A
:1039F000C9FD9FED6F0B0890CDE9085153EC102BDA
:103A00009DED080B51EC100BFCF757FC41EC1B0B28
:103A10009FED690B53EC102B9DED080B51EC100B37
:103A2000FCF74BFC9DED0C0B41EC1C0B53EC102BED
:103A30009DED080B51EC100BFCF745FE53EC1A2BD7
:103A4000FCF744FE9FED5E1B53EC112BFCF735FC9D
:103A500053EC1C2BFCF796FD41EC1A0B51EC1B0BA5
:103A600053EC1A2BFCF78EFDCDE902019DED020B04
:103A700053EC1B2B51EC100BFCF725FE53EC1A2BCF
:103A8000FCF724FE9DED020B41EC1A0B53EC102BBE
:103A900051EC100BFCF711FCCDE908014A489DEDF3
:103AA000080B0521784400F097F89DED081B51ECB8
:103AB000100B53EC112BFCF700FC9DED021B53EC9B
:103AC000112BFCF703FECDE906019DED020B53EC33
:103AD0001A2B51EC100BFCF7F0FB53EC1A2BFCF7F4
:103AE00051FD9FED3B0B41EC1A0B53EC102B9DED60
:103AF000060B51EC100BFCF7E6FD9DED060B41ECBF
:103B00001B0B53EC102B9DED020B51EC100BFCF733
:103B1000D4FB53EC1B2BFCF7DCFD53EC1A2BFCF70E
:103B2000D2FD9DED021B53EC112BFCF7CCFD53ECA9
:103B3000192BFCF7CBFDCDE9020101EB0650011575
:103B40000029C8BF039015DC9DED020B324651ECF5
:103B5000100BFCF72DFEFEF7D8FD042808BF00F07F
:103B600003F932469DED020B51EC100BFCF720FEE1
:103B7000CDE902019DED020B51EC180B53EC102B1B
:103B8000FCF79BFBFFF73ABB0000904000000000F1
:103B9000FE822B654715973C00CC904000346F3F68
:103BA00001FCFFFF0000E03FE8090000FFFF0F00FD
:103BB00000000000432EE63F396CA80C615C20BE7B
:103BC000EF39FAFE422EE63F200800000000000018
:103BD000000000000000004070B504462DED028B8F
:103BE0004D1E00EBC500B0EE408AF0EE608A90ED0D
:103BF000000B35F0060017D053EC182B51EC100BCE
:103C0000FCF75BFB41EC100B6D1E04EBC50090ED67
:103C1000001B51EC100B53EC112BFCF7B3FC41ECE7
:103C2000100B35F00600E7D1022D36D0042D1CD044
:103C3000062D1CBFBDEC028B70BD53EC182B51EC54
:103C4000100BFCF73AFB94ED0A1B53EC112BFCF71D
:103C500099FC53EC182BFCF730FB94ED081B53EC4C
:103C6000112BFCF78FFC41EC100B53EC182B51EC93
:103C7000100BFCF722FB94ED061B53EC112BFCF709
:103C800081FC53EC182BFCF718FB94ED040B53EC60
:103C9000102BFCF777FC41EC100B53EC182B51EC7C
:103CA000100BFCF70AFB94ED021B53EC112BFCF7F5
:103CB00069FC53EC182BFCF700FB94ED001B53EC54
:103CC000112BFCF75FFCBDEC028B41EC100B70BDBF
:103CD0009FED070B10B553EC102B9FED070B51EC2C
:103CE000100BFCF7F6FC41EC100B10BD00000000BF
:103CF0000000000000000000000000000000F03F95
:103D000010B553EC102B51EC100BFCF73BFC41ECC5
:103D1000100B10BD10B553EC112B51EC100BFCF730
:103D200031FC41EC100B10BD9FED050B10B553ECB1
:103D3000102B51EC100BFCF7CCFC41EC100B10BD20
:103D400000000000000000009FED050B10B553ECD3
:103D5000102B51EC100BFCF7B0FA41EC100B10BD1E
:103D600000000000000000709FED050B10B553EC43
:103D7000102B51EC100BFCF7A0FA41EC100B10BD0E
:103D8000000000000000001002E008C8121F08C177
:103D9000002AFAD170477047002001E001C1121FCC
:103DA000002AFBD1704700000149086070470000FD
:103DB0002C00002010B541EC100BFEF781FE51ECF9
:103DC000100B10BD82B0CDE9000121F00040019040
:103DD0009DED000B02B051EC100B7047C4B0FDF725
:103DE000B9FEFEF727FCFEF7A9FBFEF7FDFBFEF789
:103DF00085FB424D002240212846FDF778FB404ECE
:103E00004FF40047002239463046FDF770FB4FF46F
:103E10008048002241463046FDF769FB394C26E0D8
:103E20006420FDF779FA012240212846FDF75FFB67
:103E3000012239463046FDF75AFB01224146304601
:103E4000FDF755FB6420FDF767FA00224021284664
:103E5000FDF74DFB002239463046FDF748FB0022B6
:103E600041463046FDF743FB2078401C2070207807
:103E70000528D5D380204100CDE9001502902B46BE
:103E80009422214903A8FCF738FD4FF4827203A95C
:103E90001E48FCF7EEF91D48FCF7C6FEFA20FDF7B8
:103EA0003BFA1A48FCF7E6FE20B9012239463046B3
:103EB000FDF71DFB3220FDF72FFA1448FCF768FDD3
:103EC0003220FDF729FA1148FCF762FD3220FDF798
:103ED00023FA0A210D48FCF747FD0A210B48FCF79D
:103EE00048FD0A210948FCF749FD0A210748FCF76B
:103EF0004AFD0648FCF758FFFBE7000000080240B7
:103F00000004024000000020D0010020300000200A
:103F100010B500EE100A2DED048B4842B8EEC08AB1
:103F2000FCF73DFA41EC110B9FED0B0BFFF72CF862
:103F3000B0EE409AF0EE609A18EE100AFCF740FAE4
:103F400053EC192BFCF7B9F9FCF74DFABDEC048BD7
:103F500000EE100A10BD000000000000000000404C
:103F600010B57A492DED0C8B60EE81AAB0EE609A07
:103F7000B0EE41BAB0EE61AA41EE80AAF0EE408AFE
:103F80001AEE900A9FED728A884234DD18EE900A8C
:103F9000FCF716FA41EC1A0B19EE100AFCF710FAAE
:103FA00041EC100BB0EE4A1AF0EE6A1AFEF7F4FE7E
:103FB0009FED681B51EC100B53EC112BFCF77DF9B6
:103FC000FCF711FA00EE100A9FED642A00F0D0F819
:103FD000F0EE401AB0EE420A00F0CAF8B0EE402A05
:103FE000B0EE480A00F0C4F8F0EE420AB0EE611AF2
:103FF000BDEC0C8B10BD1AEE900A5949884230D99D
:1040000018EE900AFCF7DCF941EC1A0B19EE100AD5
:10401000FCF7D6F941EC100BB0EE4A1AF0EE6A1A32
:10402000FEF7BAFE9FED4F1B51EC100B53EC112B1A
:10403000FCF743F9FCF7D7F900EE100ADFED4B1A55
:1040400000F096F8B0EE402AB0EE610A00F090F869
:10405000F0EE401AB0EE480A00F08AF8F0EE610A7D
:1040600071E06BEE0B0AB7EE008AF0EE009AB0EE4C
:10407000480A6AEE0ABA00EEE90A29EE09DA0BEEFE
:10408000E90A10EE100AFCF79BF92BEE29BA69EE4B
:1040900029DA41EC1C0B2BEE280A0DEECA0A10EEB1
:1040A000100AFCF78DF941EC100BB0EE4C1AF0EE53
:1040B0006C1AFEF771FE51EC100BFCF794F92AEE26
:1040C000A90A09EE100A10EE100AFCF779F941EC82
:1040D000100BFEF745FB51EC100BFCF784F90DEECD
:1040E000698A0AEE900A0BEEE98A18EE100AFCF7CC
:1040F00067F92DEEA80A41EC1C0B0BEE4A0A10EEF4
:10410000100AFCF75DF941EC100BB0EE4C1AF0EE22
:104110006C1AFEF741FE51EC100BFCF764F901EE4E
:10412000900AB0EE490A00F023F8B0EE402AB0EE53
:104130006A0A00F01DF8F0EE402AB0EE610A00F0C5
:1041400017F8F0EE620AB0EE421A51E7EE7CFF3E3D
:10415000000000000000000000000040DB0FC93F2D
:10416000EE7CFFBE00000000000000C0DB0FC9BFF6
:104170009FED041AC0EE010A9FED030A20EE800AAB
:1041800070470000DB0F49400000344300B52DEDBF
:10419000048B83B041EC190BFCF75EFB41EC180B70
:1041A00018EE100A18EE901A8DED008B002818BF3B
:1041B0000120084320F00040C0F17F6000F1E040A2
:1041C000C00F14D019EE101A19EE900A8DED009B55
:1041D000002918BF0121084320F00040C0F17F6092
:1041E00000F1E040C00F04BF0120FFF7DDFD51ECFE
:1041F000180B03B0BDEC048B00BD000000000000F4
:104200000000010203040607080900000000010283
:104210000304000000000000555555555555C53F95
:104220007D6FEB0312D6D4BF5544880E55C1C93FEC
:104230003B8F68B52882A4BF88B20175E0EF493F83
:1042400009F7FD0DE13D023F4B2D8A1C273A03C0C3
:10425000C88A599CE52A004059018D1B6C06E6BFAF
:1042600082922EB1C5B8B33F000000000000F03FBD
:10427000000000000000F83F000000000000000007
:104280000000004003B8E23F000000000000000012
:1042900006D0CF43EBFD4C3E033333333333E33FA0
:1042A000FFAB6FDBB66DDB3F4D268F515555D53FCC
:1042B00001411DA96074D13F65DBC9934A86CD3F9A
:1042C000EF4E454A287ECA3F3E5555555555C53F88
:1042D00093BDBE166CC166BF2CDE25AF6A56113F7A
:1042E000F16BD2C541BDBBBED0A4BE726937663E7C
:1042F0004FBB610567ACDD3F182D4454FB21E93FFE
:104300009BF681D20B73EF3F182D4454FB21F93FEC
:10431000E2652F227F2B7A3C075C143326A6813C72
:10432000BDCBF07A8807703C075C143326A6913C1D
:10433000C4EB98999999C9BF711623FEC671BCBF89
:104340006D9A74AFF2B0B3BF9AFDDE522DDEADBFF1
:104350002F6C6A2C44B4A2BF0D5555555555D53F09
:10436000FF8300922449C23F6E204CC5CD45B73F24
:10437000513DD0A0660DB13FEB0D76244B7BA93F9C
:1043800011DA22E33AAD903F000000000000000087
:10439000B04300080000002030000000883D000805
:1043A000E043000830000020F8150000983D0008A8
:1043B00000000000000000000000000000000000FD
:1043C00000000000000000000000000001000000EC
:1043D00010000000000000000024F40000000000B5
:04000005080001D915
:00000001FF
