:020000040800F2
:10000000E0190020ED010008A73300081F2E0008AA
:10001000A5330008A71500085935000800000000A6
:10002000000000000000000000000000AB330008EA
:100030001D16000800000000A9330008AD330008B9
:10004000070200080702000807020008070200086C
:10005000070200080702000807020008070200085C
:10006000070200080702000807020008070200084C
:10007000070200080702000807020008070200083C
:10008000070200080702000807020008CD15000853
:10009000A9150008B5150008C115000807020008D9
:1000A000070200080702000807020008070200080C
:1000B00007020008070200080702000807020008FC
:1000C00007020008070200080702000807020008EC
:1000D00007020008070200080702000807020008DC
:1000E00007020008070200080702000807020008CC
:1000F00007020008070200080702000807020008BC
:1001000007020008070200080702000807020008AB
:1001100007020008070200088534000807020008EB
:10012000070200080702000807020008070200088B
:10013000070200080702000807020008070200087B
:10014000070200080702000807020008070200086B
:10015000070200080702000807020008070200085B
:10016000070200080702000807020008070200084B
:10017000070200080702000800000000000000005D
:10018000070200080702000807020008070200082B
:10019000070200080702000800000000070200082C
:1001A000070200080702000800000000000000002D
:1001B000070200080000000000000000070200081D
:1001C00007020008070200080702000807020008EB
:1001D0000702000807020008DFF80CD000F044FB1B
:1001E00000480047854D0008E01900200648804778
:1001F00006480047FEE7FEE7FEE7FEE7FEE7FEE70C
:10020000FEE7FEE7FEE7FEE731340008D90100080B
:100210002DE9F05F0546002092469B46884606463B
:10022000814640241BE0284641464746224600F0CE
:1002300031F953465A46C01A914110D31146184617
:10024000224600F018F92D1A67EB01084F462246A6
:100250000120002100F00FF917EB00094E41201E8C
:10026000A4F10104DFDC484631462A464346BDE896
:10027000F09F40EA01039B0703D009E008C9121F61
:1002800008C0042AFAD203E011F8013B00F8013B50
:10029000521EF9D27047D2B201E000F8012B491E7C
:1002A000FBD270470022F6E710B513460A46044613
:1002B0001946FFF7F0FF204610BD2DE9FE4F81EAF9
:1002C000030404F0004421F0004100944FF0000BBF
:1002D00023F0004350EA01045ED052EA03045BD0ED
:1002E000C3F30A54C1F30A552C44A4F2F334019425
:1002F000A0FB0254C1F3130141F48011C3F31303B3
:1003000043F4801301FB024400FB034E840A970A66
:1003100044EA815447EA8357A4FB076802958D0A93
:1003200005FB07854FEA932C04FB0C542705029D1F
:100330004FEA065847EA1637B5EB08056EEB070C8F
:10034000870E920E47EA811742EA8312A7FB020149
:10035000B6EB0B0164EB00042B0D43EA0C335E1883
:1003600044EB1C50DA465146E7FB0201C5F3130487
:100370004FEA0B3343EA14534FEA0432019C43EA39
:100380000603A4F10C040294009CCDE900B400F033
:10039000D7F803B0BDE8F08F00200146F9E70EB5AD
:1003A000C10F80EAE0700844CA07002140F23343DD
:1003B0008DE80E000A460B4600F0C2F803B000BDFF
:1003C0000EB540F2334102910021CDE900110A46F9
:1003D0000B4600F0B5F803B000BD70B5C1F30A528A
:1003E00001F000450024C1F3130140F2FF3341F452
:1003F00080119A4201DA002070BD40F233439A42E4
:10040000A2F2334203DC524200F044F800E0904094
:100410002C43F1D0404270BD00F0004230F000406B
:100420000AD0C10D01F56071C0F3160042EA015116
:10043000C20840071143704700200146704701F091
:10044000004330B421F0004150EA010206D00A0D09
:10045000A2F56072C1F31301002A02DC30BC002057
:100460007047440F44EAC104C100E01830BC00EBFF
:10047000C25000F01FB8202A04DB203A00FA02F133
:10048000002070479140C2F1200320FA03F3194382
:1004900090407047202A04DB203A21FA02F0002124
:1004A000704721FA02F3D040C2F120029140084384
:1004B000194670470029A8BF7047401C490008BF73
:1004C00020F00100704710B4B0FA80FC00FA0CF084
:1004D00050EA010404BF10BC704749B1CCF12004BC
:1004E00021FA04F411FA0CF118BF01212143084349
:1004F000A3EB0C01CB1D4FEA00614FEA102042BF75
:10050000002010BC704700EBC35010440029A4BF6A
:1005100010BC7047401C490008BF20F0010010BC0F
:10052000704710B5141E73F1000408DA401C41F145
:10053000000192185B411A4301D120F0010010BD67
:100540002DE9F04D92469B4611B1B1FA81F202E0DD
:10055000B0FA80F220329046FFF78DFF04460F4636
:1005600040EA0A0041EA0B0153465A46084313D0B9
:10057000114653EA010019D0C8F140025046FFF776
:1005800089FF05460E46504659464246FFF773FF1F
:10059000084305D0012004E020463946BDE8F08D2F
:1005A0000020054346EAE0762C4337430A9863056A
:1005B000E40AA0EB08000022FD0A44EA47540A308E
:1005C00002D500200146E9E7010510196941DDE97E
:1005D000084500196941BDE8F04DA2E72DE9FE4F3D
:1005E000804681EA0300C00F0C46009021F00041D4
:1005F00023F00045B8EB0200A94105D24046214650
:1006000090461C460B46024623F00040104347D05C
:10061000270DC7F30A00C3F30A510290401A019054
:1006200040286BDAC3F3130040F4801B0098924615
:1006300020B10023D2EB030A63EB0B0B0198594660
:10064000C0F140025046FFF716FF06460D465046E1
:100650005946019A00F01AF910EB08006141002494
:1006600087EA115284EAE7731A4340D0009A62B3D2
:10067000019A012A4FEA075215DC001B61EB0201C7
:100680004FF0004202EA0752CDE90042001C41F55A
:10069000801132462B46FFF753FF03B0BDE8F08FC1
:1006A00040462146F9E7001B61EB0201001C41F5C1
:1006B000801300185B412018A2F5001747EB0301D7
:1006C00040EAD570B6196D4111E06D084FEA360663
:1006D00045EAC0754FEA0752001B61EB0201001C9E
:1006E00041F5801149084FEA300000195141324666
:1006F0002B4603B0BDE8F04FFFF713BF009801226F
:1007000040000023D0EB020263EBE0730098214627
:100710004FEAE074B8EB000061EB0401E9E783F015
:1007200000435BE781F0004158E72DE9F04D81EA95
:10073000030404F0004B21F0004514464FF0000A7A
:1007400023F0004150EA050220D054EA01021DD0F6
:10075000C5F30A570246C5F31303C1F31300C1F3EF
:100760000A5640F4801543F48013A7EB0608101BCB
:10077000D64608F2FD3873EB050002D308F10108F4
:1007800001E092185B41B8F1000F03DA0020014646
:10079000BDE8F08D00204FF48011064684460EE03F
:1007A000171B73EB050705D3121B63EB0503064309
:1007B0004CEA010C49084FEA300092185B4150EABC
:1007C0000107EDD152EA030012D082EA040083EA65
:1007D0000501084305D0101BAB4106D201220023BE
:1007E00006E000224FF0004302E06FF001025310D8
:1007F0001AEB06004CEB085110EB0A0041EB0B0121
:10080000BDE8F04DFFF78DBE70B521F00043034306
:100810000CD0C1F30A550024D5EB040564EB0403A6
:10082000D617AD1AB34102DB0020014670BD201877
:1008300041EB025170BD000030B5041E71F100049F
:1008400004DB4FF00044404264EB0101141E73F1DD
:10085000000405DB1C464FF00043524263EB0403E7
:10086000994208BF904230BD064C074D06E0E06853
:1008700040F0010394E8070098471034AC42F6D3E7
:10088000FFF7AEFCD8530008F8530008202A06DB17
:10089000CB17203A41FA02F043EAE07306E041FA4E
:1008A00002F3D040C2F1200291400843194670473C
:1008B0002DE9F04D00231A461B1A8A4103DB002064
:1008C0000146BDE8F08DC1F30A52C1F3130141F4B2
:1008D00080154FF0000BD10702D100186D41521E58
:1008E0000027044640F2FF11384601EB620A3E46FB
:1008F0008046024600204FF48011FFF7CBFDC2195D
:100900007141BB1846EB0100B4EB030C75EB000C16
:1009100004D3E41A65EB000517460E46241908F1C6
:1009200001006D4180463428E3DDF91946EB0600ED
:10093000091BA84103D24FF0FF32134601E0002209
:1009400013461BEB070046EB0A51BDE8F04DFFF7DD
:10095000E8BDF8B515461022069E00F8482F002283
:1009600042700224847090F83440C470641C80F893
:100970003440F224047190F838404471641C80F8CB
:10098000384007248471C171057243728272C67245
:10099000027342738273C2734FF47A71009110F83C
:1009A000441C50F8484D00F148021023204601F045
:1009B00023FDF8BD08B500210B460A460091FFF75C
:1009C000C8FF08BD08B501210B460A460091FFF794
:1009D000C0FF08BD38B5102100F8481F0021417044
:1009E0000222827090F83420C270521C80F83420A9
:1009F000F222027190F838204271521C80F838209F
:100A00000A228271C171017241728172C1720173D5
:100A100041738173C1734FF47A71009110F8441CD3
:100A200050F8484D00F148021023204601F0E4FC44
:100A300038BD38B5102100F8481F0021417002224E
:100A4000827090F83420C270521C80F83420F22258
:100A5000027190F838204271521C80F8382004222C
:100A600082710122C271017241728172C17201737D
:100A700041738173C1734FF47A71009110F8441C73
:100A800050F8484D00F148021023204601F0B4FC14
:100A900038BD38B5102100F8481F002141700222EE
:100AA000827090F83420C270521C80F83420F222F8
:100AB000027190F838204271521C80F838200322CD
:100AC00082710122C271017241728172C17201731D
:100AD00041738173C1734FF47A71009110F8441C13
:100AE00050F8484D00F148021023204601F084FCE4
:100AF00038BD38B5102100F8481F0021417002228E
:100B0000827090F83420C270521C80F83420F22297
:100B1000027190F838204271521C80F83820062269
:100B20008271C171017241728172C172017341732C
:100B30008173C1734FF47A71009110F8441C50F81E
:100B4000484D00F148021023204601F055FC38BD05
:100B500010B504462DED068B82B01020022104F85A
:100B6000480F00206070A17094F83400E070401CC1
:100B700084F83400F220207194F838006071401C31
:100B800084F838000320A071B0EE438AF0EE638A47
:100B9000B0EE429AF0EE629AB0EE41AAF0EE61AA8F
:100BA000E1710E2004F0CEF8010A207261720E206D
:100BB000B0EE4A0AF0EE6A0A04F0C4F8010AA07224
:100BC000E1720E20B0EE490AF0EE690A04F0BAF8BC
:100BD000010A207361730E20B0EE480AF0EE680A35
:100BE00004F0B0F8010AA073E1734FF47A7000903A
:100BF00014F8441C54F8480D102304F1480201F085
:100C0000FBFB02B0BDEC068B10BD38B514461022BC
:100C100000F8482F002242700223837090F834308D
:100C2000C3705B1C80F83430F223037190F83830C5
:100C300043715B1C80F8383003238371C2710172E9
:100C400044728272C272027342738273C2734FF42F
:100C50007A71009110F8441C50F8484D00F1480298
:100C60001023204601F0C8FB38BD70B5ADF5946D7A
:100C70000DF5966C9CE870000091029300218DF8B0
:100C80000420ADF80C400495ADF814608DF8801088
:100C90000B466A46D4185B1C84F87A10062BF9DBE5
:100CA0000023D4185B1C84F828110A2BF9DB8DF87B
:100CB00080100023D4185B1C84F85D1184F83F1168
:100CC0001E2BF7DB002302EB83045B1CC4F87C11B2
:100CD000C4F80C13642BF6DB8DF8801040F29C42B4
:100CE0006946FFF7C6FA0DF5946D70BD38B5044638
:100CF0004FF47A7000902179042304F116022068E1
:100D000001F08AFAE08A20F4004038BD00230A4648
:100D1000052100F023BB00230A46012100F01EBB81
:100D200000230A46092100F019BB00230A460621C8
:100D300000F014BB00230A46022100F00FBB002381
:100D40000A46042100F00ABB00230A46032100F0F2
:100D500005BB00230A46142100F000BB00230A460D
:100D6000152100F0FBBA00230A46162100F0F6BA5E
:100D700000230A46082100F0F1BA30B5C37E4FF0D7
:100D800000040C604FF00104DB0814600ED0847F77
:100D9000D0F81F50012B44EA05240C6006D990F8C6
:100DA0002210D0F8230041EA0020106030BD2DE968
:100DB000F84304460C2004F8480F0027677002200F
:100DC000A07094F83400E070401C84F83400F420E3
:100DD00020716771A171080AE0711E462272100A23
:100DE0006072A672300AE0724FF47A70009014F8C4
:100DF000441C54F8480D0C2304F1480201F0FCFA9D
:100E0000002527E02046FFF771FF011EFAD020469B
:100E100000F093FAA07EF3281CD1E07E10F00700CA
:100E200008D0032806D0062804D0072802D00120C5
:100E3000BDE8F88304EB8501884601F5C072111FF7
:100E40002046FFF79AFF681CB04201D3C8F88071B2
:100E5000AD1CADB2B542D5D30020E9E7042342F67C
:100E60003E520021FFF7A3BF10B50446FFF73EFF37
:100E7000011E04D0204600F060FA2046F6E710BDBF
:100E80002DE9F04180462DED048B0C4686B0B1F87B
:100E90002300B1F82570B1F82760B1F829500E2170
:100EA00000B2213404F064F8B0EE409A0E2138B25A
:100EB00004F05EF8F0EE408A0E2130B204F058F8EB
:100EC000B0EE408A0E2128B204F052F8F0EE481A33
:100ED000B0EE681AF0EE490A04F072F88DEC030ADD
:100EE0000C21207800F003008DF80C0014F8010CA0
:100EF0008DF80D00608900B204F03AF8BCEEC00A2B
:100F000010EE100A80B200EE100AB8EE400A04F0AB
:100F100053F98DED040A142269464046FFF7A9F9FA
:100F200006B0BDEC048BBDE8F08170B506462DED32
:100F3000028B0C4691F82000082160F30F2514F86D
:100F4000210F00F0030060F30705608800B204F091
:100F50000FF8A088B0EE408A082100B204F008F82B
:100F6000F0EE400AE088F0EE608A082100B203F05B
:100F7000FFFFB0EE401A86ED021A86EC028AF56099
:100F8000BDEC028B70BD70B506462DED028B0C4694
:100F900091F82000092160F30F2514F8210F00F0CB
:100FA000030060F30705608800B203F0E1FFA0884A
:100FB000B0EE408A092100B203F0DAFFF0EE400AF9
:100FC000E088F0EE608A092100B203F0D1FFB0EEB4
:100FD000401A86ED021A86EC028AF560BDEC028B9F
:100FE00070BD10B500221E2905D932218318521C6C
:100FF0009C7D83F85D418A42F8DB10BD2DE9F0410C
:1010000080462DED048B0C4686B0B1F82300B1F874
:101010002570B1F82760B1F829500E2100B22134B3
:1010200003F0A6FFB0EE409A0E2138B203F0A0FF05
:10103000F0EE408A0E2130B203F09AFFB0EE408A03
:101040000E2128B203F094FFF0EE481AB0EE681AB1
:10105000F0EE490A03F0B4FF8DEC030A0C2120786E
:1010600000F003008DF80C0014F8010C8DF80D0051
:10107000608900B203F07CFFBCEEC00A10EE100ADB
:1010800080B200EE100AB8EE400A04F095F88DED3B
:10109000040A142269464046FFF7EBF806B0BDEC9F
:1010A000048BBDE8F08170B506462DED028B0C4631
:1010B00091F82000082160F30F2514F8210F00F0AB
:1010C000030060F30705608800B203F051FFA088B9
:1010D000B0EE408A082100B203F04AFFF0EE400A69
:1010E000E088F0EE608A082100B203F041FFB0EE24
:1010F000401A86ED021A86EC028AF560BDEC028B7E
:1011000070BD70B506462DED028B0C4691F820009F
:10111000082160F30F2514F8210F00F0030060F39D
:101120000705608800B203F023FFA088B0EE408A74
:10113000082100B203F01CFFF0EE400AE088F0EE58
:10114000608A082100B203F013FFB0EE401A86ED6A
:10115000021A86EC028AF560BDEC028B70BD70B598
:1011600006462DED028B0C4691F82000042160F319
:101170000F2514F8210F00F0030060F307056088C5
:1011800000B203F0F5FEA088B0EE408A042100B260
:1011900003F0EEFEF0EE400AE088F0EE608A0421F3
:1011A00000B203F0E5FEB0EE401A86ED021A86ECBE
:1011B000028AF560BDEC028B70BD10B5002204E020
:1011C0008318521C9C7D83F83F418A42F8DB10BD96
:1011D00010B591F8204064F31F6211F8214F04F01C
:1011E000030464F317424C8864F30F038C88C988A6
:1011F00064F31F4361F30F020360426010BD10B53A
:1012000091F8204064F31F6211F8214F04F00304A9
:1012100064F317424C8864F30F038C88C98864F325
:101220001F4361F30F020360426010BD10B591F8D7
:10123000204064F31F6211F8214F04F0030464F3AB
:1012400017424C8864F30F038C88C98864F31F43EA
:1012500061F30F020360426010BD2DE9F04180464A
:101260002DED048B0C4686B0B1F82300B1F8257043
:10127000B1F82760B1F829500E2100B2213403F0F3
:1012800077FEB0EE409A0E2138B203F071FEF0EE18
:10129000408A0E2130B203F06BFEB0EE408A0E2180
:1012A00028B203F065FEF0EE481AB0EE681AF0EED0
:1012B000490A03F085FE8DEC030A14222078694662
:1012C00000F003008DF80C0014F8010C8DF80D00EF
:1012D0004046FEF7CEFF06B0BDEC048BBDE8F081C2
:1012E00070B5044681898068012200F024FEA18A3D
:1012F0000122206900F01FFEFA2000F031FDA189D3
:101300000022A06800F017FE4FF4FA75284600F09E
:1013100027FDA1890122A06800F00DFE284600F0FB
:101320001FFD2046BDE8704000F067B801790068F5
:101330004FF47A730A2200F0C3BE38B5322900D9BF
:1013400032214FF47A720092057904680B4600F15D
:1013500016022946204600F05FFF38BDF8B5044666
:101360004FF47A704243152004F8480F0D460020D0
:1013700060700221A17094F83410E170491C84F867
:101380003410FD2121716571A071E07120726272CB
:10139000110AA172110CE172110E21736073A07316
:1013A000E07320746374180AA074180CE074180EAB
:1013B00020754FF47A70009014F8441C54F8480DCE
:1013C000152304F1480201F017F8012704F594767B
:1013D00025440CE02046FFF789FC011EFAD0204688
:1013E000FFF7ABFFA07EFC2801D1E07E875595F882
:1013F00028010028EED00120F8BD38B504460020B1
:1014000001462218401CC0B282F828111728F8D3D0
:10141000052084F8480084F84910012184F84A1016
:1014200094F87B0084F84B00401C84F87B0084F81F
:101430004C10642000902179052304F148022068B3
:1014400000F0DAFF322000F08BFC2046FFF70CFDA5
:10145000322000F085FC2046BDE83840FFF704BD8F
:1014600030B585B04FEA0004FFF740FC051E14D0EC
:1014700001462046FFF761FF207E03280FD0022897
:101480002CD1A07EF82874D0F12827D105B02946A8
:101490002046BDE83040FFF7A4BD2046E4E7A07E2B
:1014A000FB281BD1E07F062850D006DC062815D289
:1014B000DFE800F014232B333B4314285AD00FDC11
:1014C00008284DD0092809D121466846FFF796FD26
:1014D0001422694604F1FC00FEF7CBFE05B030BDD6
:1014E000152850D01628F9D121466846FFF79EFEF0
:1014F000DDE90001C4E94801F0E721466846FFF74D
:1015000014FD9DE80F00843427E021466846FFF76C
:101510003AFD9DE80F0094341FE021466846FFF72E
:101520001EFE9DE80F00A43417E021466846FFF731
:10153000E8FD9DE80F00B4340FE021466846FFF750
:101540009FFC1422694604F1C400C5E721466846A1
:10155000FFF7A9FD9DE80F00D83484E80F00BDE730
:1015600021466846FFF779FE1422694604F1E80037
:10157000B2E711E021466846FFF72AFEDDE90001E7
:10158000C4E94401AAE721466846FFF738FEDDE9D1
:101590000001C4E94601A1E705B02046BDE830409E
:1015A0001421FFF70ABEFEE7014800F0B4B90000BD
:1015B00020050020014800F0AEB900002005002001
:1015C000014800F0A8B9000020050020014800F003
:1015D000A2B9000020050020F8B50E4CDDE9065642
:1015E00020600020E0602661A0600B480C0A0470B7
:1015F0004170110A8170C270190A01714371290A80
:1016000081710449C57102466B4601F1180000F072
:1016100019F8F8BD08050020020000207047704747
:1016200090F82020012A07D0022A05D0416A41F40F
:101630008021416201207047006842690A4342618B
:1016400000207047F0B590F820500468A468012D80
:1016500005D0022D03D0416A41F4802153E014F0FB
:10166000406F01D1E5004BD5C4F30164022C03D9CE
:10167000416A41F4000146E00125A5401D608D68E6
:101680004FF4C0739DB1CE6835434E6845EAC60538
:10169000066803EB0417F5514FF4C275076805EBB4
:1016A00004150E697E51097D012905D009E00E88D7
:1016B000CD6845EA4655EBE701684E5946F4807619
:1016C0004E511179D2F805504FF4C67641EA0525FE
:1016D000016806EB04168D511178D2F801204FF401
:1016E000C47541EA0221026805EB041551510068F6
:1016F00003EB0411425842F0010242500020F0BDB9
:10170000416A41F4001141620120F0BD10B590F82A
:1017100020300268012B07D0022B05D0416A41F42A
:1017200080214162012010BD3E4C3F48A24200D0C2
:101730000246D2F8003243F00103C2F8003282427E
:101740000CD1D2F8000220F47C50C2F80002D2F88A
:1017500000024B6A40EA0320C2F80002087D00F054
:101760001F0301209840D2F81C328343C2F81C3278
:10177000CB69B3B9D2F80C328343C2F80C328C89EE
:101780004B6864F31F434C6902EBC404C4F8403255
:101790000C890B6864F31F434C6902EBC404C4F862
:1017A0004432CB69012B16D1D2F80C320343C2F874
:1017B0000C320C884B6864F31F434C6902EBC40481
:1017C000C4F840320C89CB6864F31F434C6902EBC8
:1017D000C404C4F844328B69002BD2F804320FD011
:1017E00053EA0003C2F804320B69002BD2F814321A
:1017F00008D00343C2F81432096A012904D008E072
:101800008343EFE78343F5E7D2F81C120143C2F8A4
:101810001C12D2F8000220F00100C2F800020020E1
:1018200010BD0000006C004000640040704730B5FF
:1018300090F82040012C05D0022C03D0416A41F4DD
:1018400080215DE00468002955D02469A40754D0A4
:101850004FF4D874056804EB01142D5915F00405F4
:10186000956005682D594ED0ED08556005682C59D6
:10187000C4F34004D4604FF4DA74056804EB011437
:101880002D5905F00F05156105682D59C5F307257C
:10189000956105682C59240C54614FF4DC7204687E
:1018A00002EB0112A4581C700468A458240A5C704E
:1018B0000468A458240C9C700468A258120EDA70B4
:1018C0004FF4DE72046802EB0112A4581C71046824
:1018D000A458240A5C710468A458240C9C71046800
:1018E000A258120EDA71006881B1016941F020013D
:1018F0000161002030BDE468A8E7416A41F40011AD
:101900004162012030BD6D0D1560AFE7C16841F047
:101910002001C160EDE72DE9F05F05460068002475
:101920004669D0F804908768D0F80CB0D0F810A0C1
:10193000D0F81880F10748D0F90714D00121816050
:10194000B80703D5284600F004FA0CE0780702D562
:101950004FF4006407E0380702D54FF4805402E0EA
:10196000284600F0F5F9F80516D529684FF480707F
:101970008860B80503D5284600F0EDF90CE078053D
:1019800002D544F4005407E0380502D544F48044FD
:1019900002E0284600F0DEF9F80316D529684FF476
:1019A00080308860B80303D5284600F0D6F90CE0F3
:1019B000780302D544F4004407E0380302D544F428
:1019C000803402E0284600F0C7F9300707D55FEA07
:1019D000CB6004D52968102044F40074C8607007F7
:1019E0004FF0080707D55FEA0B7004D52868C76079
:1019F000284600F071F9B00706D52868C06880074E
:101A000002D0284600F06AF9700607D55FEACA607E
:101A100004D52968102044F480640861B00607D515
:101A20005FEA0A7004D528680761284600F060F96B
:101A3000F00606D528680069800702D0284600F025
:101A400058F9B00308D55FEAC96005D529681020A8
:101A50004860284600F04EF9F00307D55FEA0970A8
:101A600004D528684760284600F078F9300446D548
:101A70005FEA497040D5F00504D55FEAC87001D02F
:101A800044F00104B00504D55FEA887001D544F044
:101A90000204700504D55FEA487001D544F00404DF
:101AA000300529D518F0700F26D008F070004028B6
:101AB00015D006DC102809D020280AD0302816D1ED
:101AC0000AE050280ED0602811D10EE044F008043E
:101AD0000DE044F010040AE044F0200407E044F074
:101AE000400404E044F0800401E044F48074286879
:101AF000816921F070018161296804204860002C0F
:101B000005D0686A204368622846FFF78FFEBDE86B
:101B1000F09F70B5040003D094F8200010B104E0E9
:101B2000012070BD204600F081F82068016821F096
:101B30000201016000F004FA0546052604E000F009
:101B4000FFF9401B0A2811D8206840688007F6D4A6
:101B50002068016841F00101016000F0F1F90546DB
:101B60000BE000F0EDF9401B0A2806D9606A40F44A
:101B70000030606284F82060D2E720684068C007C7
:101B8000EFD0207E0128206801683DD021F080013F
:101B90000160607E01282068016838D021F0400192
:101BA0000160A07E01282068016833D021F0200167
:101BB0000160E07E0128206801682ED041F010010C
:101BC0000160207F01282068016829D021F00801E8
:101BD0000160607F01282068016824D021F00401A1
:101BE0000160D4E902010843D4E904121143084317
:101BF0006168491E08432168C861002060620120B5
:101C000084F82000002070BD41F08001C0E741F061
:101C10004001C5E741F02001CAE721F01001CFE7FC
:101C200041F00801D4E741F00401D9E710B586B0CE
:101C3000044614216846FEF735FB24492068884293
:101C400041D123480021026842F00072026000681E
:101C500000F0007005901E481038026842F0010242
:101C60000260006800F0010005904FF4C050009041
:101C70000220CDE901010320039009200490694668
:101C8000144800F07FF800220221132000F0E6FC47
:101C9000132000F0D5FC00220221142000F0DEFC0D
:101CA000142000F0CDFC00220221152000F0D6FC0B
:101CB000152000F0C5FC00220221162000F0CEFC09
:101CC000162000F0BDFC06B010BD0000006400400E
:101CD000403802400000024070470000024B034AB7
:101CE0000021FFF7A4BD00000A000020EC04002042
:101CF000704770477047000070B5044690F82000A8
:101D0000012804D0606A40F40020606218E00220DC
:101D100084F820002068016821F00101016000F0D2
:101D20000FF905460EE000BF00F00AF9401B0A2833
:101D300008D9606A40F400306062052084F8200011
:101D4000012070BD20684068C007EDD1606270BDA1
:101D50007047704770477047704770477047000082
:101D600070B5044600F0ECF80546601C02D004484B
:101D70000078044400F0E4F8401BA042FAD370BDA0
:101D8000140000202DE9F84FDFF874B100224FF065
:101D900001084FF0030A4FF00F090BF1040E00BFCA
:101DA0000B6808FA02F42340A3426ED14D68022D5D
:101DB00001D0122D0ED1D50800EB850CDCF8205097
:101DC0005607F70E09FA07F6B5430E69BE402E43D3
:101DD000CCF82060066855000F790AFA05FC07F078
:101DE000030726EA0C06AF40374307604E68012E12
:101DF00005D0022E03D0112E01D0122E0ED18668EE
:101E0000CF6826EA0C06AF40374387604668A64392
:101E10000C79C4F30014944034434460C4688E6861
:101E200024EA0C04AE402643C6604C68E40060D54A
:101E3000344C256845F480452560246822F003056C
:101E400004F480440094304C2E19D6F808489507C5
:101E50002F0F09FA07F5AC432C4DA84201D10025FC
:101E60001FE02B4DA84201D101251AE0294DA842BF
:101E700001D1022515E0284DA84201D1032510E02B
:101E8000264DA84202D104250BE032E0244DA842A1
:101E900001D1052505E0234DA84201D1062500E02A
:101EA0000725BD402543C6F80858DBF800405D46CD
:101EB0004E689C43F60300D51C432C60DEF80040BE
:101EC00075464E689C43B60300D51C432C600C4DF0
:101ED00008352C684E689C43F60200D51C432C60E4
:101EE000074D0C352C684E689C43B60200D51C4348
:101EF0002C60521C102AFFF453AFBDE8F88F00008D
:101F0000003C0140443802400030014000000240E3
:101F10000004024000080240000C02400010024091
:101F20000014024000180240426931EA020200D166
:101F30000904816170470AB1816170470904FBE7B8
:101F400001488068704700001400002070B504004C
:101F50001BD094F83D00002520B984F83C50204661
:101F600000F0E0FA242084F83D002068016821F0A8
:101F70000101016000F03CFC4D4A6168914201D8CA
:101F80004C4900E04C49884201D2012070BD4B49C8
:101F90002368B0FBF1F15E6826F03F060E435E60F9
:101FA0006368934206D94FF4967359434FF47A739A
:101FB000B1FBF3F12368491C1E6A26F03F0631434A
:101FC00019626168914210D84900401EB0FBF1F2DD
:101FD000521CC2F30B02042A01D2042022E0B0FBFF
:101FE000F1F0401CC0F30B001CE0A368F3B301EB5D
:101FF000C10202EB0116421EB2FBF6F2521C42F481
:102000008042120549D093B301EBC10202EB0111EA
:10201000401EB0FBF1F0401CC0F30B0040F48040C8
:1020200040F400402168CA694CF6FF739A4310439C
:10203000C861D4E90701084321680A6822F0C00298
:1020400010430860D4E9030101432068826848F224
:10205000FF339A4311438160D4E9050108432168A5
:10206000CA6822F0FF021043C86001E00EE016E0EB
:102070002068016841F0010101602564202084F896
:102080003D00256384F83E50002070BD01EB410601
:10209000421EB2FBF6F2521CB3E70120C2E701EB8D
:1020A0004101401EB0FBF1F0401CC0F30B00B7E74C
:1020B000A086010080841E0000093D0040420F0000
:1020C0002DE9FF4F81B089460446FFF739FF0546E9
:1020D00094F83D004FF0010820287AD119230122FD
:1020E0004B492046009500F087FF002871D194F8F5
:1020F0003C0001286DD0012084F83C002068016874
:10210000C90703D1016841F001010160206801683D
:1021100021F400610160242084F83D00002626643B
:102120003C48E0624FF0011B20272068016841F421
:10213000807101600095002259462046049B00F002
:102140005BFF002856D1216809F0FE000861FFF707
:10215000F7FE2168054648694969C0F34000C1F3AC
:1021600080214FF0A00A0FE0FFF7EAFE411B049820
:10217000814200D808B984F83DA0216848694969BE
:10218000C0F34000C1F3802194F83D20A02A02D082
:1021900008B90029E8D084F83D7020684169C94336
:1021A000890717D4016841F4007101602068416912
:1021B00080691923012216492046009500F01CFF72
:1021C000C0B984F83D7084F83C60002005B0BDE8DB
:1021D000F08F1BE0016841F40071016021686FF429
:1021E000806048611923012209492046009500F0CA
:1021F00003FF08B10120E9E7039808F101088045D1
:1022000093D384F83D7084F83C60F3E70220DDE767
:10221000020010000000FFFF2DE9F84F1F46904616
:102220008A460446DDF82890FFF78AFE054694F8B2
:102230003D00202875D1192301226C4920460095C4
:1022400000F0DAFE0028F5D194F83C00012868D0AF
:10225000012084F83C0020680168C90703D10168A7
:1022600041F0010101602068016821F40061016012
:10227000222084F83D00102084F83E0000262664C9
:10228000C4F824806785608D20855948E0622B461C
:102290004A465146204600F0DAFD002878D1208DCC
:1022A000544F68B1012814D002282068016816D064
:1022B00041F480610160206841698069009087E095
:1022C0002068416981690091016841F400710160F1
:1022D0007EE02068016821F480610160F0E721F46C
:1022E000806101602068016841F40061E2E7032831
:1022F00048D801280AD0022814D04B46002239467B
:102300002046009500F078FED8BB27E02A464946D3
:10231000204600F0F0FEA0BB20680069616A0870EA
:102320004DE061E04B46002239462046009500F022
:1023300063FE30BB2068016841F4007101602068D1
:102340000069616A0870606A401C6062218D491EE4
:102350002185618D491E618521682EE02068016814
:1023600021F48061016020680069616A0870606A18
:10237000401C6062208D401E2085608D401E60855F
:10238000D0E705E02A464946204600F0B4FE10B1E9
:102390000120BDE8F88F20680069616A0870606AF2
:1023A000401C6062218D491E2185618D491E618519
:1023B00021684A69D24352070AD409690170606AE8
:1023C000401C6062208D401E2085608D401E60850F
:1023D000208D00288BD1202084F83D0084F83E60B9
:1023E00084F83C600020D4E70220D2E7020010000D
:1023F0000000FFFF040001002DE9F84F1F46904642
:102400008A460446DDF82890FFF79AFD054694F8C1
:102410003D0020287FD11923012240492046009504
:1024200000F0EAFD002876D194F83C00012872D033
:10243000012084F83C0020680168C90703D10168C5
:1024400041F0010101602068016821F40061016030
:10245000212084F83D00102084F83E0000262664E8
:10246000C4F824806785608D20852D48E0622B4666
:102470004A465146204600F055FD90B92068416912
:102480008069009036E02A464946204600F066FE04
:1024900050B1206C042804D12068016841F4007117
:1024A00001600120BDE8F88F606A2168007808614A
:1024B000606A401C6062618D491E6185218D491EE4
:1024C00089B2218522685369DB435B070BD451B184
:1024D00000781061606A401C6062608D401E6085FB
:1024E000208D401E20852A464946204600F05EFD8C
:1024F0000028CED1208D0028C5D154F83D0B0168AD
:1025000041F400710160202004F81E09E677667727
:102510000020C7E7FFE70220C4E700000200100028
:102520000000FFFF10B586B0044614216846FDF791
:10253000B9FE13492068884220D11248016841F051
:10254000020101600068694600F002000590C020A9
:10255000009012200190012002900320039004209B
:1025600004900948FFF70EFC06481030016841F45A
:1025700000110160006800F40010059006B010BD65
:102580000054004030380240000402400248816894
:102590000278114481607047140000200B4810B588
:1025A000016841F400710160016841F480610160DB
:1025B000016841F480710160032000F06FF8002091
:1025C00000F006F800F024F8002010BD003C0240A6
:1025D00070B50D4D04464FF47A712878B1FBF0F0D8
:1025E0000A490968B1FBF0F000F0D4FA48B9102CA0
:1025F00007D200222146501E00F030F800206C6007
:1026000070BD012070BD00001400002020000020DB
:102610000A4808B5016841F480410160006800F48F
:10262000804000900548001F016841F08051016022
:10263000006800F08050009008BD0000443802405F
:10264000002809DB00F01F020121914040098000B1
:1026500000F1E020C0F8001170470000F0B40E4B0C
:102660001B680C46C3F30223C3F10705042D00D9F0
:102670000425191D072901D2002300E0DB1E0126D5
:1026800006FA05F1491E214099409E40761E1640EB
:102690003143F0BC00F079BF0CED00E0064900F0DA
:1026A000070208684FF6FF03184040EA0220034A79
:1026B00010430860704700000CED00E00000FA05D0
:1026C0002DE9F0470E46050065D0DFF81481D8F8F3
:1026D0000000F7B200F00F00B04207D288F8007097
:1026E000D8F8000000F00F00B04254D128683D4CEB
:1026F000810712D5400703D5206840F4E0502060E0
:102700002878000703D5206840F4604020602068E6
:10271000A96820F0F000084320602878C0072DD079
:10272000304968680839012812D0022813D00328DC
:1027300011D00968890700292DDA216821F00301E9
:1027400001432160FFF7FCFB814641F2883A0EE02D
:1027500009688903EFE709688901ECE7FFF7F0FBF7
:10276000A0EB0901514502D90320BDE8F08720689C
:10277000696800F00C00B0EB810FEFD1D8F80010C1
:10278000404601F00F01B14207D90770006800F020
:102790000F00B04201D00120E7E72878400705D5B7
:1027A0002068E96820F4E05008432060287800079A
:1027B00006D52068296920F4604040EAC100206005
:1027C00000F026F82168084AC1F30311515CC840A3
:1027D000064908600020FFF7FBFE0020C5E7000067
:1027E000003C02400838024042520008200000200D
:1027F0000448054900680968044AC1F38221515C14
:10280000C84070472000002008380240525200089B
:10281000154810B5006810F00C02144813D0411090
:10282000042A0FD0082A0ED10F4C241F22682368D7
:1028300002F03F025B0207D52068C0F38810A0FBBE
:10284000010106E0084610BD2168C1F38811A1FB13
:1028500000010023FDF7DCFC2168C1F30141491CA4
:102860004900B0FBF1F010BD083802400024F4002C
:102870002DE9F84F05460078DFF800B3C04CC007DB
:102880004AD0DBF800105846C1F38101012908D075
:102890000068C0F3810002280AD1201D00684002B0
:1028A00006D52068800337D56868002872D033E0E9
:1028B0006868B0F5803F10D0B0F5A02F206810D028
:1028C00020F480302060206820F480202060686838
:1028D000A8B1FFF735FB06460DE0206840F48030D4
:1028E000F4E740F480202060F7E700BFFFF728FB03
:1028F000801B64286FD820688003F7D50CE0FFF7B1
:102900001FFB064605E000BFFFF71AFB801B64288B
:10291000F0D820688003F7D42878DFF86882800731
:102920004FF0000940D5DBF80010584611F00C0FAD
:1029300009D00068C0F3810002280BD18F48001F26
:102940000068400206D42068800715D5E868012891
:1029500020D111E0E868B8B10120C8F80000FFF705
:10296000EFFA064605E000BFFFF7EAFA801B0228EF
:10297000C0D820688007F7D52068296920F0F800C2
:1029800040EAC10020600FE0C8F80090FFF7D8FAD5
:10299000064606E0EFE000BFFFF7D2FA801B0228F0
:1029A00019D820688007F7D42878000722D5734EFD
:1029B000754869696C3679B101210160FFF7C0FA89
:1029C000074604E0FFF7BCFAC01B022803D83068B2
:1029D0008007F7D50EE089E0C0F80090FFF7B0FA65
:1029E000074604E0FFF7ACFAC01B02287ED8306827
:1029F0008007F7D42878400768D5DFF880A1002742
:102A00000AF1380ADAF80000C0000BD4DAF8001036
:102A100041F08051CAF80010DAF80000012700F0F8
:102A200080500090594E3068C00510D4306840F492
:102A300080703060FFF784FA009005E0FFF780FABD
:102A40000099401A022851D83068C005F6D54B4E7F
:102A5000A868683601280FD00528306810D020F00B
:102A600001003060306820F004003060A868B8B120
:102A7000FFF766FA00900FE0306840F00100F4E7DD
:102A800040F004003060F7E7FFF75AFA0099411A66
:102A900041F28830814266D830688007F4D50EE074
:102AA000FFF74EFA009007E0FFF74AFA0099411A43
:102AB00041F28830814256D830688007F4D42FB173
:102AC000DAF8001021F08051CAF80010A869D0B3DC
:102AD000DBF80010C1F3810102294CD002284846DE
:102AE00007D0C8F86000FFF72BFA00E03BE005468E
:102AF0003CE04746C8F86000FFF722FA064604E0CB
:102B0000FFF71EFA801B02282DD820688001F7D419
:102B1000F5E907010843E9681D4A490802EB01414C
:102B2000AA6841EA82110843297C40EA0160297DB4
:102B300040EA01711148001F016001203866FFF76B
:102B4000FFF9054605E014E0FFF7FAF9401B0228FB
:102B500009D820688001F7D50BE000BFFFF7F0F936
:102B6000401B022802D90320BDE8F88F20688001AD
:102B7000F4D40020F8E70120F6E70000083802400E
:102B80000038024000004742800E4742007000407B
:102B90000000FFFF10B5401EB0F1807F01D301207F
:102BA00010BD4FF0E02460610F21601700F0EDFCD4
:102BB0000020A06107202061002010BD70477047F1
:102BC00070B590F83C20012A19D0012400F83C4F40
:102BD0000222427050F83C3C5A689D6822F0700610
:102BE0000A684968324325F0800529435A6050F845
:102BF0003C2C9160447000210170084670BD022099
:102C000070BD10B5040003D094F83D0010B107E08A
:102C1000012010BD002084F83C00204600F00CF894
:102C2000022084F83D00211D206800F031FC0120C5
:102C300084F83D00002010BD08B500680B498842AB
:102C400012D10B48016841F01001016000680022B8
:102C500000F01000009001213620FFF7FFFCBDE8D6
:102C600008403620FFF7ECBC08BD00000010004013
:102C7000403802400168CA6842F00102CA60006838
:102C8000816801F00701062903D0016841F00101C4
:102C9000016000207047704770B504460068016904
:102CA0004FF00005C943890715D4C168C943890796
:102CB00011D4E91E01610120207720688069800716
:102CC000204602D0FFF7E7FF04E000F098F8204626
:102CD00000F096F8257720680169C943490717D4A1
:102CE000C168C943490713D46FF004010161022090
:102CF00020772068806910F4407F204602D0FFF7DB
:102D0000CAFF04E000F07BF8204600F079F8257750
:102D100020680169C943090716D4C168C943090776
:102D200012D46FF008010161042020772068C06987
:102D30008007204602D0FFF7AEFF04E000F05FF806
:102D4000204600F05DF8257720680169C943C9066F
:102D500017D4C168C943C90613D46FF010010161CB
:102D6000082020772068C06910F4407F204602D0F8
:102D7000FFF791FF04E000F042F8204600F040F831
:102D8000257720680169C943C90708D1C168C943CB
:102D9000C90704D1891E0161204600F033F820687C
:102DA0000169C943090609D4C168C943090605D4A4
:102DB0006FF0800101612046FFF700FF2068016984
:102DC000C943490609D4C168C943490605D46FF00F
:102DD00040010161204600F021F820680169C943E3
:102DE00089060BD4C168C943890607D46FF0200156
:102DF00001612046BDE87040FFF7E1BE70BD70473D
:102E00007047000000680349884202D1024801F07F
:102E100015BF704700100040280000207047FEE7F3
:102E200001684A69D24352050FD46FF480624A6147
:102E3000002140F8301F202242738173026942F062
:102E400004020261017301207047002070472DE9E0
:102E5000F84F0446C06A1E4692460D4621680A682D
:102E600042F480620A60082807D0012805D010F5D6
:102E7000803F02D0206B112804D12068016841F402
:102E8000807101604FF001185346002241462046F0
:102E9000009600F0B1F8F0BB206908F10109B0F527
:102EA000804F0FD00620216800EAD51747F0F000C8
:102EB00008613346524608F10701204600F0D0F879
:102EC00048BB03E0E8B240F001001BE02168E8B233
:102ED0000861334652464946204600F0C1F8D0B951
:102EE0002068416981690091016841F48071016045
:102EF0005346002241462046009600F07DF850B926
:102F000047F0F100216808613346524649462046A1
:102F100000F0A6F800E001E0002800D00120BDE8A4
:102F2000F88F0000F8B50446C06A1E460D461746E5
:102F3000082807D0012805D010F5803F02D0206B6B
:102F4000122804D12068016841F4807101601346A1
:102F500000224FF001112046009600F04DF808BB0A
:102F60002069B0F5804F0ED00620216800EAD51008
:102F700040F0F000086133463A460B49204600F025
:102F80006FF878B902E005F0FE0000E0E8B22168D1
:102F90000861054933463A46891F204600F060F82B
:102FA000002800D00120F8BD0800010070B51646C9
:102FB0000D4604460DE02046FFF732FF08B1012020
:102FC00070BD681C05D0FEF7BBFF801BA84207D868
:102FD00035B120684069C0434007ECD4002070BD83
:102FE000002044F8300F20216173A073216941F063
:102FF000200121612073E2E72DE9F0471E4690464B
:103000000D460446C1F30747DDF8209008E0701C28
:1030100006D0FEF795FFA0EB0900B0420FD876B1BD
:103020002068012F18D0806925EA00000004000CF8
:1030300014D000214145EAD00020BDE8F0870020EF
:1030400044F8300F20216173A073216941F0200101
:10305000216120730120F0E74069E5E70121E9E7FC
:103060002DE9F0479A4691460E46044600254FF05A
:103070002008C1F3074725E020684069C0434005A8
:1030800014D42068016841F40071016021686FF474
:1030900080604861256384F83D8084F83E50206C50
:1030A00040F00400206484F83C501FE0B9F1FF3F79
:1030B00008D0FEF745FFA0EB0A0149450CD8B9F14D
:1030C000000F09D02068012F13D0806926EA000084
:1030D0000004000C0BD0CFE744F8305F84F80D807B
:1030E000A573206940F02000206125730120BDE810
:1030F000F0874069EAE72DE9F041002590460E4649
:103100000446202717E04069C043C0060CD454F899
:10311000301B6FF01000486144F810596777A577AD
:10312000206A2062257717E0FEF70AFFA0EB08006F
:10313000B04208D83EB120684169C9434906E2D48B
:103140000020BDE8F08144F8305F6773A573206903
:1031500040F02000206125730120F2E770B516468B
:103160000D4604460DE02046FFF75AFE08B1012047
:1031700070BD681C05D0FEF7E3FE801BA84207D88F
:1031800035B120684069C0430006ECD4002070BD12
:10319000002044F8300F20216173A073216941F0B1
:1031A000200121612073E2E72DE9F0411F4F002447
:1031B000224640213846FEF7BEFE1D4D4FF4004624
:1031C000002231462846FEF7B6FE4FF48048002222
:1031D00041462846FEF7AFFE6420FEF7C1FD0122FE
:1031E00040213846FEF7A7FE012231462846FEF769
:1031F000A2FE012241462846FEF79DFE6420FEF70E
:10320000AFFD002240213846FEF795FE00223146F0
:103210002846FEF790FE002241462846FEF78BFE28
:10322000641CE4B2052CD7D3BDE8F081000802404D
:10323000000402400E4810B50C49016005214160B0
:1032400000214FF4E0228160C0E903124161017660
:1032500041768176C17601774177FEF75AFC0028E6
:1032600003D0BDE81040FEF7DAB910BD006400409D
:1032700020050020F0B587B014216846FDF712F84C
:1032800024480024016841F080010160016801F0D8
:1032900080010591016841F002010160016801F0BF
:1032A00002010591016841F004010160016801F02B
:1032B00004010591016841F0010101600068164EAA
:1032C00000F001004FF440450590012229463046A8
:1032D000FEF731FE114F012240213846FEF72BFE4A
:1032E0000022E9113846FEF726FE00950125CDE9BA
:1032F0000154694630460394FEF744FD4FF4E070F4
:103300000090CDE90154694638460394FEF73AFD32
:1033100007B0F0BD3038024000040240000802400F
:103320000D4810B50B4901600C49416000214FF474
:1033300080428160C0E9031241618161C161016223
:10334000FEF704FE002803D0BDE81040FEF767B981
:1033500010BD00000054004048050020801A0600FF
:103360001CB500240E4800940C490194016042F2FF
:103370000F71C0E9011463218461C160FFF741FC52
:1033800008B1FEF74CF90094694605480194FFF72F
:1033900017FC002801D0FEF742F91CBD00100040C8
:1033A0009C050020FEE7704770477047FFF7EEB8B6
:1033B00030B593B034216846FCF774FF14210DA892
:1033C000FCF770FF18480025016841F0805101604A
:1033D000006800F0805012901448016841F44041A8
:1033E00001600068022400F4404012900120009027
:1033F000000401908001CDE906400420089064207B
:10340000CDE909040B9468460C94FFF731FA0DA935
:103410000F2081E83100E002CDE9100503210DA85D
:10342000FFF74EF913B030BD403802400070004045
:103430001048016841F4700101600F48016841F0D3
:10344000010101600C4A00210832116002680B4B37
:103450001A400260031D0A4A1A60026822F48022A0
:10346000026005480C300160024958068039086046
:103470007047000088ED00E000380240FFFFF6FED4
:10348000103000240148FFF707BC00009C05002015
:10349000F0B50268254C264D264E274F274B4FF09E
:1034A000804CA04209D0604507D0A84205D0B04268
:1034B00003D0B84201D0984204D122F0700E4A687D
:1034C00042EA0E02A0421BD0604519D0A84217D094
:1034D000B04215D0B84213D0984211D0184DA8422E
:1034E0000ED0184DA8420BD0174DA84208D0174D4A
:1034F000A84205D0164DA84202D0164DA84203D1CD
:1035000022F44075CA682A434D6922F080022A439A
:1035100002608A68C2620A688262A04201D0984250
:1035200001D10969016301214161F0BD0000014041
:103530000004004000080040000C0040000401406E
:103540000040014000440140004801400018004094
:10355000001C004000200040FEE703B40198410039
:10356000009850EAC12018BF04204A0D18BF40F04F
:10357000010040F2FF72B2EB515F08BF40F0020061
:10358000012808BF052002B070470907090E00286E
:1035900004DB00F1E02080F80014704700F00F0019
:1035A00000F1E02080F8141D7047000000000000CA
:1035B00070B5C1482DED020B2DED0E8B82B0119D23
:1035C00025F000449FEDBEDB9FEDBFEB84423EDB68
:1035D000A4F140511098A1F17F6108430FD0BC487D
:1035E000844202DC28D1109830B39DED100B02B05C
:1035F000BDEC0E8B02B0BDE8704001F0A9BA9DEDA4
:10360000100B53EC1D2B51EC100BFCF756FE9DEDEF
:10361000100B41EC180B53EC1E2B51EC100BFCF76C
:103620004CFE53EC182BFCF7D9FF41EC100B02B009
:10363000BDEC0E8B02B070BD012001F0DDFA02B0CE
:10364000BDEC0E8B02B0BDE8704001F095BAA14808
:103650009FEDA18B844256DA9DED100BB4F1795F9A
:103660000ADA51EC100BFFF778FF042808BF01F0CD
:10367000A3FA9DED100BDAE753EC102B51EC100B75
:10368000FCF71BFE41EC190B95480621B0EE490AE8
:10369000F0EE690A784401F0C7F953EC192B51ECAC
:1036A000100BFCF70AFE41EC1A0B8E48B0EE490AEB
:1036B000F0EE690A0421784401F0B6F953EC192BB5
:1036C00051EC100BFCF7F9FD53EC182BFCF786FFBF
:1036D00041EC100B51EC1A0B53EC102BFDF725F8B5
:1036E000CDE900019DED000B53EC102B9DED100B6F
:1036F00051EC100BFCF7E1FD9DED101B53EC112B71
:10370000FCF76CFFD2E09DED100B51EC100B01F0BB
:103710000DFB53EC182BFDF705F89FED730BCDE96E
:10372000000153EC102B9DED000B51EC100BFCF73E
:10373000C4FD41EC190B6E480621B0EE490AF0EECB
:10374000690A784401F070F953EC192B51EC100B15
:10375000FCF7B3FD41EC1B0B6648B0EE490AF0EEF6
:10376000690A0421784401F05FF953EC192B51ECFC
:10377000100BFCF7A2FD53EC182BFCF72FFF41ECCC
:103780001C0B51EC190B01F025FD41EC180B5A48AC
:103790009FED5BABA04222DC53EC1C2B51EC1B0BCE
:1037A000FCF7C3FFCDE900019DED000B51EC180BB8
:1037B00053EC102BFCF781FD53EC182BFCF70EFF9C
:1037C00053EC1A2BFCF779FD53EC1D2BFCF7A7FFEC
:1037D00053EC1E2BFCF7A6FF41EC100B5FE08DEDC8
:1037E000008B002000909DED000B51EC180B53EC6A
:1037F000102BFCF7F3FE9DED000B41EC1E0B53EC80
:10380000102B51EC100BFCF758FD53EC192BFCF767
:1038100089FF53EC1E2BFCF788FF41EC190B53EC8E
:103820001C2B51EC1B0BFCF780FF41EC1B0B53ECEA
:103830001A2B51EC190BFCF740FD53EC1D2BFCF738
:1038400071FF41EC190B53EC1A2B51EC180BFCF7E0
:1038500034FD53EC1B2BFCF730FD53EC192BFCF71C
:103860005EFF9DED000B41EC180B53EC1A2B51EC55
:10387000100BFCF722FD9FED249B53EC192BFCF75A
:1038800051FF41EC100B51EC180B53EC102BFCF7D3
:1038900046FF53EC192BFCF745FF41EC100B002DB4
:1038A0003FF7C5AE51EC100B81F0004141EC100B1D
:1038B000BDE60000000000000000F03F0000000036
:1038C000075C143326A6913C182D4454FB21F93F84
:1038D0000000F07F0000E03F000000000000F03F2B
:1038E000C81B0000D61B0000000000000000E03FE5
:1038F0001A1B0000281B00003333EF3F00000000BC
:103900000000000000000040182D4454FB21E93F56
:1039100070B59B482DED020B2DED068B079D25F014
:103920000044A04218DC9748844202DC0AD1069881
:1039300040B19DED060BBDEC068B02B0BDE87040BA
:1039400001F006B9002DCCBF9FED8F0B9FED900BC2
:10395000BDEC068B02B070BD8F48A04215DD8F48CC
:10396000A042D8BF4FF0FF3458DD9DED060B51EC5F
:10397000100BFFF7F2FD042808BF01F01DF99DEDC3
:10398000060BBDEC068B02B070BD9DED060B51EC35
:10399000100B01F0CBF9CDE9060181489FED828B38
:1039A000A0423CDD8248A0421FDD00249FED82AB97
:1039B0009DED060B53EC1A2B51EC100BFCF70EFE91
:1039C0009DED060B41EC190B53EC1A2B51EC100B2F
:1039D000FCF773FC53EC182BFCF7A1FE53EC192BEE
:1039E000FCF7A3FECDE9060149E09DED060B01249D
:1039F00053EC182B51EC100BFCF7F0FD9DED060B72
:103A000041EC190B53EC182B51EC100BFCF787FE13
:103A100053EC192BFCF789FECDE906012FE068482D
:103A2000A0421FDD02249FED689B9DED060B53EC29
:103A3000192B51EC100BFCF740FC53EC182BFCF746
:103A4000CDFD9DED060B41EC180B53EC192B51EC01
:103A5000100BFCF764FE53EC182BFCF766FECDE967
:103A600006010CE09DED060B032453EC102B9FED9B
:103A7000580B51EC100BFCF758FECDE906019DEDFB
:103A8000060B53EC102B51EC100BFCF716FC41EC21
:103A9000180B53EC182BFCF710FC41EC190B4E489B
:103AA0000621B0EE490AF0EE690A784400F0BCFF46
:103AB00053EC182B51EC100BFCF7FFFB41EC180BEF
:103AC0004648B0EE490AF0EE690A0521784400F054
:103AD000ABFF53EC192B51EC100BFCF7EEFB41EC58
:103AE000100B51EC180B53EC102B002C0EDAFCF7DA
:103AF00075FD9DED061B53EC112BFCF7DEFB9DEDD8
:103B0000061B53EC112BFCF70DFE35E0FCF766FDB0
:103B10009DED061B53EC112BFCF7CFFB41EC100B7A
:103B20002F48784400EBC40090ED001B51EC100BC3
:103B300053EC112BFCF7F3FD9DED061B53EC112B01
:103B4000FCF7EDFD41EC100B2648784400EBC40077
:103B500090ED001B51EC100B53EC112BFCF7E2FD28
:103B600041EC100B002DA2BFBDEC068B02B070BD66
:103B700051EC100B81F0004141EC100B01E700000B
:103B8000000010440000F07F182D4454FB21F93F41
:103B9000182D4454FB21F9BF0000DC3F0000203EFB
:103BA0000000F33F00000000000000000000F03FB4
:103BB0000000E63F000000000000000000000040A0
:103BC0000080034000000000000000000000F83FFB
:103BD000000000000000F0BFF2180000A81800006C
:103BE00032180000EA17000070B56B4E2DED040B83
:103BF0002DED028B82B0DDF81CC0DDE905235C42AF
:103C00002CF000411C4341EAD474049D22F0004092
:103C1000B44205D86C422C4340EAD474B4420BD968
:103C20009DED061B9DED040B02B0BDEC028B04B0B4
:103C3000BDE8704000F096BFACF14054A4F17F6441
:103C40001C430BD0022404EAAC7444EAD27405434A
:103C50009FED538B9FED542B07D015E09DED040B8A
:103C600051EC100B00F0CEFF42E0002C11BF012CF4
:103C70009DED040B02B0BDEC028B04BF04B070BD1F
:103C8000022C38D0032C3BD00B439FED491B9FEDFA
:103C90004A0B0AD0B14218D1B04209D121F080417B
:103CA00020F08040079105900FE0002A15DA10E01F
:103CB000434B7B44002C08BF93ED000B0DD0012C2F
:103CC00010D0022C17D0032C1AD0B0421DD1002ADC
:103CD00003DAB0EE410AF0EE610A02B0BDEC028BED
:103CE00004B070BD93ED000B51EC100B81F000415E
:103CF00041EC100BF1E7B0EE480AF0EE680AECE791
:103D0000B0EE420AF0EE620AE7E7401A00153C28DE
:103D1000C8BF8DED000B19DCBCF1000FBEBF10F168
:103D20003C0F9FED290B8DED000B0FDB9DED060B7E
:103D300053EC102B9DED040B51EC100BFCF7F5FC34
:103D400000F0F4FF00F05EFFCDE90001002C08BF99
:103D50009DED000BC1D0012C10D0022C9FED1C0B4F
:103D600053EC102B9DED000B51EC100B0DD0FCF71C
:103D7000D6FC53EC182BFCF7D2FCB9E7019880F085
:103D8000004001909DED000BA7E7FCF7C8FC53EC49
:103D9000182BFCF7C7FCABE70000F07F0000000029
:103DA000182D4454FB210940182D4454FB2109C00F
:103DB000182D4454FB21F9BF182D4454FB21F93F21
:103DC0001A170000000000000000000000000000C2
:103DD000075C143326A6A13C2DE9F04D2DED040B14
:103DE0002DED0E8B96B0DDE92550279CDDF890A0D7
:103DF00025F0004624F00048BAF1000F14BF01215D
:103E0000002101EB4502FC4953184A1093422AD382
:103E1000002814BF0123002303EB44030B44F7499C
:103E20008B4220D358EA00019FEDF59B76D0DFF856
:103E3000D8B35D4503D1BAF1000F05D188E0BAF1DE
:103E4000000F08BF002100D0012101EB450111F551
:103E5000001F08D8002814BF0121002101EB4401F4
:103E600011F5001F0BD99DED261B9DED240B16B0FF
:103E7000BDEC0E8B04B0BDE8F04D00F073BE002722
:103E8000002DBCBFE149884521DAE1498845A8BF3A
:103E900002271CDAC3451ADCDE4901EB285114293C
:103EA00008DDC1F1340220FA02F101FA02F2824285
:103EB0000DD108E058B9C1F1140228FA02F101FA53
:103EC00002F2424503D101F00101C1F1020756EAB5
:103ED0000A0124D1002C22DA002D18BF022F01D0B4
:103EE000012F0AD0022000F087FE16B0BDEC0E8B29
:103EF00004B0BDE8F04D00F013BE022000F07CFEDF
:103F000000F00EFE51EC100B81F0004141EC100B63
:103F100016B0BDEC0E8B04B0BDE8F08D18E09FED3F
:103F2000BEAB9FEDBF8B002871D1B848804522D130
:103F300005F1804010F5801008BFBAF1000F07D0DE
:103F4000B3450ADC002CA8BF9DED260BE0DA0DE09E
:103F5000B0EE490AF0EE690ADAE7002C06DA9DEDC8
:103F6000260B51EC100B81F000416FE0AE48784415
:103F700090ED000BCCE7D8454DD1002C48DA2EB19E
:103F800086423AD1BAF1000F42D126E0BAF1000FD1
:103F900013D0022000F030FE00F0FEFD8DED020B8C
:103FA0009DED240B8DED000B10EE900A039961F34B
:103FB0001E0003909DED020BAAE78DED02AB9DED77
:103FC000240B1AEE901A10EE900A8DED000B61F39F
:103FD0001E0003909DED020B9AE78DED028B9DED87
:103FE000240B18EE901A10EE900A8DED000B61F381
:103FF0001E0003909DED020B8AE709DA9DED240B6C
:1040000051EC190B53EC102BFCF78FFB1EE020E05A
:104010009DED240B7CE786421BDAB4F1804F0DD076
:10402000A4F10050B0F1FF5013D1002D11DB9DED34
:10403000240B51EC100B01F0CDF807E09DED240BA3
:1040400053EC102B51EC100B00F0C2BC41EC100BE8
:104050005EE79DED240B51EC100B00F067FEBAF10A
:10406000000FCDE90E0142D19FED710B46B3A6F1D1
:10407000E040B0F17F600CD05E4538D1002D00DA11
:10408000A7B3022F0CBF01204FF0FF30FCF787F9D8
:10409000DCE7002D01DD002C0DDA002D01DD002C08
:1040A0001FDB002D16DA002C14DB012F08BF9FED5B
:1040B000620B3FF42DAFB0EE4A0AF0EE6A0A27E732
:1040C000022F18BF002D0CD0012F0AD1002DFFF6B2
:1040D0001FAF06E0002DB8BF002C08DA012F3FF417
:1040E00017AFB0EE480AF0EE680A11E71BE00120B6
:1040F00000EBE57050EA070115D0791EB0EE498A51
:10410000F0EE698A084308BF9FED4D8B4E480025AD
:10411000804570DD4D494E48884514DDB0420DDBC9
:10412000002C19DB2FE0012000F066FD16B0BDEC7D
:104130000E8B04B0BDE8F04D00F01EBDB34502DCAF
:10414000002C09DC1FE0864202DA002C1BDA03E0B7
:104150005E452BDD002C16DD022000F04DFD00F049
:104160001BFD8DED020B53EC1A2B51EC180BFCF7D9
:10417000A4F8CDE900010399019861F31E000390B2
:104180009DED020BC4E6022000F036FD00F014FDA8
:1041900010EE901A18EE900A8DED020B8DED008B4B
:1041A00061F31E0003909DED020BB1E69DED0E0B39
:1041B00053EC192B51EC100BFCF7B1FA9FED260BC9
:1041C000CDE9080153EC102B9DED080B51EC100BC1
:1041D000FCF773F89FED221B53EC112BFCF7A2FAAE
:1041E0009DED081B53EC112BFCF767F89FED1E1B90
:1041F00053EC112B3CE08CE0FFFF1F00FFFF0F0092
:10420000000000000000F03F0000F03F0000F07FE1
:104210000000404301FCFFFF000000000000F07FB1
:1042200000000000000000005E140000000000001C
:104230000000000000000080000000000000F0FF0F
:10424000000000000000F0BF0000E0410000F0436B
:10425000FFFFEF3F00000000000000000000D03F23
:10426000555555555555D53F000000000000E03F1D
:10427000FCF758FA9DED080B41EC1A0B53EC102B90
:1042800051EC100BFCF719F853EC1A2BFCF715F84E
:1042900041EC1A0B9FEDFE0B53EC102B9DED080B20
:1042A00051EC100BFCF709F841EC1B0B9FEDFA0BDE
:1042B00051EC1A0B53EC102BFBF7FFFF41EC1A0BE0
:1042C0009FEDF70B53EC102B9DED080B51EC100BF1
:1042D000FBF7F3FF53EC1A2BFCF721FA41EC1A0B16
:1042E00051EC1B0B53EC1A2BFCF778F90690CDE937
:1042F00006519DED060B53EC1B2B51EC100BFCF7FC
:104300000EFA53EC1A2BFCF70DFA41EC100B00F0EF
:10431000A1B90020B6F5801F0EDA9FEDE30B53EC38
:10432000102B9DED0E0B51EC100BFBF7C6FFCDE9EA
:104330000E016FF034000E4600EB2650A0F2FF375E
:10434000C6F31300DA4940F07F6646F040568842D3
:10435000D8BF002408DDD7498142C8BF012403DC4F
:104360000024A6F580167F1CD348784400EBC400D7
:104370000F9690ED00CB9DED0E0B53EC1C2B51ECEA
:10438000100BFCF7CCF99DED0E0B41EC1B0B53EC25
:104390001C2B51EC100BFCF721F941EC100B51ECEC
:1043A000190B53EC102BFCF7C0F941EC1D0B51EC31
:1043B0001B0B53EC1D2BFBF780FF41EC1A0BBF4886
:1043C0008DED10AB7844109590ED000B4FF0005040
:1043D00040EA660000EB84408DED080B00F50020FC
:1043E00009909DED080B53EC1C2B51EC100BFCF7C6
:1043F00096F99DED0E1B53EC112BFCF793F941EC54
:10440000100B53EC102B9DED100B51EC100BFBF728
:1044100054FF9DED080B41EC1C0B53EC102B9DED54
:10442000100B51EC100BFBF748FF53EC1B2BFCF768
:1044300079F953EC1C2BFCF772F953EC1D2BFBF7AD
:104440003CFF41EC1C0B53EC1A2B51EC1A0BFBF705
:1044500034FF41EC1B0B9A480621B0EE4B0AF0EEFC
:104460006B0A784400F0E0FAB0EE401AF0EE601A01
:10447000B0EE41DAF0EE61DA53EC1B2B51EC1B0B82
:10448000FBF71BFF53EC1D2BFBF717FF9DED100BEC
:1044900041EC1B0B53EC1A2B51EC100BFCF79EF864
:1044A00053EC1C2BFBF709FF53EC1B2BFCF796F886
:1044B0009DED100B41EC1B0B53EC102B51EC100B32
:1044C000FBF7FBFE41EC1D0B9FED7FEB53EC1E2B2E
:1044D000FCF784F853EC1B2BFCF780F80890CDE92F
:1044E00008519DED080B53EC1E2B51EC100BFCF703
:1044F00016F953EC1D2BFCF712F953EC1B2BFCF7B0
:1045000011F99DED080B41EC1D0B53EC102B9DEDAB
:10451000100B51EC100BFBF7D0FE41EC1B0B53ECD6
:104520001A2B51EC1D0BFBF7C8FE9DED080B41EC5F
:104530001A0B53EC102B51EC1C0BFBF7BEFE53EC8B
:104540001A2BFCF74BF841EC1A0B51EC1B0B53ECFC
:104550001A2BFCF743F80C90CDE90C519DED0C0B98
:1045600053EC1B2B51EC100BFCF7D9F853EC1A2B26
:10457000FCF7D8F841EC1B0B9FED550B53EC102BBF
:104580009DED0C0B51EC100BFBF797FE41EC1A0B59
:104590009FED510B51EC1B0B53EC102BFBF78DFED9
:1045A00041EC1B0B9FED4E0B53EC102B9DED0C0BB8
:1045B00051EC100BFBF781FE53EC1B2BFCF70EF8B4
:1045C00041EC100B4848784400EBC40090ED001B10
:1045D00051EC100B53EC112BFCF700F841EC1B0BCA
:1045E0003846FBF7DCFECDE9080153EC1B2B51EC00
:1045F0001A0BFBF7F3FF41EC100B3C48784400EB3F
:10460000C40090ED00CB51EC100B53EC1C2BFBF7CE
:10461000E5FF9DED081B53EC112BFBF7DFFF069028
:10462000CDE906519DED080B53EC102B9DED060BCB
:1046300051EC100BFCF773F853EC1C2BFCF76FF8E4
:1046400053EC1A2BFCF76BF853EC1B2BFCF76AF8B6
:1046500041EC100B9DED261B53EC102B8DED001B38
:1046600000959DED260B51EC100BFBF726FE9DED02
:10467000000B41EC1A0B53EC102B9DED260B51EC6B
:10468000100BFCF74CF89DED061B53EC112B2FE0A3
:10469000000000604715F73FFE822B654715F73F86
:1046A00044DF5DF80BAE543E0000000000004043C4
:1046B0008E9803007AB60B00420F0000081000002D
:1046C0007A0E00000000000000000000000008401A
:1046D000000000E009C7EE3FFD033ADC09C7EE3FEA
:1046E000F5015B14E02F3EBE060D0000C00C00007B
:1046F000FBF7E3FD53EC1A2BFBF770FF9DED060B68
:1047000041EC1A0B53EC102B9DED000B51EC100BF0
:10471000FBF7D3FDCDE90C019DED0C0B51EC1A0B11
:1047200053EC102BFBF75AFFCDE902010C46AA49C6
:104730008C422FDB611A084318D19DED0C0B53EC12
:10474000102B9DED020B51EC100BFBF7E8FF41EC39
:104750001B0B9FEDA30B51EC1A0B53EC102BFBF72B
:104760003DFF53EC1B2BFCF767F82DD2022000F025
:1047700043FA00F011FA10EE901A18EE900A8DED3F
:10478000020B8DED008B61F31E0003909DED020B7B
:10479000FFF7BEBB944A24F00041914214D39349E1
:1047A000214408437FF4EFAC9DED0C0B53EC102B30
:1047B0009DED020B51EC100BFBF7B1FF53EC1A2BE4
:1047C000FCF73AF87FF6DFAC24F000408849894ACC
:1047D000002601EB205182422BDA481C4FF4801155
:1047E00021FA00F02044844AC0F30A517A44A1F22D
:1047F000FF3192ED000B814A8DED080BCA4020EA93
:104800000202C0F3130040F48010C1F1140120FA39
:1048100001F60992002CB8BF76429DED080B53ECCF
:10482000102B9DED0C0B51EC100BFBF778FFCDE935
:104830000C019DED0C0B51EC1A0B53EC102BFBF7FC
:10484000CDFE9FED6F0B0890CDE9085153EC102B76
:104850009DED080B51EC100BFBF72FFD41EC1B0BF2
:104860009FED690B53EC102B9DED080B51EC100BD9
:10487000FBF723FD9DED0C0B41EC1C0B53EC102BB7
:104880009DED080B51EC100BFBF749FF53EC1A2B75
:10489000FBF748FF9FED5E1B53EC112BFBF70DFD63
:1048A00053EC1C2BFBF79AFE41EC1A0B51EC1B0B43
:1048B00053EC1A2BFBF792FECDE902019DED020BA2
:1048C00053EC1B2B51EC100BFBF729FF53EC1A2B6D
:1048D000FBF728FF9DED020B41EC1A0B53EC102B5C
:1048E00051EC100BFBF7E9FCCDE908014A489DEDBE
:1048F000080B0521784400F097F89DED081B51EC5A
:10490000100B53EC112BFBF7D8FC9DED021B53EC65
:10491000112BFBF707FFCDE906019DED020B53ECD0
:104920001A2B51EC100BFBF7C8FC53EC1A2BFBF7BE
:1049300055FE9FED3B0B41EC1A0B53EC102B9DEDFC
:10494000060B51EC100BFBF7EAFE9DED060B41EC5C
:104950001B0B53EC102B9DED020B51EC100BFBF7D6
:10496000ACFC53EC1B2BFBF7E0FE53EC1A2BFBF7D4
:10497000D6FE9DED021B53EC112BFBF7D0FE53EC42
:10498000192BFBF7CFFECDE9020101EB0650011513
:104990000029C8BF039015DC9DED020B324651EC97
:1049A000100BFBF731FFFEF7D8FD042808BF00F01D
:1049B00003F932469DED020B51EC100BFBF724FF7F
:1049C000CDE902019DED020B51EC180B53EC102BBD
:1049D000FBF773FCFFF73ABB0000904000000000BB
:1049E000FE822B654715973C00CC904000346F3F0A
:1049F00001FCFFFF0000E03FE00B0000FFFF0F00A5
:104A000000000000432EE63F396CA80C615C20BE1C
:104A1000EF39FAFE422EE63F180A000000000000BF
:104A2000000000000000004070B504462DED028B30
:104A30004D1E00EBC500B0EE408AF0EE608A90EDAE
:104A4000000B35F0060017D053EC182B51EC100B6F
:104A5000FBF733FC41EC100B6D1E04EBC50090ED31
:104A6000001B51EC100B53EC112BFBF7B7FD41EC85
:104A7000100B35F00600E7D1022D36D0042D1CD0E6
:104A8000062D1CBFBDEC028B70BD53EC182B51ECF6
:104A9000100BFBF712FC94ED0A1B53EC112BFBF7E8
:104AA0009DFD53EC182BFBF708FC94ED081B53EC11
:104AB000112BFBF793FD41EC100B53EC182B51EC31
:104AC000100BFBF7FAFB94ED061B53EC112BFBF7D5
:104AD00085FD53EC182BFBF7F0FB94ED040B53EC26
:104AE000102BFBF77BFD41EC100B53EC182B51EC1A
:104AF000100BFBF7E2FB94ED021B53EC112BFBF7C1
:104B00006DFD53EC182BFBF7D8FB94ED001B53EC19
:104B1000112BFBF763FDBDEC028B41EC100B70BD5C
:104B20009FED070B10B553EC102B9FED070B51ECCD
:104B3000100BFBF7FAFD41EC100B10BD000000005C
:104B40000000000000000000000000000000F03F36
:104B500010B553EC102B51EC100BFBF73FFD41EC63
:104B6000100B10BD10B553EC112B51EC100BFBF7D3
:104B700035FD41EC100B10BD9FED050B10B553EC4E
:104B8000102B51EC100BFBF7D0FD41EC100B10BDBE
:104B900000000000000000009FED050B10B553EC75
:104BA000102B51EC100BFBF788FB41EC100B10BDE8
:104BB00000000000000000709FED050B10B553ECE5
:104BC000102B51EC100BFBF778FB41EC100B10BDD8
:104BD000000000000000001002E008C8121F08C119
:104BE000002AFAD170477047002001E001C1121F6E
:104BF000002AFBD17047000001490860704700009F
:104C00002400002010B541EC100BFEF781FE51ECA2
:104C1000100B10BD0848002101224161C0E90612B5
:104C2000016041608160C16001610E21C0E908211D
:104C300001465C30FCF76ABDC40400202DE9FC414C
:104C4000D0ED210A9FED2C0A90ED251A60EE800A26
:104C5000FDEEE00A10EE901AD0ED220A09B260EEE5
:104C6000800AFDEEE00A10EE902AD0ED230A12B27F
:104C700060EE800AFDEEE00A10EE903AF2EE040AD1
:104C800021EE201A1DB2BDEEC11A11EE103A90EDC0
:104C9000261A1BB221EE201ABDEEC11A11EE104ADF
:104CA00090ED271A24B261EE200AFDEEE00A10EE24
:104CB000906AD0ED330A37B220EE800ABDEEC00A0A
:104CC00010EE100A06B20820CDE9007040F20C7018
:104CD000FCF782FC06210020CDE9000123462A468C
:104CE000314640F20D70FCF777FCBDE8FC414021F5
:104CF0000248FDF719B900000000C8420008024050
:104D000010B5FFF787FF01210748FCF789FC022156
:104D10000548FCF785FC10210348FCF781FCBDE841
:104D200010400148FCF7E8BF2005002082B0CDE923
:104D3000000121F0004001909DED000B02B051EC0C
:104D4000100B704710B52DED028BB0EE408AF0EEDF
:104D5000608AFBF735FB41EC110B9FED080BFFF769
:104D60003BF853EC182B51EC100BFBF7A6FAFBF7B2
:104D700034FBBDEC028B00B210BD0000000000004F
:104D8000000000402DED028BADF5956DFDF706FCA2
:104D9000FEF70EFBFEF76EFAFEF7C2FAFEF74AFACE
:104DA000FEF7DEFAFEF700FA8020674B4100CDE9FE
:104DB000001302909422654903A8FBF756FF40F2C6
:104DC0009C4203A96248FBF754FA6148FCF788FA51
:104DD000FA20FCF7C5FF5E48FCF7A8FA20B90122CB
:104DE000D1035C48FDF7A7F83220FCF7B9FF58481B
:104DF000FCF73AF83220FCF7B3FF5548FCF734F8DB
:104E00003220FCF7ADFF5248FCF728F8524C607096
:104E10004F48FBF7D7FD4E48FCF722FB0A214C48D0
:104E2000FBF779FF0A214A48FBF784FF0A2148482B
:104E3000FBF78AFF0A214648FBF781FF0A21444815
:104E4000FBF764FF0A214248FBF76FFF0A21404845
:104E5000FBF78EFF14213E48FBF762FF0A213C4816
:104E6000FBF777FF0A213A48FBF778FF0A21384819
:104E7000FBF779FFFFF744FF3848FDF7FBFE9FED96
:104E8000388B00253248FCF7EBFA20780028F9D05F
:104E90000D2856D2DFE800F055070B0F1524282CFB
:104EA0002430353E52002A48FBF78CFD49E0284863
:104EB000FBF780FD45E0002207212548FBF7A5FE12
:104EC0003FE0B0EE481AF0EE681AB0EE413AF0EE6C
:104ED000613AB0EE412AF0EE612A9FED230B29E002
:104EE0001B48FBF7D6FD2CE01948FBF773FD28E0C3
:104EF0001748FBF79EFD24E000231A460121009588
:104F000004E0012000231A46194600901048FBF7E0
:104F100020FD16E0B0EE480AF0EE680AB0EE403A26
:104F2000F0EE603AB0EE402AF0EE602AB0EE401AA1
:104F3000F0EE601A0648FBF70BFE02E00448FBF7B0
:104F4000D8FD25709EE700000008024048050020BB
:104F50002800002000040240000000209C050020E2
:104F60000000000000000000000000000000F03F12
:104F700010B500EE100A2DED048B4842B8EEC08A41
:104F8000FBF70DFA41EC110B9FED0B0BFEF724FF25
:104F9000B0EE409AF0EE609A18EE100AFBF73CFA79
:104FA00053EC192BFBF789F9FBF749FABDEC048B9D
:104FB00000EE100A10BD00000000000000000040DC
:104FC00010B574492DED0C8BB0EE619AB0EE41BA7C
:104FD00029EE01AAF0EE60AAF0EE408A00EE80AA67
:104FE0001AEE100A9FED6C8A884220DD18EE900AB6
:104FF000FBF712FA41EC1A0B19EE100AFBF70CFA48
:1050000041EC100BB0EE4A1AF0EE6A1AFEF7ECFD16
:105010009FED621B51EC100B53EC112BFBF74DF97C
:10502000FBF70DFA00EE100ADFED5E1A24E01AEE2F
:10503000100A5D49884236D918EE900AFBF7ECF960
:1050400041EC1A0B19EE100AFBF7E6F941EC100BD4
:10505000B0EE4A1AF0EE6A1AFEF7C6FD9FED531B3A
:1050600051EC100B53EC112BFBF727F9FBF7E7F989
:1050700000EE100ADFED4F1A00F09EF8B0EE402A65
:10508000B0EE610A00F098F8F0EE401AB0EE480A6F
:1050900000F092F8B0EE401AB0EE420AF0EE610A6B
:1050A000BDEC0C8B10BD6BEE0B0AB7EE008AF0EE78
:1050B000009AB0EE480A6AEEAABA00EEE90A29EEB2
:1050C00009DA0BEEE90A10EE100AFBF7A5F92BEE50
:1050D00029BA69EE29DA41EC1C0B2BEE280A0DEEF9
:1050E000EA0A10EE100AFBF797F941EC100BB0EE4C
:1050F0004C1AF0EE6C1AFEF777FD51EC100BFBF733
:105100009EF92AEE290A09EE100A10EE100AFBF7A2
:1051100083F941EC100BFEF74BFA51EC100BFBF747
:105120008EF90DEE698A0AEE100A0BEEE98A18EE86
:10513000100AFBF771F92DEEA80A41EC1C0B0BEEDF
:105140006A0A10EE100AFBF767F941EC100BB0EE9B
:105150004C1AF0EE6C1AFEF747FD51EC100BFBF702
:105160006EF901EE900AB0EE490A00F025F8F0EE73
:10517000402AB0EE4A0A00F01FF8B0EE402AB0EE26
:10518000610A00F019F8B0EE401AB0EE620AF0EED3
:10519000420A85E7DEFFFF3E00000000000000003D
:1051A00000000040DB0FC93FDEFFFFBE0000000033
:1051B000000000C0DB0FC9BF9FED041AC0EE010A5A
:1051C0009FED030A20EE800A70470000DB0F494084
:1051D0000000344300B52DED048B83B041EC190B76
:1051E000FBF766FB41EC180B18EE100A18EE901A4C
:1051F0008DED008B002818BF0120084320F00040EF
:10520000C0F17F6000F1E040C00F14D019EE101A19
:1052100019EE900A8DED009B002918BF012108436B
:1052200020F00040C0F17F6000F1E040C00F04BFFB
:105230000120FFF7E1FC51EC180B03B0BDEC048B2F
:1052400000BD00000000000000000102030406078A
:105250000809000000000102030400000000000033
:10526000555555555555C53F7D6FEB0312D6D4BFE7
:105270005544880E55C1C93F3B8F68B52882A4BFED
:1052800088B20175E0EF493F09F7FD0DE13D023FAE
:105290004B2D8A1C273A03C0C88A599CE52A004036
:1052A00059018D1B6C06E6BF82922EB1C5B8B33F83
:1052B000000000000000F03F000000000000F83F88
:1052C00000000000000000000000004003B8E23FC2
:1052D000000000000000000006D0CF43EBFD4C3E74
:1052E000033333333333E33FFFAB6FDBB66DDB3F69
:1052F0004D268F515555D53F01411DA96074D13FB1
:1053000065DBC9934A86CD3FEF4E454A287ECA3FAA
:105310003E5555555555C53F93BDBE166CC166BF2C
:105320002CDE25AF6A56113FF16BD2C541BDBBBE25
:10533000D0A4BE726937663E4FBB610567ACDD3FE6
:10534000182D4454FB21E93F9BF681D20B73EF3FAC
:10535000182D4454FB21F93FE2652F227F2B7A3C24
:10536000075C143326A6813CBDCBF07A8807703CDD
:10537000075C143326A6913CC4EB98999999C9BF50
:10538000711623FEC671BCBF6D9A74AFF2B0B3BF85
:105390009AFDDE522DDEADBF2F6C6A2C44B4A2BF45
:1053A0000D5555555555D53FFF8300922449C23FB1
:1053B0006E204CC5CD45B73F513DD0A0660DB13FE5
:1053C000EB0D76244B7BA93F11DA22E33AAD903FF7
:1053D0000000000000000000F8530008000000205A
:1053E00028000000D84B00082054000828000020A6
:1053F000B8190000E84B00080000000000000000A1
:10540000000000000000000000000000010000009B
:1054100010000000000000000024F4000000000064
:04000005080001D915
:00000001FF
